{
  "_format": "hh-sol-artifact-1",
  "contractName": "PoolChain",
  "sourceName": "contracts/PoolChain.sol",
  "abi": [
    {
      "inputs": [
        {
          "internalType": "address",
          "name": "_usdtToken",
          "type": "address"
        }
      ],
      "stateMutability": "nonpayable",
      "type": "constructor"
    },
    {
      "inputs": [],
      "name": "EnforcedPause",
      "type": "error"
    },
    {
      "inputs": [],
      "name": "ExpectedPause",
      "type": "error"
    },
    {
      "inputs": [
        {
          "internalType": "address",
          "name": "owner",
          "type": "address"
        }
      ],
      "name": "OwnableInvalidOwner",
      "type": "error"
    },
    {
      "inputs": [
        {
          "internalType": "address",
          "name": "account",
          "type": "address"
        }
      ],
      "name": "OwnableUnauthorizedAccount",
      "type": "error"
    },
    {
      "inputs": [],
      "name": "ReentrancyGuardReentrantCall",
      "type": "error"
    },
    {
      "anonymous": false,
      "inputs": [
        {
          "indexed": true,
          "internalType": "address",
          "name": "executor",
          "type": "address"
        },
        {
          "indexed": true,
          "internalType": "uint256",
          "name": "round",
          "type": "uint256"
        },
        {
          "indexed": false,
          "internalType": "uint256",
          "name": "incentive",
          "type": "uint256"
        }
      ],
      "name": "DrawExecuted",
      "type": "event"
    },
    {
      "anonymous": false,
      "inputs": [
        {
          "indexed": true,
          "internalType": "address",
          "name": "previousOwner",
          "type": "address"
        },
        {
          "indexed": true,
          "internalType": "address",
          "name": "newOwner",
          "type": "address"
        }
      ],
      "name": "OwnershipTransferred",
      "type": "event"
    },
    {
      "anonymous": false,
      "inputs": [
        {
          "indexed": false,
          "internalType": "address",
          "name": "account",
          "type": "address"
        }
      ],
      "name": "Paused",
      "type": "event"
    },
    {
      "anonymous": false,
      "inputs": [
        {
          "indexed": true,
          "internalType": "address",
          "name": "winner",
          "type": "address"
        },
        {
          "indexed": false,
          "internalType": "uint256",
          "name": "amount",
          "type": "uint256"
        }
      ],
      "name": "PrizeClaimed",
      "type": "event"
    },
    {
      "anonymous": false,
      "inputs": [
        {
          "indexed": true,
          "internalType": "address",
          "name": "executor",
          "type": "address"
        },
        {
          "indexed": true,
          "internalType": "uint256",
          "name": "round",
          "type": "uint256"
        }
      ],
      "name": "RoundReset",
      "type": "event"
    },
    {
      "anonymous": false,
      "inputs": [
        {
          "indexed": true,
          "internalType": "address",
          "name": "buyer",
          "type": "address"
        },
        {
          "indexed": false,
          "internalType": "uint256[]",
          "name": "positions",
          "type": "uint256[]"
        },
        {
          "indexed": false,
          "internalType": "uint256",
          "name": "quantity",
          "type": "uint256"
        },
        {
          "indexed": false,
          "internalType": "uint256",
          "name": "totalCost",
          "type": "uint256"
        },
        {
          "indexed": true,
          "internalType": "uint256",
          "name": "round",
          "type": "uint256"
        }
      ],
      "name": "TicketsPurchased",
      "type": "event"
    },
    {
      "anonymous": false,
      "inputs": [
        {
          "indexed": false,
          "internalType": "address",
          "name": "account",
          "type": "address"
        }
      ],
      "name": "Unpaused",
      "type": "event"
    },
    {
      "anonymous": false,
      "inputs": [
        {
          "indexed": true,
          "internalType": "uint256",
          "name": "round",
          "type": "uint256"
        },
        {
          "indexed": false,
          "internalType": "address[]",
          "name": "groupAWinners",
          "type": "address[]"
        },
        {
          "indexed": false,
          "internalType": "address[]",
          "name": "groupBWinners",
          "type": "address[]"
        },
        {
          "indexed": false,
          "internalType": "address[]",
          "name": "groupCWinners",
          "type": "address[]"
        },
        {
          "indexed": false,
          "internalType": "address[]",
          "name": "groupDWinners",
          "type": "address[]"
        }
      ],
      "name": "WinnersSelected",
      "type": "event"
    },
    {
      "inputs": [],
      "name": "EXECUTOR_INCENTIVE",
      "outputs": [
        {
          "internalType": "uint256",
          "name": "",
          "type": "uint256"
        }
      ],
      "stateMutability": "view",
      "type": "function"
    },
    {
      "inputs": [],
      "name": "GAS_FEE_PERCENTAGE",
      "outputs": [
        {
          "internalType": "uint256",
          "name": "",
          "type": "uint256"
        }
      ],
      "stateMutability": "view",
      "type": "function"
    },
    {
      "inputs": [],
      "name": "GROUP_A_COUNT",
      "outputs": [
        {
          "internalType": "uint256",
          "name": "",
          "type": "uint256"
        }
      ],
      "stateMutability": "view",
      "type": "function"
    },
    {
      "inputs": [],
      "name": "GROUP_A_PRIZE",
      "outputs": [
        {
          "internalType": "uint256",
          "name": "",
          "type": "uint256"
        }
      ],
      "stateMutability": "view",
      "type": "function"
    },
    {
      "inputs": [],
      "name": "GROUP_B_COUNT",
      "outputs": [
        {
          "internalType": "uint256",
          "name": "",
          "type": "uint256"
        }
      ],
      "stateMutability": "view",
      "type": "function"
    },
    {
      "inputs": [],
      "name": "GROUP_B_PRIZE",
      "outputs": [
        {
          "internalType": "uint256",
          "name": "",
          "type": "uint256"
        }
      ],
      "stateMutability": "view",
      "type": "function"
    },
    {
      "inputs": [],
      "name": "GROUP_C_COUNT",
      "outputs": [
        {
          "internalType": "uint256",
          "name": "",
          "type": "uint256"
        }
      ],
      "stateMutability": "view",
      "type": "function"
    },
    {
      "inputs": [],
      "name": "GROUP_C_PRIZE",
      "outputs": [
        {
          "internalType": "uint256",
          "name": "",
          "type": "uint256"
        }
      ],
      "stateMutability": "view",
      "type": "function"
    },
    {
      "inputs": [],
      "name": "GROUP_D_COUNT",
      "outputs": [
        {
          "internalType": "uint256",
          "name": "",
          "type": "uint256"
        }
      ],
      "stateMutability": "view",
      "type": "function"
    },
    {
      "inputs": [],
      "name": "GROUP_D_PRIZE",
      "outputs": [
        {
          "internalType": "uint256",
          "name": "",
          "type": "uint256"
        }
      ],
      "stateMutability": "view",
      "type": "function"
    },
    {
      "inputs": [],
      "name": "MAX_PARTICIPANTS",
      "outputs": [
        {
          "internalType": "uint256",
          "name": "",
          "type": "uint256"
        }
      ],
      "stateMutability": "view",
      "type": "function"
    },
    {
      "inputs": [],
      "name": "TICKET_PRICE",
      "outputs": [
        {
          "internalType": "uint256",
          "name": "",
          "type": "uint256"
        }
      ],
      "stateMutability": "view",
      "type": "function"
    },
    {
      "inputs": [],
      "name": "admin",
      "outputs": [
        {
          "internalType": "address",
          "name": "",
          "type": "address"
        }
      ],
      "stateMutability": "view",
      "type": "function"
    },
    {
      "inputs": [
        {
          "internalType": "uint256[]",
          "name": "positions",
          "type": "uint256[]"
        }
      ],
      "name": "buyTickets",
      "outputs": [],
      "stateMutability": "nonpayable",
      "type": "function"
    },
    {
      "inputs": [],
      "name": "claimPrize",
      "outputs": [],
      "stateMutability": "nonpayable",
      "type": "function"
    },
    {
      "inputs": [
        {
          "internalType": "address",
          "name": "",
          "type": "address"
        }
      ],
      "name": "claimableAmount",
      "outputs": [
        {
          "internalType": "uint256",
          "name": "",
          "type": "uint256"
        }
      ],
      "stateMutability": "view",
      "type": "function"
    },
    {
      "inputs": [],
      "name": "currentRound",
      "outputs": [
        {
          "internalType": "uint256",
          "name": "",
          "type": "uint256"
        }
      ],
      "stateMutability": "view",
      "type": "function"
    },
    {
      "inputs": [],
      "name": "drawInProgress",
      "outputs": [
        {
          "internalType": "bool",
          "name": "",
          "type": "bool"
        }
      ],
      "stateMutability": "view",
      "type": "function"
    },
    {
      "inputs": [
        {
          "internalType": "uint256",
          "name": "amount",
          "type": "uint256"
        }
      ],
      "name": "emergencyWithdraw",
      "outputs": [],
      "stateMutability": "nonpayable",
      "type": "function"
    },
    {
      "inputs": [],
      "name": "getGroupAWinners",
      "outputs": [
        {
          "internalType": "address[]",
          "name": "",
          "type": "address[]"
        }
      ],
      "stateMutability": "view",
      "type": "function"
    },
    {
      "inputs": [],
      "name": "getGroupBWinners",
      "outputs": [
        {
          "internalType": "address[]",
          "name": "",
          "type": "address[]"
        }
      ],
      "stateMutability": "view",
      "type": "function"
    },
    {
      "inputs": [],
      "name": "getGroupCWinners",
      "outputs": [
        {
          "internalType": "address[]",
          "name": "",
          "type": "address[]"
        }
      ],
      "stateMutability": "view",
      "type": "function"
    },
    {
      "inputs": [],
      "name": "getGroupDWinners",
      "outputs": [
        {
          "internalType": "address[]",
          "name": "",
          "type": "address[]"
        }
      ],
      "stateMutability": "view",
      "type": "function"
    },
    {
      "inputs": [
        {
          "internalType": "address",
          "name": "user",
          "type": "address"
        }
      ],
      "name": "getUserPositions",
      "outputs": [
        {
          "internalType": "uint256[]",
          "name": "",
          "type": "uint256[]"
        }
      ],
      "stateMutability": "view",
      "type": "function"
    },
    {
      "inputs": [
        {
          "internalType": "uint256",
          "name": "",
          "type": "uint256"
        }
      ],
      "name": "groupAWinners",
      "outputs": [
        {
          "internalType": "address",
          "name": "",
          "type": "address"
        }
      ],
      "stateMutability": "view",
      "type": "function"
    },
    {
      "inputs": [
        {
          "internalType": "uint256",
          "name": "",
          "type": "uint256"
        }
      ],
      "name": "groupBWinners",
      "outputs": [
        {
          "internalType": "address",
          "name": "",
          "type": "address"
        }
      ],
      "stateMutability": "view",
      "type": "function"
    },
    {
      "inputs": [
        {
          "internalType": "uint256",
          "name": "",
          "type": "uint256"
        }
      ],
      "name": "groupCWinners",
      "outputs": [
        {
          "internalType": "address",
          "name": "",
          "type": "address"
        }
      ],
      "stateMutability": "view",
      "type": "function"
    },
    {
      "inputs": [
        {
          "internalType": "uint256",
          "name": "",
          "type": "uint256"
        }
      ],
      "name": "groupDWinners",
      "outputs": [
        {
          "internalType": "address",
          "name": "",
          "type": "address"
        }
      ],
      "stateMutability": "view",
      "type": "function"
    },
    {
      "inputs": [],
      "name": "owner",
      "outputs": [
        {
          "internalType": "address",
          "name": "",
          "type": "address"
        }
      ],
      "stateMutability": "view",
      "type": "function"
    },
    {
      "inputs": [],
      "name": "pause",
      "outputs": [],
      "stateMutability": "nonpayable",
      "type": "function"
    },
    {
      "inputs": [],
      "name": "paused",
      "outputs": [
        {
          "internalType": "bool",
          "name": "",
          "type": "bool"
        }
      ],
      "stateMutability": "view",
      "type": "function"
    },
    {
      "inputs": [],
      "name": "performDraw",
      "outputs": [],
      "stateMutability": "nonpayable",
      "type": "function"
    },
    {
      "inputs": [],
      "name": "poolFilled",
      "outputs": [
        {
          "internalType": "bool",
          "name": "",
          "type": "bool"
        }
      ],
      "stateMutability": "view",
      "type": "function"
    },
    {
      "inputs": [],
      "name": "renounceOwnership",
      "outputs": [],
      "stateMutability": "nonpayable",
      "type": "function"
    },
    {
      "inputs": [],
      "name": "resetRound",
      "outputs": [],
      "stateMutability": "nonpayable",
      "type": "function"
    },
    {
      "inputs": [
        {
          "internalType": "uint256",
          "name": "",
          "type": "uint256"
        }
      ],
      "name": "ticketOwner",
      "outputs": [
        {
          "internalType": "address",
          "name": "",
          "type": "address"
        }
      ],
      "stateMutability": "view",
      "type": "function"
    },
    {
      "inputs": [],
      "name": "ticketsSold",
      "outputs": [
        {
          "internalType": "uint256",
          "name": "",
          "type": "uint256"
        }
      ],
      "stateMutability": "view",
      "type": "function"
    },
    {
      "inputs": [
        {
          "internalType": "address",
          "name": "newOwner",
          "type": "address"
        }
      ],
      "name": "transferOwnership",
      "outputs": [],
      "stateMutability": "nonpayable",
      "type": "function"
    },
    {
      "inputs": [],
      "name": "unpause",
      "outputs": [],
      "stateMutability": "nonpayable",
      "type": "function"
    },
    {
      "inputs": [],
      "name": "usdtToken",
      "outputs": [
        {
          "internalType": "contract IERC20",
          "name": "",
          "type": "address"
        }
      ],
      "stateMutability": "view",
      "type": "function"
    },
    {
      "inputs": [
        {
          "internalType": "address",
          "name": "",
          "type": "address"
        },
        {
          "internalType": "uint256",
          "name": "",
          "type": "uint256"
        }
      ],
      "name": "userPositions",
      "outputs": [
        {
          "internalType": "uint256",
          "name": "",
          "type": "uint256"
        }
      ],
      "stateMutability": "view",
      "type": "function"
    },
    {
      "inputs": [],
      "name": "winnersSelected",
      "outputs": [
        {
          "internalType": "bool",
          "name": "",
          "type": "bool"
        }
      ],
      "stateMutability": "view",
      "type": "function"
    }
  ],
  "bytecode": "0x60a06040523480156200001157600080fd5b506040516200213c3803806200213c833981016040819052620000349162000146565b33806200005c57604051631e4fbdf760e01b8152600060048201526024015b60405180910390fd5b6200006781620000f6565b50600180556001600160a01b038116620000c45760405162461bcd60e51b815260206004820152601460248201527f496e76616c696420555344542061646472657373000000000000000000000000604482015260640162000053565b6001600160a01b0316608052600580546301000000600160b81b03191633630100000002179055600160035562000178565b600080546001600160a01b038381166001600160a01b0319831681178455604051919092169283917f8be0079c531659141344cd1fd0a4f28419497f9722a3daafe3b4186f6b6457e09190a35050565b6000602082840312156200015957600080fd5b81516001600160a01b03811681146200017157600080fd5b9392505050565b608051611f85620001b760003960008181610446015281816106ed015281816107c20152818161096e01528181610c0d01526110270152611f856000f3fe608060405234801561001057600080fd5b506004361061025e5760003560e01c80638456cb59116101465780639e649db8116100c3578063c421a16e11610087578063c421a16e146104a4578063d0fbe7fe146104b7578063e9ad7abb146104ca578063f2fde38b146104d2578063f3baf070146104e5578063f851a440146104ed57600080fd5b80639e649db8146104265780639ff860f514610439578063a98ad46c14610441578063c1f8d5cc14610468578063c2ff12fc1461047b57600080fd5b80638bc532851161010a5780638bc53285146103df5780638c44f715146103f15780638da5cb5b146104045780638f15024f14610415578063924d46961461041e57600080fd5b80638456cb591461039c57806384d452ff146103a457806385957c23146103ac57806389885049146103b65780638a19c8bc146103d657600080fd5b80635312ea8e116101df5780636f4e031c116101a35780636f4e031c1461034457806370740ac91461036f578063715018a614610377578063766c3e671461037f5780637c45788814610387578063808511a11461038f57600080fd5b80635312ea8e146102ea5780635c975abb146102fd5780635e1b4d99146103145780636bd5dfce146103275780636c6e99d71461033c57600080fd5b80633c7f246a116102265780633c7f246a146102bc5780633f4ba83a146102c6578063452dac3a146102d05780634cdb5d40146102d857806350862748146102e057600080fd5b806306058afe146102635780631a95f15f146102805780632a6bc2dd1461028a5780632e4e9ea1146102aa5780632f5061ce146102b2575b600080fd5b61026d622ca1c881565b6040519081526020015b60405180910390f35b61026d621e848081565b61029d610298366004611c05565b610507565b6040516102779190611c27565b61026d602881565b61026d620ee09881565b61026d620f424081565b6102ce610573565b005b61026d600a81565b6102ce610585565b61026d6259439081565b6102ce6102f8366004611c6b565b610964565b60025460ff165b6040519015158152602001610277565b61026d610322366004611c84565b610a5f565b61032f610a90565b6040516102779190611cae565b61032f610af2565b610357610352366004611c6b565b610b52565b6040516001600160a01b039091168152602001610277565b6102ce610b7c565b6102ce610cf7565b61026d601e81565b61026d601481565b6005546103049060ff1681565b6102ce610d09565b6102ce610d19565b61026d6213d62081565b61026d6103c4366004611c05565b60086020526000908152604090205481565b61026d60035481565b60055461030490610100900460ff1681565b6103576103ff366004611c6b565b610e0d565b6000546001600160a01b0316610357565b61026d60045481565b61032f610e1d565b6005546103049062010000900460ff1681565b61032f610e7d565b6103577f000000000000000000000000000000000000000000000000000000000000000081565b610357610476366004611c6b565b610edd565b610357610489366004611c6b565b6006602052600090815260409020546001600160a01b031681565b6103576104b2366004611c6b565b610eed565b6102ce6104c5366004611cef565b610efd565b61026d600281565b6102ce6104e0366004611c05565b611280565b61026d606481565b60055461035790630100000090046001600160a01b031681565b6001600160a01b03811660009081526007602090815260409182902080548351818402810184019094528084526060939283018282801561056757602002820191906000526020600020905b815481526020019060010190808311610553575b50505050509050919050565b61057b6112bb565b6105836112e8565b565b61058d61133a565b60055460ff166105d45760405162461bcd60e51b815260206004820152600d60248201526c141bdbdb081b9bdd08199d5b1b609a1b60448201526064015b60405180910390fd5b600554610100900460ff161561062c5760405162461bcd60e51b815260206004820152601860248201527f57696e6e65727320616c72656164792073656c6563746564000000000000000060448201526064016105cb565b60055462010000900460ff16156106785760405162461bcd60e51b815260206004820152601060248201526f4472617720696e2070726f677265737360801b60448201526064016105cb565b6005805462ffff001916620101001790556000610699621e84806064611d7a565b9050600060646106aa600284611d7a565b6106b49190611dad565b60055460405163a9059cbb60e01b815263010000009091046001600160a01b03908116600483015260248201839052919250620f4240917f0000000000000000000000000000000000000000000000000000000000000000169063a9059cbb906044016020604051808303816000875af1158015610736573d6000803e3d6000fd5b505050506040513d601f19601f8201168201806040525081019061075a9190611dc1565b6107a65760405162461bcd60e51b815260206004820152601760248201527f47617320666565207472616e73666572206661696c656400000000000000000060448201526064016105cb565b60405163a9059cbb60e01b8152336004820152602481018290527f00000000000000000000000000000000000000000000000000000000000000006001600160a01b03169063a9059cbb906044016020604051808303816000875af1158015610813573d6000803e3d6000fd5b505050506040513d601f19601f820116820180604052508101906108379190611dc1565b6108835760405162461bcd60e51b815260206004820152601960248201527f496e63656e74697665207472616e73666572206661696c65640000000000000060448201526064016105cb565b6000610890600143611de3565b6003546040805192406020840152429083015260608201526080016040516020818303038152906040528051906020012060001c90506108cf81611364565b6005805462ff00001916905560035460405183815233907ffd1b82e0385130e577d818f130ba594724516dc6ba33392588bc08f2914bdffa9060200160405180910390a36003547f2dc4882fa21bd92ed193c142b2ad8e76bf908c7c957a702d2b04e79781f706016009600a600b600c60405161094f9493929190611e3f565b60405180910390a25050505061058360018055565b61096c6112bb565b7f00000000000000000000000000000000000000000000000000000000000000006001600160a01b031663a9059cbb6109ad6000546001600160a01b031690565b6040516001600160e01b031960e084901b1681526001600160a01b039091166004820152602481018490526044016020604051808303816000875af11580156109fa573d6000803e3d6000fd5b505050506040513d601f19601f82011682018060405250810190610a1e9190611dc1565b610a5c5760405162461bcd60e51b815260206004820152600f60248201526e151c985b9cd9995c8819985a5b1959608a1b60448201526064016105cb565b50565b60076020528160005260406000208181548110610a7b57600080fd5b90600052602060002001600091509150505481565b60606009805480602002602001604051908101604052809291908181526020018280548015610ae857602002820191906000526020600020905b81546001600160a01b03168152600190910190602001808311610aca575b5050505050905090565b6060600a805480602002602001604051908101604052809291908181526020018280548015610ae8576020028201919060005260206000209081546001600160a01b03168152600190910190602001808311610aca575050505050905090565b600b8181548110610b6257600080fd5b6000918252602090912001546001600160a01b0316905081565b610b8461133a565b3360009081526008602052604090205480610bd55760405162461bcd60e51b81526020600482015260116024820152704e6f207072697a6520746f20636c61696d60781b60448201526064016105cb565b33600081815260086020526040808220919091555163a9059cbb60e01b81526004810191909152602481018290526001600160a01b037f0000000000000000000000000000000000000000000000000000000000000000169063a9059cbb906044016020604051808303816000875af1158015610c56573d6000803e3d6000fd5b505050506040513d601f19601f82011682018060405250810190610c7a9190611dc1565b610cb85760405162461bcd60e51b815260206004820152600f60248201526e151c985b9cd9995c8819985a5b1959608a1b60448201526064016105cb565b60405181815233907f95681e512bc0fe659e195e06c283eada494316f3d801213e48e7101af92bf7709060200160405180910390a25061058360018055565b610cff6112bb565b61058360006119d6565b610d116112bb565b610583611a26565b610d2161133a565b60055460ff16610d655760405162461bcd60e51b815260206004820152600f60248201526e141bdbdb081b9bdd08199a5b1b1959608a1b60448201526064016105cb565b600554610100900460ff16610db05760405162461bcd60e51b8152602060048201526011602482015270111c985dc81b9bdd08195e1958dd5d1959607a1b60448201526064016105cb565b60055462010000900460ff1615610dfc5760405162461bcd60e51b815260206004820152601060248201526f4472617720696e2070726f677265737360801b60448201526064016105cb565b610e04611a63565b61058360018055565b600c8181548110610b6257600080fd5b6060600b805480602002602001604051908101604052809291908181526020018280548015610ae8576020028201919060005260206000209081546001600160a01b03168152600190910190602001808311610aca575050505050905090565b6060600c805480602002602001604051908101604052809291908181526020018280548015610ae8576020028201919060005260206000209081546001600160a01b03168152600190910190602001808311610aca575050505050905090565b600a8181548110610b6257600080fd5b60098181548110610b6257600080fd5b610f0561133a565b610f0d611b70565b60055460ff1615610f4f5760405162461bcd60e51b815260206004820152600c60248201526b141bdbdb081a5cc8199d5b1b60a21b60448201526064016105cb565b80610f945760405162461bcd60e51b8152602060048201526015602482015274139bc81c1bdcda5d1a5bdb9cc81c1c9bdd9a591959605a1b60448201526064016105cb565b600454606490610fa5908390611e97565b1115610ff35760405162461bcd60e51b815260206004820152601860248201527f45786365656473206d6178207061727469636970616e7473000000000000000060448201526064016105cb565b600061100282621e8480611d7a565b6040516323b872dd60e01b8152336004820152306024820152604481018290529091507f00000000000000000000000000000000000000000000000000000000000000006001600160a01b0316906323b872dd906064016020604051808303816000875af1158015611078573d6000803e3d6000fd5b505050506040513d601f19601f8201168201806040525081019061109c9190611dc1565b6110df5760405162461bcd60e51b81526020600482015260146024820152731554d115081d1c985b9cd9995c8819985a5b195960621b60448201526064016105cb565b60005b828110156111fb5760008484838181106110fe576110fe611eaa565b90506020020135905060018110158015611119575060648111155b6111585760405162461bcd60e51b815260206004820152601060248201526f24b73b30b634b2103837b9b4ba34b7b760811b60448201526064016105cb565b6000818152600660205260409020546001600160a01b0316156111ae5760405162461bcd60e51b815260206004820152600e60248201526d2837b9b4ba34b7b7103a30b5b2b760911b60448201526064016105cb565b600081815260066020908152604080832080546001600160a01b031916339081179091558352600782528220805460018101825590835291200155806111f381611ec0565b9150506110e2565b5082829050600460008282546112119190611e97565b90915550506004546063190161122f576005805460ff191660011790555b60035460405133907f1dae28b421b911a4474c89d602190e4ced33fc059a827a657b2e8afe37a4e95e9061126a908790879081908890611ed9565b60405180910390a35061127c60018055565b5050565b6112886112bb565b6001600160a01b0381166112b257604051631e4fbdf760e01b8152600060048201526024016105cb565b610a5c816119d6565b6000546001600160a01b031633146105835760405163118cdaa760e01b81523360048201526024016105cb565b6112f0611b94565b6002805460ff191690557f5db9ee0a495bf2e6ff9c91a7834c1ba4fdd244a5e8aa4e537bd38aeae4b073aa335b6040516001600160a01b03909116815260200160405180910390a1565b60026001540361135d57604051633ee5aeb560e01b815260040160405180910390fd5b6002600155565b604080516064808252610ca0820190925260009160208201610c808036833701905050905060005b60648110156113cf576113a0816001611e97565b8282815181106113b2576113b2611eaa565b6020908102919091010152806113c781611ec0565b91505061138c565b50606460005b600a81101561154f5760008285836040516020016113fd929190918252602082015260400190565b6040516020818303038152906040528051906020012060001c6114209190611f1f565b9050600084828151811061143657611436611eaa565b602090810291909101810151600081815260069092526040909120549091506001600160a01b03168061147b5760405162461bcd60e51b81526004016105cb90611f33565b60098054600181019091557f6e1540171b6c0c960b71a7020d9f60077f6af931a8bbf590da0223dacf75c7af0180546001600160a01b0319166001600160a01b038316908117909155600090815260086020526040812080546259439092906114e5908490611e97565b909155508690506114f7600187611de3565b8151811061150757611507611eaa565b602002602001015186848151811061152157611521611eaa565b60209081029190910101528461153681611f61565b955050505050808061154790611ec0565b9150506113d5565b5060005b60148110156116cf576000828561156b846064611e97565b6040805160208101939093528201526060016040516020818303038152906040528051906020012060001c6115a09190611f1f565b905060008482815181106115b6576115b6611eaa565b602090810291909101810151600081815260069092526040909120549091506001600160a01b0316806115fb5760405162461bcd60e51b81526004016105cb90611f33565b600a8054600181019091557fc65a7bb8d6351c1cf70c95a316cc6a92839c986682d98bc35f958f4883f9d2a80180546001600160a01b0319166001600160a01b03831690811790915560009081526008602052604081208054622ca1c89290611665908490611e97565b90915550869050611677600187611de3565b8151811061168757611687611eaa565b60200260200101518684815181106116a1576116a1611eaa565b6020908102919091010152846116b681611f61565b95505050505080806116c790611ec0565b915050611553565b5060005b601e81101561184f57600082856116eb8460c8611e97565b6040805160208101939093528201526060016040516020818303038152906040528051906020012060001c6117209190611f1f565b9050600084828151811061173657611736611eaa565b602090810291909101810151600081815260069092526040909120549091506001600160a01b03168061177b5760405162461bcd60e51b81526004016105cb90611f33565b600b8054600181019091557f0175b7a638427703f0dbe7bb9bbf987a2551717b34e79f33b5b1008d1fa01db90180546001600160a01b0319166001600160a01b038316908117909155600090815260086020526040812080546213d62092906117e5908490611e97565b909155508690506117f7600187611de3565b8151811061180757611807611eaa565b602002602001015186848151811061182157611821611eaa565b60209081029190910101528461183681611f61565b955050505050808061184790611ec0565b9150506116d3565b5060005b60288110156119d0576000828561186c8461012c611e97565b6040805160208101939093528201526060016040516020818303038152906040528051906020012060001c6118a19190611f1f565b905060008482815181106118b7576118b7611eaa565b602090810291909101810151600081815260069092526040909120549091506001600160a01b0316806118fc5760405162461bcd60e51b81526004016105cb90611f33565b600c8054600181019091557fdf6966c971051c3d54ec59162606531493a51404a002842f56009d7e5cf4a8c70180546001600160a01b0319166001600160a01b03831690811790915560009081526008602052604081208054620ee0989290611966908490611e97565b90915550869050611978600187611de3565b8151811061198857611988611eaa565b60200260200101518684815181106119a2576119a2611eaa565b6020908102919091010152846119b781611f61565b95505050505080806119c890611ec0565b915050611853565b50505050565b600080546001600160a01b038381166001600160a01b0319831681178455604051919092169283917f8be0079c531659141344cd1fd0a4f28419497f9722a3daafe3b4186f6b6457e09190a35050565b611a2e611b70565b6002805460ff191660011790557f62e78cea01bee320cd4e420270b5ea74000d11b0c9f74754ebdbfc544b05a25861131d3390565b611a6f60096000611bb7565b611a7b600a6000611bb7565b611a87600b6000611bb7565b611a93600c6000611bb7565b60015b60648111611b0d576000818152600660205260409020546001600160a01b03168015611afa576001600160a01b0381166000908152600760205260408120611add91611bb7565b600082815260066020526040902080546001600160a01b03191690555b5080611b0581611ec0565b915050611a96565b50600060048190556005805462ffffff191690556003805491611b2f83611ec0565b91905055506001600354611b439190611de3565b60405133907f0ba963f56e5f120b8ededa1a7e97e22e3cab2e084a23a54f050ada876416601e90600090a3565b60025460ff16156105835760405163d93c066560e01b815260040160405180910390fd5b60025460ff1661058357604051638dfc202b60e01b815260040160405180910390fd5b5080546000825590600052602060002090810190610a5c91905b80821115611be55760008155600101611bd1565b5090565b80356001600160a01b0381168114611c0057600080fd5b919050565b600060208284031215611c1757600080fd5b611c2082611be9565b9392505050565b6020808252825182820181905260009190848201906040850190845b81811015611c5f57835183529284019291840191600101611c43565b50909695505050505050565b600060208284031215611c7d57600080fd5b5035919050565b60008060408385031215611c9757600080fd5b611ca083611be9565b946020939093013593505050565b6020808252825182820181905260009190848201906040850190845b81811015611c5f5783516001600160a01b031683529284019291840191600101611cca565b60008060208385031215611d0257600080fd5b823567ffffffffffffffff80821115611d1a57600080fd5b818501915085601f830112611d2e57600080fd5b813581811115611d3d57600080fd5b8660208260051b8501011115611d5257600080fd5b60209290920196919550909350505050565b634e487b7160e01b600052601160045260246000fd5b8082028115828204841417611d9157611d91611d64565b92915050565b634e487b7160e01b600052601260045260246000fd5b600082611dbc57611dbc611d97565b500490565b600060208284031215611dd357600080fd5b81518015158114611c2057600080fd5b81810381811115611d9157611d91611d64565b6000815480845260208085019450836000528060002060005b83811015611e345781546001600160a01b031687529582019560019182019101611e0f565b509495945050505050565b608081526000611e526080830187611df6565b8281036020840152611e648187611df6565b90508281036040840152611e788186611df6565b90508281036060840152611e8c8185611df6565b979650505050505050565b80820180821115611d9157611d91611d64565b634e487b7160e01b600052603260045260246000fd5b600060018201611ed257611ed2611d64565b5060010190565b6060808252810184905260006001600160fb1b03851115611ef957600080fd5b8460051b8087608085013760208301949094525060408101919091520160800192915050565b600082611f2e57611f2e611d97565b500690565b602080825260149082015273496e76616c6964207469636b657420737461746560601b604082015260600190565b600081611f7057611f70611d64565b50600019019056fea164736f6c6343000814000a",
  "linkReferences": {},
  "deployedLinkReferences": {}
}