{
  "_format": "hh-sol-artifact-1",
  "contractName": "PoolChainV6",
  "sourceName": "contracts/PoolChainV6.sol",
  "abi": [
    {
      "inputs": [
        {
          "internalType": "address",
          "name": "_usdtToken",
          "type": "address"
        }
      ],
      "stateMutability": "nonpayable",
      "type": "constructor"
    },
    {
      "inputs": [],
      "name": "EnforcedPause",
      "type": "error"
    },
    {
      "inputs": [],
      "name": "ExpectedPause",
      "type": "error"
    },
    {
      "inputs": [
        {
          "internalType": "address",
          "name": "owner",
          "type": "address"
        }
      ],
      "name": "OwnableInvalidOwner",
      "type": "error"
    },
    {
      "inputs": [
        {
          "internalType": "address",
          "name": "account",
          "type": "address"
        }
      ],
      "name": "OwnableUnauthorizedAccount",
      "type": "error"
    },
    {
      "inputs": [],
      "name": "ReentrancyGuardReentrantCall",
      "type": "error"
    },
    {
      "anonymous": false,
      "inputs": [
        {
          "indexed": true,
          "internalType": "address",
          "name": "executor",
          "type": "address"
        },
        {
          "indexed": true,
          "internalType": "uint256",
          "name": "round",
          "type": "uint256"
        },
        {
          "indexed": false,
          "internalType": "uint256",
          "name": "incentive",
          "type": "uint256"
        }
      ],
      "name": "DrawExecuted",
      "type": "event"
    },
    {
      "anonymous": false,
      "inputs": [
        {
          "indexed": true,
          "internalType": "address",
          "name": "previousOwner",
          "type": "address"
        },
        {
          "indexed": true,
          "internalType": "address",
          "name": "newOwner",
          "type": "address"
        }
      ],
      "name": "OwnershipTransferred",
      "type": "event"
    },
    {
      "anonymous": false,
      "inputs": [
        {
          "indexed": false,
          "internalType": "address",
          "name": "account",
          "type": "address"
        }
      ],
      "name": "Paused",
      "type": "event"
    },
    {
      "anonymous": false,
      "inputs": [
        {
          "indexed": true,
          "internalType": "address",
          "name": "user",
          "type": "address"
        },
        {
          "indexed": false,
          "internalType": "uint256",
          "name": "amount",
          "type": "uint256"
        }
      ],
      "name": "PrizeClaimed",
      "type": "event"
    },
    {
      "anonymous": false,
      "inputs": [
        {
          "indexed": true,
          "internalType": "address",
          "name": "executor",
          "type": "address"
        },
        {
          "indexed": true,
          "internalType": "uint256",
          "name": "round",
          "type": "uint256"
        }
      ],
      "name": "RoundReset",
      "type": "event"
    },
    {
      "anonymous": false,
      "inputs": [
        {
          "indexed": true,
          "internalType": "uint256",
          "name": "ticketId",
          "type": "uint256"
        },
        {
          "indexed": true,
          "internalType": "uint256",
          "name": "round",
          "type": "uint256"
        },
        {
          "indexed": true,
          "internalType": "address",
          "name": "owner",
          "type": "address"
        },
        {
          "indexed": false,
          "internalType": "uint8",
          "name": "group",
          "type": "uint8"
        },
        {
          "indexed": false,
          "internalType": "uint256",
          "name": "prize",
          "type": "uint256"
        }
      ],
      "name": "TicketWon",
      "type": "event"
    },
    {
      "anonymous": false,
      "inputs": [
        {
          "indexed": true,
          "internalType": "address",
          "name": "buyer",
          "type": "address"
        },
        {
          "indexed": false,
          "internalType": "uint256[]",
          "name": "ticketIds",
          "type": "uint256[]"
        },
        {
          "indexed": false,
          "internalType": "uint256[]",
          "name": "positions",
          "type": "uint256[]"
        },
        {
          "indexed": false,
          "internalType": "uint256",
          "name": "quantity",
          "type": "uint256"
        },
        {
          "indexed": false,
          "internalType": "uint256",
          "name": "totalCost",
          "type": "uint256"
        },
        {
          "indexed": true,
          "internalType": "uint256",
          "name": "round",
          "type": "uint256"
        }
      ],
      "name": "TicketsPurchased",
      "type": "event"
    },
    {
      "anonymous": false,
      "inputs": [
        {
          "indexed": false,
          "internalType": "address",
          "name": "account",
          "type": "address"
        }
      ],
      "name": "Unpaused",
      "type": "event"
    },
    {
      "anonymous": false,
      "inputs": [
        {
          "indexed": true,
          "internalType": "uint256",
          "name": "round",
          "type": "uint256"
        },
        {
          "indexed": false,
          "internalType": "uint256[]",
          "name": "groupATicketIds",
          "type": "uint256[]"
        },
        {
          "indexed": false,
          "internalType": "uint256[]",
          "name": "groupBTicketIds",
          "type": "uint256[]"
        },
        {
          "indexed": false,
          "internalType": "uint256[]",
          "name": "groupCTicketIds",
          "type": "uint256[]"
        },
        {
          "indexed": false,
          "internalType": "uint256[]",
          "name": "groupDTicketIds",
          "type": "uint256[]"
        },
        {
          "indexed": false,
          "internalType": "uint256",
          "name": "totalPrizePool",
          "type": "uint256"
        }
      ],
      "name": "WinnersSelected",
      "type": "event"
    },
    {
      "inputs": [],
      "name": "ADMIN_PERCENT",
      "outputs": [
        {
          "internalType": "uint256",
          "name": "",
          "type": "uint256"
        }
      ],
      "stateMutability": "view",
      "type": "function"
    },
    {
      "inputs": [],
      "name": "DECIMALS",
      "outputs": [
        {
          "internalType": "uint256",
          "name": "",
          "type": "uint256"
        }
      ],
      "stateMutability": "view",
      "type": "function"
    },
    {
      "inputs": [],
      "name": "EXECUTOR_PERCENT",
      "outputs": [
        {
          "internalType": "uint256",
          "name": "",
          "type": "uint256"
        }
      ],
      "stateMutability": "view",
      "type": "function"
    },
    {
      "inputs": [],
      "name": "GROUP_A_COUNT",
      "outputs": [
        {
          "internalType": "uint256",
          "name": "",
          "type": "uint256"
        }
      ],
      "stateMutability": "view",
      "type": "function"
    },
    {
      "inputs": [],
      "name": "GROUP_A_PRIZE",
      "outputs": [
        {
          "internalType": "uint256",
          "name": "",
          "type": "uint256"
        }
      ],
      "stateMutability": "view",
      "type": "function"
    },
    {
      "inputs": [],
      "name": "GROUP_B_COUNT",
      "outputs": [
        {
          "internalType": "uint256",
          "name": "",
          "type": "uint256"
        }
      ],
      "stateMutability": "view",
      "type": "function"
    },
    {
      "inputs": [],
      "name": "GROUP_B_PRIZE",
      "outputs": [
        {
          "internalType": "uint256",
          "name": "",
          "type": "uint256"
        }
      ],
      "stateMutability": "view",
      "type": "function"
    },
    {
      "inputs": [],
      "name": "GROUP_C_COUNT",
      "outputs": [
        {
          "internalType": "uint256",
          "name": "",
          "type": "uint256"
        }
      ],
      "stateMutability": "view",
      "type": "function"
    },
    {
      "inputs": [],
      "name": "GROUP_C_PRIZE",
      "outputs": [
        {
          "internalType": "uint256",
          "name": "",
          "type": "uint256"
        }
      ],
      "stateMutability": "view",
      "type": "function"
    },
    {
      "inputs": [],
      "name": "GROUP_D_COUNT",
      "outputs": [
        {
          "internalType": "uint256",
          "name": "",
          "type": "uint256"
        }
      ],
      "stateMutability": "view",
      "type": "function"
    },
    {
      "inputs": [],
      "name": "GROUP_D_PRIZE",
      "outputs": [
        {
          "internalType": "uint256",
          "name": "",
          "type": "uint256"
        }
      ],
      "stateMutability": "view",
      "type": "function"
    },
    {
      "inputs": [],
      "name": "MAX_PARTICIPANTS",
      "outputs": [
        {
          "internalType": "uint256",
          "name": "",
          "type": "uint256"
        }
      ],
      "stateMutability": "view",
      "type": "function"
    },
    {
      "inputs": [],
      "name": "PRIZE_PERCENT",
      "outputs": [
        {
          "internalType": "uint256",
          "name": "",
          "type": "uint256"
        }
      ],
      "stateMutability": "view",
      "type": "function"
    },
    {
      "inputs": [],
      "name": "TICKET_PRICE",
      "outputs": [
        {
          "internalType": "uint256",
          "name": "",
          "type": "uint256"
        }
      ],
      "stateMutability": "view",
      "type": "function"
    },
    {
      "inputs": [],
      "name": "admin",
      "outputs": [
        {
          "internalType": "address",
          "name": "",
          "type": "address"
        }
      ],
      "stateMutability": "view",
      "type": "function"
    },
    {
      "inputs": [
        {
          "internalType": "uint256[]",
          "name": "positions",
          "type": "uint256[]"
        }
      ],
      "name": "buyTickets",
      "outputs": [],
      "stateMutability": "nonpayable",
      "type": "function"
    },
    {
      "inputs": [],
      "name": "claimPrize",
      "outputs": [],
      "stateMutability": "nonpayable",
      "type": "function"
    },
    {
      "inputs": [
        {
          "internalType": "address",
          "name": "",
          "type": "address"
        }
      ],
      "name": "claimableAmount",
      "outputs": [
        {
          "internalType": "uint256",
          "name": "",
          "type": "uint256"
        }
      ],
      "stateMutability": "view",
      "type": "function"
    },
    {
      "inputs": [],
      "name": "currentRound",
      "outputs": [
        {
          "internalType": "uint256",
          "name": "",
          "type": "uint256"
        }
      ],
      "stateMutability": "view",
      "type": "function"
    },
    {
      "inputs": [],
      "name": "drawInProgress",
      "outputs": [
        {
          "internalType": "bool",
          "name": "",
          "type": "bool"
        }
      ],
      "stateMutability": "view",
      "type": "function"
    },
    {
      "inputs": [
        {
          "internalType": "uint256",
          "name": "amount",
          "type": "uint256"
        }
      ],
      "name": "emergencyWithdraw",
      "outputs": [],
      "stateMutability": "nonpayable",
      "type": "function"
    },
    {
      "inputs": [
        {
          "internalType": "uint256",
          "name": "round",
          "type": "uint256"
        }
      ],
      "name": "getRoundWinners",
      "outputs": [
        {
          "internalType": "uint256[]",
          "name": "groupA",
          "type": "uint256[]"
        },
        {
          "internalType": "uint256[]",
          "name": "groupB",
          "type": "uint256[]"
        },
        {
          "internalType": "uint256[]",
          "name": "groupC",
          "type": "uint256[]"
        },
        {
          "internalType": "uint256[]",
          "name": "groupD",
          "type": "uint256[]"
        }
      ],
      "stateMutability": "view",
      "type": "function"
    },
    {
      "inputs": [
        {
          "internalType": "uint256",
          "name": "ticketId",
          "type": "uint256"
        }
      ],
      "name": "getTicketDetails",
      "outputs": [
        {
          "components": [
            {
              "internalType": "uint256",
              "name": "id",
              "type": "uint256"
            },
            {
              "internalType": "uint256",
              "name": "position",
              "type": "uint256"
            },
            {
              "internalType": "uint256",
              "name": "round",
              "type": "uint256"
            },
            {
              "internalType": "address",
              "name": "owner",
              "type": "address"
            },
            {
              "internalType": "bool",
              "name": "isWinner",
              "type": "bool"
            },
            {
              "internalType": "uint8",
              "name": "winnerGroup",
              "type": "uint8"
            },
            {
              "internalType": "uint256",
              "name": "prize",
              "type": "uint256"
            }
          ],
          "internalType": "struct PoolChainV6.Ticket",
          "name": "",
          "type": "tuple"
        }
      ],
      "stateMutability": "view",
      "type": "function"
    },
    {
      "inputs": [
        {
          "internalType": "address",
          "name": "user",
          "type": "address"
        }
      ],
      "name": "getUserPositions",
      "outputs": [
        {
          "internalType": "uint256[]",
          "name": "",
          "type": "uint256[]"
        }
      ],
      "stateMutability": "view",
      "type": "function"
    },
    {
      "inputs": [
        {
          "internalType": "address",
          "name": "user",
          "type": "address"
        }
      ],
      "name": "getUserTickets",
      "outputs": [
        {
          "internalType": "uint256[]",
          "name": "",
          "type": "uint256[]"
        }
      ],
      "stateMutability": "view",
      "type": "function"
    },
    {
      "inputs": [],
      "name": "lastTicketId",
      "outputs": [
        {
          "internalType": "uint256",
          "name": "",
          "type": "uint256"
        }
      ],
      "stateMutability": "view",
      "type": "function"
    },
    {
      "inputs": [],
      "name": "owner",
      "outputs": [
        {
          "internalType": "address",
          "name": "",
          "type": "address"
        }
      ],
      "stateMutability": "view",
      "type": "function"
    },
    {
      "inputs": [],
      "name": "pause",
      "outputs": [],
      "stateMutability": "nonpayable",
      "type": "function"
    },
    {
      "inputs": [],
      "name": "paused",
      "outputs": [
        {
          "internalType": "bool",
          "name": "",
          "type": "bool"
        }
      ],
      "stateMutability": "view",
      "type": "function"
    },
    {
      "inputs": [],
      "name": "performDraw",
      "outputs": [],
      "stateMutability": "nonpayable",
      "type": "function"
    },
    {
      "inputs": [],
      "name": "poolFilled",
      "outputs": [
        {
          "internalType": "bool",
          "name": "",
          "type": "bool"
        }
      ],
      "stateMutability": "view",
      "type": "function"
    },
    {
      "inputs": [
        {
          "internalType": "uint256",
          "name": "",
          "type": "uint256"
        },
        {
          "internalType": "uint256",
          "name": "",
          "type": "uint256"
        }
      ],
      "name": "positionToTicketId",
      "outputs": [
        {
          "internalType": "uint256",
          "name": "",
          "type": "uint256"
        }
      ],
      "stateMutability": "view",
      "type": "function"
    },
    {
      "inputs": [],
      "name": "renounceOwnership",
      "outputs": [],
      "stateMutability": "nonpayable",
      "type": "function"
    },
    {
      "inputs": [],
      "name": "resetRound",
      "outputs": [],
      "stateMutability": "nonpayable",
      "type": "function"
    },
    {
      "inputs": [
        {
          "internalType": "uint256",
          "name": "",
          "type": "uint256"
        },
        {
          "internalType": "uint256",
          "name": "",
          "type": "uint256"
        }
      ],
      "name": "roundGroupAWinners",
      "outputs": [
        {
          "internalType": "uint256",
          "name": "",
          "type": "uint256"
        }
      ],
      "stateMutability": "view",
      "type": "function"
    },
    {
      "inputs": [
        {
          "internalType": "uint256",
          "name": "",
          "type": "uint256"
        },
        {
          "internalType": "uint256",
          "name": "",
          "type": "uint256"
        }
      ],
      "name": "roundGroupBWinners",
      "outputs": [
        {
          "internalType": "uint256",
          "name": "",
          "type": "uint256"
        }
      ],
      "stateMutability": "view",
      "type": "function"
    },
    {
      "inputs": [
        {
          "internalType": "uint256",
          "name": "",
          "type": "uint256"
        },
        {
          "internalType": "uint256",
          "name": "",
          "type": "uint256"
        }
      ],
      "name": "roundGroupCWinners",
      "outputs": [
        {
          "internalType": "uint256",
          "name": "",
          "type": "uint256"
        }
      ],
      "stateMutability": "view",
      "type": "function"
    },
    {
      "inputs": [
        {
          "internalType": "uint256",
          "name": "",
          "type": "uint256"
        },
        {
          "internalType": "uint256",
          "name": "",
          "type": "uint256"
        }
      ],
      "name": "roundGroupDWinners",
      "outputs": [
        {
          "internalType": "uint256",
          "name": "",
          "type": "uint256"
        }
      ],
      "stateMutability": "view",
      "type": "function"
    },
    {
      "inputs": [
        {
          "internalType": "uint256",
          "name": "",
          "type": "uint256"
        },
        {
          "internalType": "uint256",
          "name": "",
          "type": "uint256"
        }
      ],
      "name": "ticketOwnerByRound",
      "outputs": [
        {
          "internalType": "address",
          "name": "",
          "type": "address"
        }
      ],
      "stateMutability": "view",
      "type": "function"
    },
    {
      "inputs": [
        {
          "internalType": "uint256",
          "name": "",
          "type": "uint256"
        }
      ],
      "name": "tickets",
      "outputs": [
        {
          "internalType": "uint256",
          "name": "id",
          "type": "uint256"
        },
        {
          "internalType": "uint256",
          "name": "position",
          "type": "uint256"
        },
        {
          "internalType": "uint256",
          "name": "round",
          "type": "uint256"
        },
        {
          "internalType": "address",
          "name": "owner",
          "type": "address"
        },
        {
          "internalType": "bool",
          "name": "isWinner",
          "type": "bool"
        },
        {
          "internalType": "uint8",
          "name": "winnerGroup",
          "type": "uint8"
        },
        {
          "internalType": "uint256",
          "name": "prize",
          "type": "uint256"
        }
      ],
      "stateMutability": "view",
      "type": "function"
    },
    {
      "inputs": [],
      "name": "ticketsSold",
      "outputs": [
        {
          "internalType": "uint256",
          "name": "",
          "type": "uint256"
        }
      ],
      "stateMutability": "view",
      "type": "function"
    },
    {
      "inputs": [
        {
          "internalType": "address",
          "name": "newOwner",
          "type": "address"
        }
      ],
      "name": "transferOwnership",
      "outputs": [],
      "stateMutability": "nonpayable",
      "type": "function"
    },
    {
      "inputs": [],
      "name": "unpause",
      "outputs": [],
      "stateMutability": "nonpayable",
      "type": "function"
    },
    {
      "inputs": [],
      "name": "usdtToken",
      "outputs": [
        {
          "internalType": "contract IERC20",
          "name": "",
          "type": "address"
        }
      ],
      "stateMutability": "view",
      "type": "function"
    },
    {
      "inputs": [],
      "name": "winnersSelected",
      "outputs": [
        {
          "internalType": "bool",
          "name": "",
          "type": "bool"
        }
      ],
      "stateMutability": "view",
      "type": "function"
    }
  ],
  "bytecode": "0x60a060405260016003553480156200001657600080fd5b50604051620023e2380380620023e2833981016040819052620000399162000131565b33806200006157604051631e4fbdf760e01b8152600060048201526024015b60405180910390fd5b6200006c81620000e1565b50600180556001600160a01b038116620000b85760405162461bcd60e51b815260206004820152600c60248201526b125b9d985b1a59081554d11560a21b604482015260640162000058565b6001600160a01b031660805260028054610100600160a81b031916336101000217905562000163565b600080546001600160a01b038381166001600160a01b0319831681178455604051919092169283917f8be0079c531659141344cd1fd0a4f28419497f9722a3daafe3b4186f6b6457e09190a35050565b6000602082840312156200014457600080fd5b81516001600160a01b03811681146200015c57600080fd5b9392505050565b608051612240620001a26000396000818161061301528181610d5f01528181610e270152818161118101528181611302015261167601526122406000f3fe608060405234801561001057600080fd5b506004361061027f5760003560e01c8063715018a61161015c5780638a19c8bc116100ce5780639e649db8116100875780639e649db8146105fb578063a98ad46c1461060e578063d0fbe7fe14610635578063f2fde38b14610648578063f3baf0701461065b578063f851a4401461066357600080fd5b80638a19c8bc146105ab5780638a5550a7146105b45780638bc53285146105c75780638da5cb5b146105d95780638f15024f146105ea578063947f4ea8146105f357600080fd5b80637e990772116101205780637e9907721461055c578063808511a1146105645780638456cb591461057157806384d452ff1461057957806385957c2314610581578063898850491461058b57600080fd5b8063715018a6146105295780637545638614610531578063766c3e6714610544578063771311aa1461054c5780637c4578881461055457600080fd5b806337a7d161116101f557806350862748116101b9578063508627481461040357806350b447121461040d5780635312ea8e146104ab5780635c975abb146104be5780636ced7ac5146104d557806370740ac91461052157600080fd5b806337a7d161146103ab5780633f4ba83a146103be578063452dac3a146103c85780634c894a9e146103d05780634cdb5d40146103fb57600080fd5b80632a6bc2dd116102475780632a6bc2dd146103525780632e0f2625146103655780632e4e9ea11461036d5780632e881471146103755780632f5061ce14610398578063366deaf4146103a257600080fd5b80630484a22f1461028457806306058afe146102ad5780630825eb51146102c55780631a95f15f146102d857806324c14160146102e0575b600080fd5b610297610292366004611dbb565b61067b565b6040516102a49190611e26565b60405180910390f35b6102b7622ca1c881565b6040519081526020016102a4565b6102b76102d3366004611e39565b6106e7565b6102b7610718565b6102f36102ee366004611e5b565b610732565b6040516102a491908151815260208083015190820152604080830151908201526060808301516001600160a01b03169082015260808083015115159082015260a08083015160ff169082015260c0918201519181019190915260e00190565b610297610360366004611dbb565b6107f9565b6102b7600681565b6102b7602881565b610388610383366004611e5b565b6109c9565b6040516102a49493929190611e74565b6102b7620ee09881565b6102b760055481565b6102b76103b9366004611e39565b610b4e565b6103c6610b6a565b005b6102b7600a81565b6102b76103de366004611e39565b600960209081526000928352604080842090915290825290205481565b6103c6610b7c565b6102b76259439081565b61046961041b366004611e5b565b600760205260009081526040902080546001820154600283015460038401546004909401549293919290916001600160a01b0381169160ff600160a01b8304811692600160a81b9004169087565b604080519788526020880196909652948601939093526001600160a01b0390911660608501521515608084015260ff1660a083015260c082015260e0016102a4565b6103c66104b9366004611e5b565b611177565b60025460ff165b60405190151581526020016102a4565b6105096104e3366004611e39565b60086020908152600092835260408084209091529082529020546001600160a01b031681565b6040516001600160a01b0390911681526020016102a4565b6103c6611272565b6103c66113ec565b6102b761053f366004611e39565b6113fe565b6102b7601e81565b6102b7600181565b6102b7601481565b6102b7600481565b6006546104c59060ff1681565b6103c661141a565b6103c661142a565b6102b76213d62081565b6102b7610599366004611dbb565b600b6020526000908152604090205481565b6102b760035481565b6102b76105c2366004611e39565b61153a565b6006546104c590610100900460ff1681565b6000546001600160a01b0316610509565b6102b760045481565b6102b7605f81565b6006546104c59062010000900460ff1681565b6105097f000000000000000000000000000000000000000000000000000000000000000081565b6103c6610643366004611ecc565b611556565b6103c6610656366004611dbb565b611a2f565b6102b7606481565b6002546105099061010090046001600160a01b031681565b6001600160a01b0381166000908152600a60209081526040918290208054835181840281018401909452808452606093928301828280156106db57602002820191906000526020600020905b8154815260200190600101908083116106c7575b50505050509050919050565b600f602052816000526040600020818154811061070357600080fd5b90600052602060002001600091509150505481565b6107246006600a61203d565b61072f906002612049565b81565b6107806040518060e0016040528060008152602001600081526020016000815260200160006001600160a01b03168152602001600015158152602001600060ff168152602001600081525090565b50600090815260076020908152604091829020825160e0810184528154815260018201549281019290925260028101549282019290925260038201546001600160a01b038116606083015260ff600160a01b8204811615156080840152600160a81b9091041660a082015260049091015460c082015290565b6001600160a01b0381166000908152600a6020908152604080832080548251818502810185019093528083526060949383018282801561085857602002820191906000526020600020905b815481526020019060010190808311610844575b505050505090506000805b82518110156108c4576003546007600085848151811061088557610885612060565b6020026020010151815260200190815260200160002060020154036108b257816108ae81612076565b9250505b806108bc81612076565b915050610863565b5060008167ffffffffffffffff8111156108e0576108e061208f565b604051908082528060200260200182016040528015610909578160200160208202803683370190505b5090506000805b84518110156109be576003546007600087848151811061093257610932612060565b6020026020010151815260200190815260200160002060020154036109ac576007600086838151811061096757610967612060565b602002602001015181526020019081526020016000206001015483838151811061099357610993612060565b6020908102919091010152816109a881612076565b9250505b806109b681612076565b915050610910565b509095945050505050565b6000818152600c60209081526040808320600d8352818420600e8452828520600f8552948390208254845181870281018701909552808552606096879687968796959492939091869190830182828015610a4257602002820191906000526020600020905b815481526020019060010190808311610a2e575b5050505050935082805480602002602001604051908101604052809291908181526020018280548015610a9457602002820191906000526020600020905b815481526020019060010190808311610a80575b5050505050925081805480602002602001604051908101604052809291908181526020018280548015610ae657602002820191906000526020600020905b815481526020019060010190808311610ad2575b5050505050915080805480602002602001604051908101604052809291908181526020018280548015610b3857602002820191906000526020600020905b815481526020019060010190808311610b24575b5050505050905093509350935093509193509193565b600c602052816000526040600020818154811061070357600080fd5b610b72611a6a565b610b7a611a97565b565b610b84611ae9565b610b8c611b13565b60065460ff16610bd35760405162461bcd60e51b815260206004820152600d60248201526c141bdbdb081b9bdd08199d5b1b609a1b60448201526064015b60405180910390fd5b600654610100900460ff1615610c1b5760405162461bcd60e51b815260206004820152600d60248201526c20b63932b0b23c90323930bbb760991b6044820152606401610bca565b60065462010000900460ff1615610c635760405162461bcd60e51b815260206004820152600c60248201526b447261772072756e6e696e6760a01b6044820152606401610bca565b606460045414610ca85760405162461bcd60e51b815260206004820152601060248201526f125b98dbdb5c1b195d19481c9bdd5b9960821b6044820152606401610bca565b6006805462ff0000191662010000178155600090610cc790600a61203d565b610cd2906002612049565b610cdd906064612049565b905060006064610cee600484612049565b610cf891906120bb565b905060006064610d09600185612049565b610d1391906120bb565b905060006064610d24605f86612049565b610d2e91906120bb565b60025460405163a9059cbb60e01b81526001600160a01b0361010090920482166004820152602481018690529192507f0000000000000000000000000000000000000000000000000000000000000000169063a9059cbb906044016020604051808303816000875af1158015610da8573d6000803e3d6000fd5b505050506040513d601f19601f82011682018060405250810190610dcc91906120cf565b610e0b5760405162461bcd60e51b815260206004820152601060248201526f10591b5a5b881999594819985a5b195960821b6044820152606401610bca565b60405163a9059cbb60e01b8152336004820152602481018390527f00000000000000000000000000000000000000000000000000000000000000006001600160a01b03169063a9059cbb906044016020604051808303816000875af1158015610e78573d6000803e3d6000fd5b505050506040513d601f19601f82011682018060405250810190610e9c91906120cf565b610ede5760405162461bcd60e51b8152602060048201526013602482015272115e1958dd5d1bdc881999594819985a5b1959606a1b6044820152606401610bca565b604080516064808252610ca0820190925260009160208201610c808036833701905050905060015b60648111610fa757600354600090815260096020908152604080832084845290915281205490819003610f6c5760405162461bcd60e51b815260206004820152600e60248201526d135a5cdcda5b99c81d1a58dad95d60921b6044820152606401610bca565b8083610f796001856120f1565b81518110610f8957610f89612060565b60209081029190910101525080610f9f81612076565b915050610f06565b506000610fb56001436120f1565b6003546040805192406020840152429083015260608201526080016040516020818303038152906040528051906020012060001c9050600060649050611019838383600a625943906001600c60006003548152602001908152602001600020611b37565b611024600a826120f1565b905061104e8383836014622ca1c86002600d60006003548152602001908152602001600020611b37565b6110596014826120f1565b9050611083838383601e6213d6206003600e60006003548152602001908152602001600020611b37565b61108e601e826120f1565b90506110b88383836028620ee0986004600f60006003548152602001908152602001600020611b37565b6006805462ffff0019166101001790556003546000818152600c60209081526040808320600d8352818420600e8452828520600f9094529382902091517f2425fdcf210c76fa5672b3c05557127f455425e6925945c394fd248a3b883aed946111279492939092918b90612139565b60405180910390a260035460405186815233907ffd1b82e0385130e577d818f130ba594724516dc6ba33392588bc08f2914bdffa9060200160405180910390a350505050505050610b7a60018055565b61117f611a6a565b7f00000000000000000000000000000000000000000000000000000000000000006001600160a01b031663a9059cbb6111c06000546001600160a01b031690565b6040516001600160e01b031960e084901b1681526001600160a01b039091166004820152602481018490526044016020604051808303816000875af115801561120d573d6000803e3d6000fd5b505050506040513d601f19601f8201168201806040525081019061123191906120cf565b61126f5760405162461bcd60e51b815260206004820152600f60248201526e15da5d1a191c985dc819985a5b1959608a1b6044820152606401610bca565b50565b61127a611ae9565b336000908152600b6020526040902054806112ca5760405162461bcd60e51b815260206004820152601060248201526f4e6f7468696e6720746f20636c61696d60801b6044820152606401610bca565b336000818152600b6020526040808220919091555163a9059cbb60e01b81526004810191909152602481018290526001600160a01b037f0000000000000000000000000000000000000000000000000000000000000000169063a9059cbb906044016020604051808303816000875af115801561134b573d6000803e3d6000fd5b505050506040513d601f19601f8201168201806040525081019061136f91906120cf565b6113ad5760405162461bcd60e51b815260206004820152600f60248201526e151c985b9cd9995c8819985a5b1959608a1b6044820152606401610bca565b60405181815233907f95681e512bc0fe659e195e06c283eada494316f3d801213e48e7101af92bf7709060200160405180910390a250610b7a60018055565b6113f4611a6a565b610b7a6000611c4e565b600d602052816000526040600020818154811061070357600080fd5b611422611a6a565b610b7a611c9e565b611432611ae9565b61143a611b13565b60065460ff1680156114535750600654610100900460ff165b6114945760405162461bcd60e51b8152602060048201526012602482015271149bdd5b99081b9bdd08199a5b9a5cda195960721b6044820152606401610bca565b60065462010000900460ff16156114dc5760405162461bcd60e51b815260206004820152600c60248201526b447261772072756e6e696e6760a01b6044820152606401610bca565b6003805490819060006114ee83612076565b9091555050600060048190556006805461ffff19169055604051829133917f0ba963f56e5f120b8ededa1a7e97e22e3cab2e084a23a54f050ada876416601e9190a350610b7a60018055565b600e602052816000526040600020818154811061070357600080fd5b61155e611ae9565b611566611b13565b60065460ff16156115a55760405162461bcd60e51b8152602060048201526009602482015268141bdbdb08199d5b1b60ba1b6044820152606401610bca565b806115e15760405162461bcd60e51b815260206004820152600c60248201526b4e6f20706f736974696f6e7360a01b6044820152606401610bca565b6004546064906115f2908390612199565b111561162e5760405162461bcd60e51b815260206004820152600b60248201526a08af0c6cacac8e640dac2f60ab1b6044820152606401610bca565b600061163c6006600a61203d565b611647906002612049565b6116519083612049565b6040516323b872dd60e01b8152336004820152306024820152604481018290529091507f00000000000000000000000000000000000000000000000000000000000000006001600160a01b0316906323b872dd906064016020604051808303816000875af11580156116c7573d6000803e3d6000fd5b505050506040513d601f19601f820116820180604052508101906116eb91906120cf565b6117295760405162461bcd60e51b815260206004820152600f60248201526e151c985b9cd9995c8819985a5b1959608a1b6044820152606401610bca565b60008267ffffffffffffffff8111156117445761174461208f565b60405190808252806020026020018201604052801561176d578160200160208202803683370190505b50905060005b838110156119a757600085858381811061178f5761178f612060565b905060200201359050600181101580156117aa575060648111155b6117e95760405162461bcd60e51b815260206004820152601060248201526f24b73b30b634b2103837b9b4ba34b7b760811b6044820152606401610bca565b60035460009081526008602090815260408083208484529091529020546001600160a01b03161561184d5760405162461bcd60e51b815260206004820152600e60248201526d2837b9b4ba34b7b7103a30b5b2b760911b6044820152606401610bca565b600060056000815461185e90612076565b91829055506040805160e081018252828152602080820186815260038054848601908152336060860181815260006080880181815260a0890182815260c08a018381528c845260078a528b84209a518b55975160018b810191909155955160028b0155925189870180549251945160ff16600160a81b0260ff60a81b19951515600160a01b026001600160a81b03199094166001600160a01b03939093169290921792909217939093169290921790915593516004909601959095558154835260088452858320898452845285832080546001600160a01b0319168617905590548252600983528482208883528352848220869055928152600a8252928320805492830181558352909120018190558451909150819085908590811061198657611986612060565b6020026020010181815250505050808061199f90612076565b915050611773565b5083839050600460008282546119bd9190612199565b9091555050600454606319016119db576006805460ff191660011790555b60035460405133907f100364410092c5359f925dff106f958fb23d5c4dca75b2c28ed3d919e70299b990611a189085908990899081908a906121ac565b60405180910390a35050611a2b60018055565b5050565b611a37611a6a565b6001600160a01b038116611a6157604051631e4fbdf760e01b815260006004820152602401610bca565b61126f81611c4e565b6000546001600160a01b03163314610b7a5760405163118cdaa760e01b8152336004820152602401610bca565b611a9f611cdb565b6002805460ff191690557f5db9ee0a495bf2e6ff9c91a7834c1ba4fdd244a5e8aa4e537bd38aeae4b073aa335b6040516001600160a01b03909116815260200160405180910390a1565b600260015403611b0c57604051633ee5aeb560e01b815260040160405180910390fd5b6002600155565b60025460ff1615610b7a5760405163d93c066560e01b815260040160405180910390fd5b60005b84811015611c4457600086888584604051602001611b789392919092835260f89190911b6001600160f81b0319166020830152602182015260410190565b6040516020818303038152906040528051906020012060001c611b9b9190612208565b90506000898281518110611bb157611bb1612060565b60209081029190910181015185546001810187556000878152929092209091018190559050611be1818688611cfe565b89611bed60018a6120f1565b81518110611bfd57611bfd612060565b60200260200101518a8381518110611c1757611c17612060565b602090810291909101015287611c2c8161221c565b98505050508080611c3c90612076565b915050611b3a565b5050505050505050565b600080546001600160a01b038381166001600160a01b0319831681178455604051919092169283917f8be0079c531659141344cd1fd0a4f28419497f9722a3daafe3b4186f6b6457e09190a35050565b611ca6611b13565b6002805460ff191660011790557f62e78cea01bee320cd4e420270b5ea74000d11b0c9f74754ebdbfc544b05a258611acc3390565b60025460ff16610b7a57604051638dfc202b60e01b815260040160405180910390fd5b600083815260076020908152604080832060038101805460ff8816600160a81b0261ffff60a01b1990911617600160a01b1790819055600482018690556001600160a01b03168452600b9092528220805491928492611d5e908490612199565b909155505060038181015490546040805160ff87168152602081018690526001600160a01b039093169287917f2100bc826ba06fe84a3294b79967c1d570ae82c129834e0cfe588c272e96d8a6910160405180910390a450505050565b600060208284031215611dcd57600080fd5b81356001600160a01b0381168114611de457600080fd5b9392505050565b600081518084526020808501945080840160005b83811015611e1b57815187529582019590820190600101611dff565b509495945050505050565b602081526000611de46020830184611deb565b60008060408385031215611e4c57600080fd5b50508035926020909101359150565b600060208284031215611e6d57600080fd5b5035919050565b608081526000611e876080830187611deb565b8281036020840152611e998187611deb565b90508281036040840152611ead8186611deb565b90508281036060840152611ec18185611deb565b979650505050505050565b60008060208385031215611edf57600080fd5b823567ffffffffffffffff80821115611ef757600080fd5b818501915085601f830112611f0b57600080fd5b813581811115611f1a57600080fd5b8660208260051b8501011115611f2f57600080fd5b60209290920196919550909350505050565b634e487b7160e01b600052601160045260246000fd5b600181815b80851115611f92578160001904821115611f7857611f78611f41565b80851615611f8557918102915b93841c9390800290611f5c565b509250929050565b600082611fa957506001612037565b81611fb657506000612037565b8160018114611fcc5760028114611fd657611ff2565b6001915050612037565b60ff841115611fe757611fe7611f41565b50506001821b612037565b5060208310610133831016604e8410600b8410161715612015575081810a612037565b61201f8383611f57565b806000190482111561203357612033611f41565b0290505b92915050565b6000611de48383611f9a565b808202811582820484141761203757612037611f41565b634e487b7160e01b600052603260045260246000fd5b60006001820161208857612088611f41565b5060010190565b634e487b7160e01b600052604160045260246000fd5b634e487b7160e01b600052601260045260246000fd5b6000826120ca576120ca6120a5565b500490565b6000602082840312156120e157600080fd5b81518015158114611de457600080fd5b8181038181111561203757612037611f41565b6000815480845260208085019450836000528060002060005b83811015611e1b5781548752958201956001918201910161211d565b60a08152600061214c60a0830188612104565b828103602084015261215e8188612104565b905082810360408401526121728187612104565b905082810360608401526121868186612104565b9150508260808301529695505050505050565b8082018082111561203757612037611f41565b6080815260006121bf6080830188611deb565b82810360208401528581526001600160fb1b038611156121de57600080fd5b8560051b808860208401376040840195909552606090920192909252909101602001949350505050565b600082612217576122176120a5565b500690565b60008161222b5761222b611f41565b50600019019056fea164736f6c6343000814000a",
  "linkReferences": {},
  "deployedLinkReferences": {}
}