{
  "_format": "hh-sol-artifact-1",
  "contractName": "KeeperContract",
  "sourceName": "contracts/KeeperContract.sol",
  "abi": [
    {
      "inputs": [
        {
          "internalType": "address",
          "name": "_mainContract",
          "type": "address"
        }
      ],
      "stateMutability": "nonpayable",
      "type": "constructor"
    },
    {
      "anonymous": false,
      "inputs": [
        {
          "indexed": false,
          "internalType": "uint256",
          "name": "count",
          "type": "uint256"
        },
        {
          "indexed": true,
          "internalType": "address",
          "name": "executor",
          "type": "address"
        },
        {
          "indexed": false,
          "internalType": "uint256",
          "name": "timestamp",
          "type": "uint256"
        }
      ],
      "name": "BatchExecuted",
      "type": "event"
    },
    {
      "anonymous": false,
      "inputs": [
        {
          "indexed": true,
          "internalType": "address",
          "name": "oldContract",
          "type": "address"
        },
        {
          "indexed": true,
          "internalType": "address",
          "name": "newContract",
          "type": "address"
        }
      ],
      "name": "MainContractUpdated",
      "type": "event"
    },
    {
      "anonymous": false,
      "inputs": [
        {
          "indexed": true,
          "internalType": "uint256",
          "name": "positionId",
          "type": "uint256"
        },
        {
          "indexed": true,
          "internalType": "address",
          "name": "executor",
          "type": "address"
        }
      ],
      "name": "SingleExecuted",
      "type": "event"
    },
    {
      "inputs": [
        {
          "internalType": "uint256[]",
          "name": "positionIds",
          "type": "uint256[]"
        }
      ],
      "name": "batchExecuteAutoExits",
      "outputs": [],
      "stateMutability": "nonpayable",
      "type": "function"
    },
    {
      "inputs": [
        {
          "internalType": "uint256",
          "name": "positionId",
          "type": "uint256"
        }
      ],
      "name": "executeSingleAutoExit",
      "outputs": [],
      "stateMutability": "nonpayable",
      "type": "function"
    },
    {
      "inputs": [],
      "name": "getPositionsNeedingAutoExit",
      "outputs": [
        {
          "internalType": "uint256[]",
          "name": "",
          "type": "uint256[]"
        }
      ],
      "stateMutability": "view",
      "type": "function"
    },
    {
      "inputs": [],
      "name": "mainContract",
      "outputs": [
        {
          "internalType": "contract ISanDigital4Funds",
          "name": "",
          "type": "address"
        }
      ],
      "stateMutability": "view",
      "type": "function"
    },
    {
      "inputs": [],
      "name": "owner",
      "outputs": [
        {
          "internalType": "address",
          "name": "",
          "type": "address"
        }
      ],
      "stateMutability": "view",
      "type": "function"
    },
    {
      "inputs": [
        {
          "internalType": "address",
          "name": "newContract",
          "type": "address"
        }
      ],
      "name": "setMainContract",
      "outputs": [],
      "stateMutability": "nonpayable",
      "type": "function"
    },
    {
      "inputs": [
        {
          "internalType": "address",
          "name": "newOwner",
          "type": "address"
        }
      ],
      "name": "transferOwnership",
      "outputs": [],
      "stateMutability": "nonpayable",
      "type": "function"
    },
    {
      "inputs": [
        {
          "internalType": "uint256",
          "name": "amount",
          "type": "uint256"
        }
      ],
      "name": "withdrawBNB",
      "outputs": [],
      "stateMutability": "nonpayable",
      "type": "function"
    },
    {
      "stateMutability": "payable",
      "type": "receive"
    }
  ],
  "bytecode": "0x608060405234801561001057600080fd5b5060405161094c38038061094c83398101604081905261002f916100b7565b6001600160a01b0381166100895760405162461bcd60e51b815260206004820152601560248201527f496e76616c6964206d61696e20636f6e74726163740000000000000000000000604482015260640160405180910390fd5b600080546001600160a01b039092166001600160a01b031992831617905560018054909116331790556100e7565b6000602082840312156100c957600080fd5b81516001600160a01b03811681146100e057600080fd5b9392505050565b610856806100f66000396000f3fe60806040526004361061007f5760003560e01c80638da5cb5b1161004e5780638da5cb5b1461010d578063be1c90741461014a578063d270e7ab1461016c578063f2fde38b1461018c57600080fd5b80630408afe81461008b578063127f4b2e146100ad5780631fb48175146100cd5780633ded33bc146100ed57600080fd5b3661008657005b600080fd5b34801561009757600080fd5b506100ab6100a63660046105e9565b6101ac565b005b3480156100b957600080fd5b506100ab6100c836600461065e565b6102d7565b3480156100d957600080fd5b506100ab6100e836600461065e565b61038f565b3480156100f957600080fd5b506100ab610108366004610677565b61041d565b34801561011957600080fd5b5060015461012d906001600160a01b031681565b6040516001600160a01b0390911681526020015b60405180910390f35b34801561015657600080fd5b5061015f6104df565b60405161014191906106a7565b34801561017857600080fd5b5060005461012d906001600160a01b031681565b34801561019857600080fd5b506100ab6101a7366004610677565b610555565b6000805b82811015610297576000546001600160a01b0316635647ac3e8585848181106101db576101db6106eb565b905060200201356040518263ffffffff1660e01b815260040161020091815260200190565b600060405180830381600087803b15801561021a57600080fd5b505af192505050801561022b575060015b15610285578161023a81610701565b9250339050848483818110610251576102516106eb565b905060200201357f2614e131f2b8100f28dd6d6a4610f4ad25b3dca9b76d221ef4f8430a29538b6e60405160405180910390a35b8061028f81610701565b9150506101b0565b506040805182815242602082015233917f42ffec0f30f299fdbcab604c6fc5613a39f522e303ef35e4ea761ba15caf516c910160405180910390a2505050565b6001546001600160a01b0316331461030a5760405162461bcd60e51b815260040161030190610728565b60405180910390fd5b804710156103515760405162461bcd60e51b8152602060048201526014602482015273496e73756666696369656e742062616c616e636560601b6044820152606401610301565b6001546040516001600160a01b039091169082156108fc029083906000818181858888f1935050505015801561038b573d6000803e3d6000fd5b5050565b600054604051632b23d61f60e11b8152600481018390526001600160a01b0390911690635647ac3e90602401600060405180830381600087803b1580156103d557600080fd5b505af11580156103e9573d6000803e3d6000fd5b50506040513392508391507f2614e131f2b8100f28dd6d6a4610f4ad25b3dca9b76d221ef4f8430a29538b6e90600090a350565b6001546001600160a01b031633146104475760405162461bcd60e51b815260040161030190610728565b6001600160a01b03811661048f5760405162461bcd60e51b815260206004820152600f60248201526e496e76616c6964206164647265737360881b6044820152606401610301565b600080546001600160a01b038381166001600160a01b0319831681178455604051919092169283917f3da164c7e18bde8b839b6f26436789b4603990fa33ad3dab28083ec095278a1e9190a35050565b6000805460408051632f87241d60e21b815290516060936001600160a01b039093169263be1c907492600480820193918290030181865afa158015610528573d6000803e3d6000fd5b505050506040513d6000823e601f3d908101601f191682016040526105509190810190610762565b905090565b6001546001600160a01b0316331461057f5760405162461bcd60e51b815260040161030190610728565b6001600160a01b0381166105c75760405162461bcd60e51b815260206004820152600f60248201526e496e76616c6964206164647265737360881b6044820152606401610301565b600180546001600160a01b0319166001600160a01b0392909216919091179055565b600080602083850312156105fc57600080fd5b823567ffffffffffffffff8082111561061457600080fd5b818501915085601f83011261062857600080fd5b81358181111561063757600080fd5b8660208260051b850101111561064c57600080fd5b60209290920196919550909350505050565b60006020828403121561067057600080fd5b5035919050565b60006020828403121561068957600080fd5b81356001600160a01b03811681146106a057600080fd5b9392505050565b6020808252825182820181905260009190848201906040850190845b818110156106df578351835292840192918401916001016106c3565b50909695505050505050565b634e487b7160e01b600052603260045260246000fd5b60006001820161072157634e487b7160e01b600052601160045260246000fd5b5060010190565b6020808252600a908201526927b7363c9037bbb732b960b11b604082015260600190565b634e487b7160e01b600052604160045260246000fd5b6000602080838503121561077557600080fd5b825167ffffffffffffffff8082111561078d57600080fd5b818501915085601f8301126107a157600080fd5b8151818111156107b3576107b361074c565b8060051b604051601f19603f830116810181811085821117156107d8576107d861074c565b6040529182528482019250838101850191888311156107f657600080fd5b938501935b82851015610814578451845293850193928501926107fb565b9897505050505050505056fea2646970667358221220c6f0c6a9fc015173d2179eed935f5cd8c095dda257902b60cbb96bdfaf6de17c64736f6c63430008140033",
  "linkReferences": {},
  "deployedLinkReferences": {}
}