{
  "_format": "hh-sol-artifact-1",
  "contractName": "MockUSDT",
  "sourceName": "contracts/MockUSDT.sol",
  "abi": [
    {
      "inputs": [],
      "stateMutability": "nonpayable",
      "type": "constructor"
    },
    {
      "inputs": [
        {
          "internalType": "address",
          "name": "spender",
          "type": "address"
        },
        {
          "internalType": "uint256",
          "name": "allowance",
          "type": "uint256"
        },
        {
          "internalType": "uint256",
          "name": "needed",
          "type": "uint256"
        }
      ],
      "name": "ERC20InsufficientAllowance",
      "type": "error"
    },
    {
      "inputs": [
        {
          "internalType": "address",
          "name": "sender",
          "type": "address"
        },
        {
          "internalType": "uint256",
          "name": "balance",
          "type": "uint256"
        },
        {
          "internalType": "uint256",
          "name": "needed",
          "type": "uint256"
        }
      ],
      "name": "ERC20InsufficientBalance",
      "type": "error"
    },
    {
      "inputs": [
        {
          "internalType": "address",
          "name": "approver",
          "type": "address"
        }
      ],
      "name": "ERC20InvalidApprover",
      "type": "error"
    },
    {
      "inputs": [
        {
          "internalType": "address",
          "name": "receiver",
          "type": "address"
        }
      ],
      "name": "ERC20InvalidReceiver",
      "type": "error"
    },
    {
      "inputs": [
        {
          "internalType": "address",
          "name": "sender",
          "type": "address"
        }
      ],
      "name": "ERC20InvalidSender",
      "type": "error"
    },
    {
      "inputs": [
        {
          "internalType": "address",
          "name": "spender",
          "type": "address"
        }
      ],
      "name": "ERC20InvalidSpender",
      "type": "error"
    },
    {
      "inputs": [
        {
          "internalType": "address",
          "name": "owner",
          "type": "address"
        }
      ],
      "name": "OwnableInvalidOwner",
      "type": "error"
    },
    {
      "inputs": [
        {
          "internalType": "address",
          "name": "account",
          "type": "address"
        }
      ],
      "name": "OwnableUnauthorizedAccount",
      "type": "error"
    },
    {
      "anonymous": false,
      "inputs": [
        {
          "indexed": true,
          "internalType": "address",
          "name": "owner",
          "type": "address"
        },
        {
          "indexed": true,
          "internalType": "address",
          "name": "spender",
          "type": "address"
        },
        {
          "indexed": false,
          "internalType": "uint256",
          "name": "value",
          "type": "uint256"
        }
      ],
      "name": "Approval",
      "type": "event"
    },
    {
      "anonymous": false,
      "inputs": [
        {
          "indexed": true,
          "internalType": "address",
          "name": "previousOwner",
          "type": "address"
        },
        {
          "indexed": true,
          "internalType": "address",
          "name": "newOwner",
          "type": "address"
        }
      ],
      "name": "OwnershipTransferred",
      "type": "event"
    },
    {
      "anonymous": false,
      "inputs": [
        {
          "indexed": true,
          "internalType": "address",
          "name": "from",
          "type": "address"
        },
        {
          "indexed": true,
          "internalType": "address",
          "name": "to",
          "type": "address"
        },
        {
          "indexed": false,
          "internalType": "uint256",
          "name": "value",
          "type": "uint256"
        }
      ],
      "name": "Transfer",
      "type": "event"
    },
    {
      "inputs": [
        {
          "internalType": "address",
          "name": "owner",
          "type": "address"
        },
        {
          "internalType": "address",
          "name": "spender",
          "type": "address"
        }
      ],
      "name": "allowance",
      "outputs": [
        {
          "internalType": "uint256",
          "name": "",
          "type": "uint256"
        }
      ],
      "stateMutability": "view",
      "type": "function"
    },
    {
      "inputs": [
        {
          "internalType": "address",
          "name": "spender",
          "type": "address"
        },
        {
          "internalType": "uint256",
          "name": "value",
          "type": "uint256"
        }
      ],
      "name": "approve",
      "outputs": [
        {
          "internalType": "bool",
          "name": "",
          "type": "bool"
        }
      ],
      "stateMutability": "nonpayable",
      "type": "function"
    },
    {
      "inputs": [
        {
          "internalType": "address",
          "name": "account",
          "type": "address"
        }
      ],
      "name": "balanceOf",
      "outputs": [
        {
          "internalType": "uint256",
          "name": "",
          "type": "uint256"
        }
      ],
      "stateMutability": "view",
      "type": "function"
    },
    {
      "inputs": [],
      "name": "decimals",
      "outputs": [
        {
          "internalType": "uint8",
          "name": "",
          "type": "uint8"
        }
      ],
      "stateMutability": "view",
      "type": "function"
    },
    {
      "inputs": [],
      "name": "faucet",
      "outputs": [],
      "stateMutability": "nonpayable",
      "type": "function"
    },
    {
      "inputs": [
        {
          "internalType": "address",
          "name": "to",
          "type": "address"
        },
        {
          "internalType": "uint256",
          "name": "amount",
          "type": "uint256"
        }
      ],
      "name": "mint",
      "outputs": [],
      "stateMutability": "nonpayable",
      "type": "function"
    },
    {
      "inputs": [
        {
          "internalType": "uint256",
          "name": "amount",
          "type": "uint256"
        }
      ],
      "name": "mintToSelf",
      "outputs": [],
      "stateMutability": "nonpayable",
      "type": "function"
    },
    {
      "inputs": [],
      "name": "name",
      "outputs": [
        {
          "internalType": "string",
          "name": "",
          "type": "string"
        }
      ],
      "stateMutability": "view",
      "type": "function"
    },
    {
      "inputs": [],
      "name": "owner",
      "outputs": [
        {
          "internalType": "address",
          "name": "",
          "type": "address"
        }
      ],
      "stateMutability": "view",
      "type": "function"
    },
    {
      "inputs": [],
      "name": "renounceOwnership",
      "outputs": [],
      "stateMutability": "nonpayable",
      "type": "function"
    },
    {
      "inputs": [],
      "name": "symbol",
      "outputs": [
        {
          "internalType": "string",
          "name": "",
          "type": "string"
        }
      ],
      "stateMutability": "view",
      "type": "function"
    },
    {
      "inputs": [],
      "name": "totalSupply",
      "outputs": [
        {
          "internalType": "uint256",
          "name": "",
          "type": "uint256"
        }
      ],
      "stateMutability": "view",
      "type": "function"
    },
    {
      "inputs": [
        {
          "internalType": "address",
          "name": "to",
          "type": "address"
        },
        {
          "internalType": "uint256",
          "name": "value",
          "type": "uint256"
        }
      ],
      "name": "transfer",
      "outputs": [
        {
          "internalType": "bool",
          "name": "",
          "type": "bool"
        }
      ],
      "stateMutability": "nonpayable",
      "type": "function"
    },
    {
      "inputs": [
        {
          "internalType": "address",
          "name": "from",
          "type": "address"
        },
        {
          "internalType": "address",
          "name": "to",
          "type": "address"
        },
        {
          "internalType": "uint256",
          "name": "value",
          "type": "uint256"
        }
      ],
      "name": "transferFrom",
      "outputs": [
        {
          "internalType": "bool",
          "name": "",
          "type": "bool"
        }
      ],
      "stateMutability": "nonpayable",
      "type": "function"
    },
    {
      "inputs": [
        {
          "internalType": "address",
          "name": "newOwner",
          "type": "address"
        }
      ],
      "name": "transferOwnership",
      "outputs": [],
      "stateMutability": "nonpayable",
      "type": "function"
    }
  ],
  "bytecode": "0x60806040526005805460ff60a01b1916600360a11b1790553480156200002457600080fd5b503360405180604001604052806009815260200168135bd8dac81554d11560ba1b815250604051806040016040528060058152602001641b5554d11560da1b815250816003908162000077919062000344565b50600462000086828262000344565b5050506001600160a01b038116620000b957604051631e4fbdf760e01b8152600060048201526024015b60405180910390fd5b620000c481620000dc565b50620000d63364e8d4a510006200012e565b62000438565b600580546001600160a01b038381166001600160a01b0319831681179093556040519116919082907f8be0079c531659141344cd1fd0a4f28419497f9722a3daafe3b4186f6b6457e090600090a35050565b6001600160a01b0382166200015a5760405163ec442f0560e01b815260006004820152602401620000b0565b62000168600083836200016c565b5050565b6001600160a01b0383166200019b5780600260008282546200018f919062000410565b909155506200020f9050565b6001600160a01b03831660009081526020819052604090205481811015620001f05760405163391434e360e21b81526001600160a01b03851660048201526024810182905260448101839052606401620000b0565b6001600160a01b03841660009081526020819052604090209082900390555b6001600160a01b0382166200022d576002805482900390556200024c565b6001600160a01b03821660009081526020819052604090208054820190555b816001600160a01b0316836001600160a01b03167fddf252ad1be2c89b69c2b068fc378daa952ba7f163c4a11628f55a4df523b3ef836040516200029291815260200190565b60405180910390a3505050565b634e487b7160e01b600052604160045260246000fd5b600181811c90821680620002ca57607f821691505b602082108103620002eb57634e487b7160e01b600052602260045260246000fd5b50919050565b601f8211156200033f57600081815260208120601f850160051c810160208610156200031a5750805b601f850160051c820191505b818110156200033b5782815560010162000326565b5050505b505050565b81516001600160401b038111156200036057620003606200029f565b6200037881620003718454620002b5565b84620002f1565b602080601f831160018114620003b05760008415620003975750858301515b600019600386901b1c1916600185901b1785556200033b565b600085815260208120601f198616915b82811015620003e157888601518255948401946001909101908401620003c0565b5085821015620004005787850151600019600388901b60f8161c191681555b5050505050600190811b01905550565b808201808211156200043257634e487b7160e01b600052601160045260246000fd5b92915050565b61093f80620004486000396000f3fe608060405234801561001057600080fd5b50600436106100f55760003560e01c8063715018a611610097578063bb6d5e3b11610066578063bb6d5e3b146101fb578063dd62ed3e1461020e578063de5f72fd14610247578063f2fde38b1461024f57600080fd5b8063715018a6146101bd5780638da5cb5b146101c557806395d89b41146101e0578063a9059cbb146101e857600080fd5b806323b872dd116100d357806323b872dd1461014d578063313ce5671461016057806340c10f191461017f57806370a082311461019457600080fd5b806306fdde03146100fa578063095ea7b31461011857806318160ddd1461013b575b600080fd5b610102610262565b60405161010f9190610770565b60405180910390f35b61012b6101263660046107da565b6102f4565b604051901515815260200161010f565b6002545b60405190815260200161010f565b61012b61015b366004610804565b61030e565b600554600160a01b900460ff1660405160ff909116815260200161010f565b61019261018d3660046107da565b610332565b005b61013f6101a2366004610840565b6001600160a01b031660009081526020819052604090205490565b610192610340565b6005546040516001600160a01b03909116815260200161010f565b610102610354565b61012b6101f63660046107da565b610363565b610192610209366004610862565b610371565b61013f61021c36600461087b565b6001600160a01b03918216600090815260016020908152604080832093909416825291909152205490565b61019261037e565b61019261025d366004610840565b61038c565b606060038054610271906108ae565b80601f016020809104026020016040519081016040528092919081815260200182805461029d906108ae565b80156102ea5780601f106102bf576101008083540402835291602001916102ea565b820191906000526020600020905b8154815290600101906020018083116102cd57829003601f168201915b5050505050905090565b6000336103028185856103cc565b60019150505b92915050565b60003361031c8582856103de565b61032785858561045d565b506001949350505050565b61033c82826104bc565b5050565b6103486104f2565b610352600061051f565b565b606060048054610271906108ae565b60003361030281858561045d565b61037b33826104bc565b50565b61035233633b9aca006104bc565b6103946104f2565b6001600160a01b0381166103c357604051631e4fbdf760e01b8152600060048201526024015b60405180910390fd5b61037b8161051f565b6103d98383836001610571565b505050565b6001600160a01b03838116600090815260016020908152604080832093861683529290522054600019811015610457578181101561044857604051637dc7a0d960e11b81526001600160a01b038416600482015260248101829052604481018390526064016103ba565b61045784848484036000610571565b50505050565b6001600160a01b03831661048757604051634b637e8f60e11b8152600060048201526024016103ba565b6001600160a01b0382166104b15760405163ec442f0560e01b8152600060048201526024016103ba565b6103d9838383610646565b6001600160a01b0382166104e65760405163ec442f0560e01b8152600060048201526024016103ba565b61033c60008383610646565b6005546001600160a01b031633146103525760405163118cdaa760e01b81523360048201526024016103ba565b600580546001600160a01b038381166001600160a01b0319831681179093556040519116919082907f8be0079c531659141344cd1fd0a4f28419497f9722a3daafe3b4186f6b6457e090600090a35050565b6001600160a01b03841661059b5760405163e602df0560e01b8152600060048201526024016103ba565b6001600160a01b0383166105c557604051634a1406b160e11b8152600060048201526024016103ba565b6001600160a01b038085166000908152600160209081526040808320938716835292905220829055801561045757826001600160a01b0316846001600160a01b03167f8c5be1e5ebec7d5bd14f71427d1e84f3dd0314c0f7b2291e5b200ac8c7c3b9258460405161063891815260200190565b60405180910390a350505050565b6001600160a01b03831661067157806002600082825461066691906108e8565b909155506106e39050565b6001600160a01b038316600090815260208190526040902054818110156106c45760405163391434e360e21b81526001600160a01b038516600482015260248101829052604481018390526064016103ba565b6001600160a01b03841660009081526020819052604090209082900390555b6001600160a01b0382166106ff5760028054829003905561071e565b6001600160a01b03821660009081526020819052604090208054820190555b816001600160a01b0316836001600160a01b03167fddf252ad1be2c89b69c2b068fc378daa952ba7f163c4a11628f55a4df523b3ef8360405161076391815260200190565b60405180910390a3505050565b600060208083528351808285015260005b8181101561079d57858101830151858201604001528201610781565b506000604082860101526040601f19601f8301168501019250505092915050565b80356001600160a01b03811681146107d557600080fd5b919050565b600080604083850312156107ed57600080fd5b6107f6836107be565b946020939093013593505050565b60008060006060848603121561081957600080fd5b610822846107be565b9250610830602085016107be565b9150604084013590509250925092565b60006020828403121561085257600080fd5b61085b826107be565b9392505050565b60006020828403121561087457600080fd5b5035919050565b6000806040838503121561088e57600080fd5b610897836107be565b91506108a5602084016107be565b90509250929050565b600181811c908216806108c257607f821691505b6020821081036108e257634e487b7160e01b600052602260045260246000fd5b50919050565b8082018082111561030857634e487b7160e01b600052601160045260246000fdfea2646970667358221220b4bb9637c700da2e86cbd76ab8e01972f3104a80e78451f40fd9dd6e2a43150664736f6c63430008140033",
  "linkReferences": {},
  "deployedLinkReferences": {}
}