{
  "_format": "hh-sol-artifact-1",
  "contractName": "PoolChain_Micro_MultiTicket",
  "sourceName": "contracts/PoolChain_Micro_MultiTicket.sol",
  "abi": [
    {
      "inputs": [
        {
          "internalType": "address",
          "name": "_usdt",
          "type": "address"
        },
        {
          "internalType": "address",
          "name": "_platformWallet",
          "type": "address"
        }
      ],
      "stateMutability": "nonpayable",
      "type": "constructor"
    },
    {
      "inputs": [],
      "name": "EnforcedPause",
      "type": "error"
    },
    {
      "inputs": [],
      "name": "ExpectedPause",
      "type": "error"
    },
    {
      "inputs": [
        {
          "internalType": "address",
          "name": "owner",
          "type": "address"
        }
      ],
      "name": "OwnableInvalidOwner",
      "type": "error"
    },
    {
      "inputs": [
        {
          "internalType": "address",
          "name": "account",
          "type": "address"
        }
      ],
      "name": "OwnableUnauthorizedAccount",
      "type": "error"
    },
    {
      "inputs": [],
      "name": "ReentrancyGuardReentrantCall",
      "type": "error"
    },
    {
      "inputs": [
        {
          "internalType": "address",
          "name": "token",
          "type": "address"
        }
      ],
      "name": "SafeERC20FailedOperation",
      "type": "error"
    },
    {
      "anonymous": false,
      "inputs": [
        {
          "indexed": true,
          "internalType": "address",
          "name": "buyer",
          "type": "address"
        },
        {
          "indexed": false,
          "internalType": "uint256[]",
          "name": "ticketIds",
          "type": "uint256[]"
        },
        {
          "indexed": false,
          "internalType": "uint256",
          "name": "quantity",
          "type": "uint256"
        },
        {
          "indexed": false,
          "internalType": "uint256",
          "name": "totalCost",
          "type": "uint256"
        },
        {
          "indexed": false,
          "internalType": "uint256",
          "name": "round",
          "type": "uint256"
        }
      ],
      "name": "BulkTicketsPurchased",
      "type": "event"
    },
    {
      "anonymous": false,
      "inputs": [
        {
          "indexed": true,
          "internalType": "uint256",
          "name": "round",
          "type": "uint256"
        },
        {
          "indexed": false,
          "internalType": "uint256",
          "name": "timestamp",
          "type": "uint256"
        }
      ],
      "name": "DrawExecuted",
      "type": "event"
    },
    {
      "anonymous": false,
      "inputs": [
        {
          "indexed": true,
          "internalType": "address",
          "name": "previousOwner",
          "type": "address"
        },
        {
          "indexed": true,
          "internalType": "address",
          "name": "newOwner",
          "type": "address"
        }
      ],
      "name": "OwnershipTransferred",
      "type": "event"
    },
    {
      "anonymous": false,
      "inputs": [
        {
          "indexed": false,
          "internalType": "address",
          "name": "account",
          "type": "address"
        }
      ],
      "name": "Paused",
      "type": "event"
    },
    {
      "anonymous": false,
      "inputs": [
        {
          "indexed": true,
          "internalType": "uint256",
          "name": "round",
          "type": "uint256"
        },
        {
          "indexed": false,
          "internalType": "uint256",
          "name": "totalTickets",
          "type": "uint256"
        },
        {
          "indexed": false,
          "internalType": "uint256",
          "name": "timestamp",
          "type": "uint256"
        }
      ],
      "name": "PoolFilled",
      "type": "event"
    },
    {
      "anonymous": false,
      "inputs": [
        {
          "indexed": true,
          "internalType": "address",
          "name": "winner",
          "type": "address"
        },
        {
          "indexed": false,
          "internalType": "uint256",
          "name": "amount",
          "type": "uint256"
        },
        {
          "indexed": false,
          "internalType": "uint256",
          "name": "round",
          "type": "uint256"
        },
        {
          "indexed": false,
          "internalType": "uint256",
          "name": "timestamp",
          "type": "uint256"
        }
      ],
      "name": "PrizeClaimed",
      "type": "event"
    },
    {
      "anonymous": false,
      "inputs": [
        {
          "indexed": true,
          "internalType": "uint256",
          "name": "newRound",
          "type": "uint256"
        },
        {
          "indexed": false,
          "internalType": "uint256",
          "name": "timestamp",
          "type": "uint256"
        }
      ],
      "name": "RoundReset",
      "type": "event"
    },
    {
      "anonymous": false,
      "inputs": [
        {
          "indexed": true,
          "internalType": "address",
          "name": "buyer",
          "type": "address"
        },
        {
          "indexed": true,
          "internalType": "uint256",
          "name": "ticketId",
          "type": "uint256"
        },
        {
          "indexed": true,
          "internalType": "uint256",
          "name": "round",
          "type": "uint256"
        },
        {
          "indexed": false,
          "internalType": "uint256",
          "name": "timestamp",
          "type": "uint256"
        }
      ],
      "name": "TicketPurchased",
      "type": "event"
    },
    {
      "anonymous": false,
      "inputs": [
        {
          "indexed": false,
          "internalType": "address",
          "name": "account",
          "type": "address"
        }
      ],
      "name": "Unpaused",
      "type": "event"
    },
    {
      "anonymous": false,
      "inputs": [
        {
          "indexed": true,
          "internalType": "uint256",
          "name": "ticketId",
          "type": "uint256"
        },
        {
          "indexed": true,
          "internalType": "address",
          "name": "winner",
          "type": "address"
        },
        {
          "indexed": false,
          "internalType": "uint8",
          "name": "group",
          "type": "uint8"
        },
        {
          "indexed": false,
          "internalType": "uint256",
          "name": "prize",
          "type": "uint256"
        },
        {
          "indexed": false,
          "internalType": "uint256",
          "name": "round",
          "type": "uint256"
        }
      ],
      "name": "WinnerSelected",
      "type": "event"
    },
    {
      "inputs": [],
      "name": "GAS_FEE_PERCENT",
      "outputs": [
        {
          "internalType": "uint256",
          "name": "",
          "type": "uint256"
        }
      ],
      "stateMutability": "view",
      "type": "function"
    },
    {
      "inputs": [],
      "name": "GROUP_A_COUNT",
      "outputs": [
        {
          "internalType": "uint256",
          "name": "",
          "type": "uint256"
        }
      ],
      "stateMutability": "view",
      "type": "function"
    },
    {
      "inputs": [],
      "name": "GROUP_A_PERCENT",
      "outputs": [
        {
          "internalType": "uint256",
          "name": "",
          "type": "uint256"
        }
      ],
      "stateMutability": "view",
      "type": "function"
    },
    {
      "inputs": [],
      "name": "GROUP_B_COUNT",
      "outputs": [
        {
          "internalType": "uint256",
          "name": "",
          "type": "uint256"
        }
      ],
      "stateMutability": "view",
      "type": "function"
    },
    {
      "inputs": [],
      "name": "GROUP_B_PERCENT",
      "outputs": [
        {
          "internalType": "uint256",
          "name": "",
          "type": "uint256"
        }
      ],
      "stateMutability": "view",
      "type": "function"
    },
    {
      "inputs": [],
      "name": "GROUP_C_COUNT",
      "outputs": [
        {
          "internalType": "uint256",
          "name": "",
          "type": "uint256"
        }
      ],
      "stateMutability": "view",
      "type": "function"
    },
    {
      "inputs": [],
      "name": "GROUP_C_PERCENT",
      "outputs": [
        {
          "internalType": "uint256",
          "name": "",
          "type": "uint256"
        }
      ],
      "stateMutability": "view",
      "type": "function"
    },
    {
      "inputs": [],
      "name": "GROUP_D_COUNT",
      "outputs": [
        {
          "internalType": "uint256",
          "name": "",
          "type": "uint256"
        }
      ],
      "stateMutability": "view",
      "type": "function"
    },
    {
      "inputs": [],
      "name": "GROUP_D_PERCENT",
      "outputs": [
        {
          "internalType": "uint256",
          "name": "",
          "type": "uint256"
        }
      ],
      "stateMutability": "view",
      "type": "function"
    },
    {
      "inputs": [],
      "name": "MAX_PARTICIPANTS",
      "outputs": [
        {
          "internalType": "uint256",
          "name": "",
          "type": "uint256"
        }
      ],
      "stateMutability": "view",
      "type": "function"
    },
    {
      "inputs": [],
      "name": "MAX_PURCHASES_PER_BLOCK",
      "outputs": [
        {
          "internalType": "uint256",
          "name": "",
          "type": "uint256"
        }
      ],
      "stateMutability": "view",
      "type": "function"
    },
    {
      "inputs": [],
      "name": "MAX_TICKETS_PER_PURCHASE",
      "outputs": [
        {
          "internalType": "uint256",
          "name": "",
          "type": "uint256"
        }
      ],
      "stateMutability": "view",
      "type": "function"
    },
    {
      "inputs": [],
      "name": "MAX_TICKETS_PER_USER_PER_ROUND",
      "outputs": [
        {
          "internalType": "uint256",
          "name": "",
          "type": "uint256"
        }
      ],
      "stateMutability": "view",
      "type": "function"
    },
    {
      "inputs": [],
      "name": "MIN_TICKETS_PER_PURCHASE",
      "outputs": [
        {
          "internalType": "uint256",
          "name": "",
          "type": "uint256"
        }
      ],
      "stateMutability": "view",
      "type": "function"
    },
    {
      "inputs": [],
      "name": "TICKET_PRICE",
      "outputs": [
        {
          "internalType": "uint256",
          "name": "",
          "type": "uint256"
        }
      ],
      "stateMutability": "view",
      "type": "function"
    },
    {
      "inputs": [],
      "name": "areWinnersSelected",
      "outputs": [
        {
          "internalType": "bool",
          "name": "",
          "type": "bool"
        }
      ],
      "stateMutability": "view",
      "type": "function"
    },
    {
      "inputs": [
        {
          "internalType": "uint256",
          "name": "quantity",
          "type": "uint256"
        }
      ],
      "name": "buyTicket",
      "outputs": [],
      "stateMutability": "nonpayable",
      "type": "function"
    },
    {
      "inputs": [],
      "name": "claim",
      "outputs": [],
      "stateMutability": "nonpayable",
      "type": "function"
    },
    {
      "inputs": [
        {
          "internalType": "address",
          "name": "",
          "type": "address"
        }
      ],
      "name": "claimable",
      "outputs": [
        {
          "internalType": "uint256",
          "name": "",
          "type": "uint256"
        }
      ],
      "stateMutability": "view",
      "type": "function"
    },
    {
      "inputs": [],
      "name": "currentRound",
      "outputs": [
        {
          "internalType": "uint256",
          "name": "",
          "type": "uint256"
        }
      ],
      "stateMutability": "view",
      "type": "function"
    },
    {
      "inputs": [],
      "name": "emergencyWithdraw",
      "outputs": [],
      "stateMutability": "nonpayable",
      "type": "function"
    },
    {
      "inputs": [],
      "name": "executeDraw",
      "outputs": [],
      "stateMutability": "nonpayable",
      "type": "function"
    },
    {
      "inputs": [],
      "name": "getAllTickets",
      "outputs": [
        {
          "components": [
            {
              "internalType": "uint256",
              "name": "ticketId",
              "type": "uint256"
            },
            {
              "internalType": "address",
              "name": "owner",
              "type": "address"
            },
            {
              "internalType": "uint256",
              "name": "purchaseTime",
              "type": "uint256"
            },
            {
              "internalType": "uint256",
              "name": "roundNumber",
              "type": "uint256"
            }
          ],
          "internalType": "struct PoolChain_Micro_MultiTicket.Ticket[]",
          "name": "",
          "type": "tuple[]"
        }
      ],
      "stateMutability": "view",
      "type": "function"
    },
    {
      "inputs": [
        {
          "internalType": "address",
          "name": "user",
          "type": "address"
        }
      ],
      "name": "getClaimable",
      "outputs": [
        {
          "internalType": "uint256",
          "name": "",
          "type": "uint256"
        }
      ],
      "stateMutability": "view",
      "type": "function"
    },
    {
      "inputs": [],
      "name": "getCurrentPool",
      "outputs": [
        {
          "internalType": "uint256",
          "name": "",
          "type": "uint256"
        }
      ],
      "stateMutability": "view",
      "type": "function"
    },
    {
      "inputs": [],
      "name": "getGroupAWinners",
      "outputs": [
        {
          "internalType": "address[]",
          "name": "",
          "type": "address[]"
        }
      ],
      "stateMutability": "view",
      "type": "function"
    },
    {
      "inputs": [],
      "name": "getGroupBWinners",
      "outputs": [
        {
          "internalType": "address[]",
          "name": "",
          "type": "address[]"
        }
      ],
      "stateMutability": "view",
      "type": "function"
    },
    {
      "inputs": [],
      "name": "getGroupCWinners",
      "outputs": [
        {
          "internalType": "address[]",
          "name": "",
          "type": "address[]"
        }
      ],
      "stateMutability": "view",
      "type": "function"
    },
    {
      "inputs": [],
      "name": "getGroupDWinners",
      "outputs": [
        {
          "internalType": "address[]",
          "name": "",
          "type": "address[]"
        }
      ],
      "stateMutability": "view",
      "type": "function"
    },
    {
      "inputs": [
        {
          "internalType": "uint256",
          "name": "ticketId",
          "type": "uint256"
        }
      ],
      "name": "getTicket",
      "outputs": [
        {
          "components": [
            {
              "internalType": "uint256",
              "name": "ticketId",
              "type": "uint256"
            },
            {
              "internalType": "address",
              "name": "owner",
              "type": "address"
            },
            {
              "internalType": "uint256",
              "name": "purchaseTime",
              "type": "uint256"
            },
            {
              "internalType": "uint256",
              "name": "roundNumber",
              "type": "uint256"
            }
          ],
          "internalType": "struct PoolChain_Micro_MultiTicket.Ticket",
          "name": "",
          "type": "tuple"
        }
      ],
      "stateMutability": "view",
      "type": "function"
    },
    {
      "inputs": [],
      "name": "getTicketCount",
      "outputs": [
        {
          "internalType": "uint256",
          "name": "",
          "type": "uint256"
        }
      ],
      "stateMutability": "view",
      "type": "function"
    },
    {
      "inputs": [
        {
          "internalType": "address",
          "name": "user",
          "type": "address"
        }
      ],
      "name": "getUserTicketCount",
      "outputs": [
        {
          "internalType": "uint256",
          "name": "",
          "type": "uint256"
        }
      ],
      "stateMutability": "view",
      "type": "function"
    },
    {
      "inputs": [
        {
          "internalType": "address",
          "name": "user",
          "type": "address"
        }
      ],
      "name": "getUserTickets",
      "outputs": [
        {
          "internalType": "uint256[]",
          "name": "",
          "type": "uint256[]"
        }
      ],
      "stateMutability": "view",
      "type": "function"
    },
    {
      "inputs": [
        {
          "internalType": "uint256",
          "name": "",
          "type": "uint256"
        }
      ],
      "name": "groupAWinners",
      "outputs": [
        {
          "internalType": "address",
          "name": "",
          "type": "address"
        }
      ],
      "stateMutability": "view",
      "type": "function"
    },
    {
      "inputs": [
        {
          "internalType": "uint256",
          "name": "",
          "type": "uint256"
        }
      ],
      "name": "groupBWinners",
      "outputs": [
        {
          "internalType": "address",
          "name": "",
          "type": "address"
        }
      ],
      "stateMutability": "view",
      "type": "function"
    },
    {
      "inputs": [
        {
          "internalType": "uint256",
          "name": "",
          "type": "uint256"
        }
      ],
      "name": "groupCWinners",
      "outputs": [
        {
          "internalType": "address",
          "name": "",
          "type": "address"
        }
      ],
      "stateMutability": "view",
      "type": "function"
    },
    {
      "inputs": [
        {
          "internalType": "uint256",
          "name": "",
          "type": "uint256"
        }
      ],
      "name": "groupDWinners",
      "outputs": [
        {
          "internalType": "address",
          "name": "",
          "type": "address"
        }
      ],
      "stateMutability": "view",
      "type": "function"
    },
    {
      "inputs": [],
      "name": "isPoolFilled",
      "outputs": [
        {
          "internalType": "bool",
          "name": "",
          "type": "bool"
        }
      ],
      "stateMutability": "view",
      "type": "function"
    },
    {
      "inputs": [
        {
          "internalType": "uint256",
          "name": "",
          "type": "uint256"
        }
      ],
      "name": "isWinningTicket",
      "outputs": [
        {
          "internalType": "bool",
          "name": "",
          "type": "bool"
        }
      ],
      "stateMutability": "view",
      "type": "function"
    },
    {
      "inputs": [
        {
          "internalType": "address",
          "name": "",
          "type": "address"
        }
      ],
      "name": "lastPurchaseBlock",
      "outputs": [
        {
          "internalType": "uint256",
          "name": "",
          "type": "uint256"
        }
      ],
      "stateMutability": "view",
      "type": "function"
    },
    {
      "inputs": [],
      "name": "nextTicketId",
      "outputs": [
        {
          "internalType": "uint256",
          "name": "",
          "type": "uint256"
        }
      ],
      "stateMutability": "view",
      "type": "function"
    },
    {
      "inputs": [],
      "name": "owner",
      "outputs": [
        {
          "internalType": "address",
          "name": "",
          "type": "address"
        }
      ],
      "stateMutability": "view",
      "type": "function"
    },
    {
      "inputs": [],
      "name": "pause",
      "outputs": [],
      "stateMutability": "nonpayable",
      "type": "function"
    },
    {
      "inputs": [],
      "name": "paused",
      "outputs": [
        {
          "internalType": "bool",
          "name": "",
          "type": "bool"
        }
      ],
      "stateMutability": "view",
      "type": "function"
    },
    {
      "inputs": [],
      "name": "platformWallet",
      "outputs": [
        {
          "internalType": "address",
          "name": "",
          "type": "address"
        }
      ],
      "stateMutability": "view",
      "type": "function"
    },
    {
      "inputs": [],
      "name": "poolFilled",
      "outputs": [
        {
          "internalType": "bool",
          "name": "",
          "type": "bool"
        }
      ],
      "stateMutability": "view",
      "type": "function"
    },
    {
      "inputs": [
        {
          "internalType": "address",
          "name": "",
          "type": "address"
        }
      ],
      "name": "purchasesInCurrentBlock",
      "outputs": [
        {
          "internalType": "uint256",
          "name": "",
          "type": "uint256"
        }
      ],
      "stateMutability": "view",
      "type": "function"
    },
    {
      "inputs": [],
      "name": "renounceOwnership",
      "outputs": [],
      "stateMutability": "nonpayable",
      "type": "function"
    },
    {
      "inputs": [],
      "name": "resetRound",
      "outputs": [],
      "stateMutability": "nonpayable",
      "type": "function"
    },
    {
      "inputs": [
        {
          "internalType": "uint256",
          "name": "",
          "type": "uint256"
        }
      ],
      "name": "ticketWinnerGroup",
      "outputs": [
        {
          "internalType": "uint8",
          "name": "",
          "type": "uint8"
        }
      ],
      "stateMutability": "view",
      "type": "function"
    },
    {
      "inputs": [
        {
          "internalType": "uint256",
          "name": "",
          "type": "uint256"
        }
      ],
      "name": "tickets",
      "outputs": [
        {
          "internalType": "uint256",
          "name": "ticketId",
          "type": "uint256"
        },
        {
          "internalType": "address",
          "name": "owner",
          "type": "address"
        },
        {
          "internalType": "uint256",
          "name": "purchaseTime",
          "type": "uint256"
        },
        {
          "internalType": "uint256",
          "name": "roundNumber",
          "type": "uint256"
        }
      ],
      "stateMutability": "view",
      "type": "function"
    },
    {
      "inputs": [
        {
          "internalType": "address",
          "name": "newOwner",
          "type": "address"
        }
      ],
      "name": "transferOwnership",
      "outputs": [],
      "stateMutability": "nonpayable",
      "type": "function"
    },
    {
      "inputs": [],
      "name": "unpause",
      "outputs": [],
      "stateMutability": "nonpayable",
      "type": "function"
    },
    {
      "inputs": [],
      "name": "usdt",
      "outputs": [
        {
          "internalType": "contract IERC20",
          "name": "",
          "type": "address"
        }
      ],
      "stateMutability": "view",
      "type": "function"
    },
    {
      "inputs": [
        {
          "internalType": "address",
          "name": "",
          "type": "address"
        },
        {
          "internalType": "uint256",
          "name": "",
          "type": "uint256"
        }
      ],
      "name": "userTickets",
      "outputs": [
        {
          "internalType": "uint256",
          "name": "",
          "type": "uint256"
        }
      ],
      "stateMutability": "view",
      "type": "function"
    },
    {
      "inputs": [],
      "name": "winnersSelected",
      "outputs": [
        {
          "internalType": "bool",
          "name": "",
          "type": "bool"
        }
      ],
      "stateMutability": "view",
      "type": "function"
    }
  ],
  "bytecode": "0x60c0604052600160035560016004553480156200001b57600080fd5b506040516200253d3803806200253d8339810160408190526200003e91620001ab565b33806200006657604051631e4fbdf760e01b8152600060048201526024015b60405180910390fd5b62000071816200013e565b50600180556001600160a01b038216620000ce5760405162461bcd60e51b815260206004820152601460248201527f496e76616c69642055534454206164647265737300000000000000000000000060448201526064016200005d565b6001600160a01b038116620001265760405162461bcd60e51b815260206004820152601760248201527f496e76616c696420706c6174666f726d2077616c6c657400000000000000000060448201526064016200005d565b6001600160a01b039182166080521660a052620001e3565b600080546001600160a01b038381166001600160a01b0319831681178455604051919092169283917f8be0079c531659141344cd1fd0a4f28419497f9722a3daafe3b4186f6b6457e09190a35050565b80516001600160a01b0381168114620001a657600080fd5b919050565b60008060408385031215620001bf57600080fd5b620001ca836200018e565b9150620001da602084016200018e565b90509250929050565b60805160a05161230a62000233600039600081816107240152610ba90152600081816103fa01528181610b8701528181610caf01528181610fc701528181611786015261181a015261230a6000f3fe608060405234801561001057600080fd5b50600436106103785760003560e01c8063808511a1116101d3578063a583024b11610104578063df265a9f116100a2578063f15ed4fa1161007c578063f15ed4fa14610532578063f2fde38b14610704578063f3baf07014610717578063fa2af9da1461071f57600080fd5b8063df265a9f146106f9578063e535dce81461053a578063ecf33f2a1461053257600080fd5b8063c421a16e116100de578063c421a16e146106a8578063cf260baf146106bb578063d84e29ea146106ce578063db2e21bc146106f157600080fd5b8063a583024b1461066c578063c1f8d5cc14610695578063c38ec9901461053a57600080fd5b80638bc53285116101715780638e3059d51161014b5780638e3059d514610613578063924d469614610633578063963ef2a21461063b5780639ff860f51461066457600080fd5b80638bc53285146105dd5780638c44f715146105ef5780638da5cb5b1461060257600080fd5b80638456cb59116101ad5780638456cb59146105a457806384d452ff146105ac57806386cbf53a146105b45780638a19c8bc146105d457600080fd5b8063808511a11461056257806380ca982e1461056f578063842a6f9d1461053a57600080fd5b806350b44712116102ad5780636c6e99d71161024b578063766c3e6711610225578063766c3e671461053257806378c6e2e1146104d65780637c4578881461053a5780637dc379fa1461054257600080fd5b80636c6e99d71461050f5780636f4e031c14610517578063715018a61461052a57600080fd5b80635f6f0e63116102875780635f6f0e63146104805780636031a52f146104de57806367dd74ca146104e75780636bd5dfce146104fa57600080fd5b806350b44712146104905780635c975abb146104cb5780635ecc1df1146104d657600080fd5b80632f48ab7d1161031a5780633f4ba83a116102f45780633f4ba83a14610458578063402914f514610460578063452dac3a146104805780634e71d92d1461048857600080fd5b80632f48ab7d146103f55780632f6f81d914610434578063338bd5111461043c57600080fd5b80631a95f15f116103565780631a95f15f146103d157806321c63a47146103db5780632d49a7bf146103e35780632e4e9ea1146103ed57600080fd5b806303e96fe31461037d5780630484a22f1461039b5780631a595f65146103bb575b600080fd5b610385610746565b6040516103929190611fe4565b60405180910390f35b6103ae6103a9366004612075565b6107d0565b60405161039291906120d2565b6103c361083c565b604051908152602001610392565b6103c3621e848081565b6006546103c3565b6103eb610854565b005b6103c3602881565b61041c7f000000000000000000000000000000000000000000000000000000000000000081565b6040516001600160a01b039091168152602001610392565b6103c3600381565b600554610100900460ff165b6040519015158152602001610392565b6103eb610c2e565b6103c361046e366004612075565b600e6020526000908152604090205481565b6103c3600a81565b6103eb610c3e565b6104a361049e3660046120e5565b610d2e565b604080519485526001600160a01b039093166020850152918301526060820152608001610392565b60025460ff16610448565b6103c3600181565b6103c360045481565b6103eb6104f53660046120e5565b610d71565b610502611289565b60405161039291906120fe565b6105026112eb565b61041c6105253660046120e5565b61134b565b6103eb611375565b6103c3601e81565b6103c3601481565b6105556105503660046120e5565b611387565b604051610392919061213f565b6005546104489060ff1681565b61059261057d3660046120e5565b600d6020526000908152604090205460ff1681565b60405160ff9091168152602001610392565b6103eb6114f6565b6103eb611506565b6103c36105c2366004612075565b600f6020526000908152604090205481565b6103c360035481565b60055461044890610100900460ff1681565b61041c6105fd3660046120e5565b6115ed565b6000546001600160a01b031661041c565b6103c3610621366004612075565b60106020526000908152604090205481565b6105026115fd565b6103c3610649366004612075565b6001600160a01b03166000908152600b602052604090205490565b61050261165d565b6103c361067a366004612075565b6001600160a01b03166000908152600e602052604090205490565b61041c6106a33660046120e5565b6116bd565b61041c6106b63660046120e5565b6116cd565b6103c36106c9366004612175565b6116dd565b6104486106dc3660046120e5565b600c6020526000908152604090205460ff1681565b6103eb61170e565b60055460ff16610448565b6103eb610712366004612075565b611841565b6103c3606481565b61041c7f000000000000000000000000000000000000000000000000000000000000000081565b60606006805480602002602001604051908101604052809291908181526020016000905b828210156107c75760008481526020908190206040805160808101825260048602909201805483526001808201546001600160a01b031684860152600282015492840192909252600301546060830152908352909201910161076a565b50505050905090565b6001600160a01b0381166000908152600b602090815260409182902080548351818402810184019094528084526060939283018282801561083057602002820191906000526020600020905b81548152602001906001019080831161081c575b50505050509050919050565b60065460009061084f90621e84806121b5565b905090565b61085c61187c565b6108646118a9565b60055460ff166108ad5760405162461bcd60e51b815260206004820152600f60248201526e141bdbdb081b9bdd08199a5b1b1959608a1b60448201526064015b60405180910390fd5b600554610100900460ff16156109055760405162461bcd60e51b815260206004820152601860248201527f57696e6e65727320616c72656164792073656c6563746564000000000000000060448201526064016108a4565b60065460641461094e5760405162461bcd60e51b8152602060048201526014602482015273125b9d985b1a59081d1a58dad95d0818dbdd5b9d60621b60448201526064016108a4565b60006109586118d3565b9050600061096a6064621e84806121b5565b90506000606461097b6003846121b5565b61098591906121e2565b9050600061099382846121f6565b90506000600a60646109a6601e856121b5565b6109b091906121e2565b6109ba91906121e2565b90506000601460646109cd601e866121b5565b6109d791906121e2565b6109e191906121e2565b90506000601e60646109f46014876121b5565b6109fe91906121e2565b610a0891906121e2565b9050600060286064610a1b6014886121b5565b610a2591906121e2565b610a2f91906121e2565b90506000805b600a811015610a8357610a638a8381518110610a5357610a53612209565b6020026020010151600188611a5b565b81610a6d8161221f565b9250508080610a7b9061221f565b915050610a35565b5060005b6014811015610ad557610ab58a8381518110610aa557610aa5612209565b6020026020010151600287611a5b565b81610abf8161221f565b9250508080610acd9061221f565b915050610a87565b5060005b601e811015610b2757610b078a8381518110610af757610af7612209565b6020026020010151600386611a5b565b81610b118161221f565b9250508080610b1f9061221f565b915050610ad9565b5060005b6028811015610b7957610b598a8381518110610b4957610b49612209565b6020026020010151600485611a5b565b81610b638161221f565b9250508080610b719061221f565b915050610b2b565b50610bce6001600160a01b037f0000000000000000000000000000000000000000000000000000000000000000167f000000000000000000000000000000000000000000000000000000000000000089611d1e565b6005805461ff0019166101001790556003546040517fb3094e2a3faa3b724d86e73fb8a956c3922ab12785102095a669ade4cb943bab90610c129042815260200190565b60405180910390a2505050505050505050610c2c60018055565b565b610c3661187c565b610c2c611d82565b610c466118a9565b336000908152600e602052604090205480610c995760405162461bcd60e51b8152602060048201526013602482015272139bc818db185a5b58589b1948185b5bdd5b9d606a1b60448201526064016108a4565b336000818152600e6020526040812055610cde907f00000000000000000000000000000000000000000000000000000000000000006001600160a01b03169083611d1e565b600354604080518381526020810192909252429082015233907f701a77bd5e0b7b1ffffe478c3c19e3caadca855782127fca812c7ccd9646cdc49060600160405180910390a250610c2c60018055565b60068181548110610d3e57600080fd5b600091825260209091206004909102018054600182015460028301546003909301549193506001600160a01b0316919084565b610d796118a9565b610d81611dd4565b60055460ff1615610dc35760405162461bcd60e51b815260206004820152600c60248201526b141bdbdb081a5cc8199d5b1b60a21b60448201526064016108a4565b60018110158015610dd55750600a8111155b610e195760405162461bcd60e51b81526020600482015260156024820152744d7573742062757920312d3130207469636b65747360581b60448201526064016108a4565b600654606490610e2a908390612238565b1115610e785760405162461bcd60e51b815260206004820152601860248201527f45786365656473206d6178207061727469636970616e7473000000000000000060448201526064016108a4565b336000908152600b6020526040902054601490610e96908390612238565b1115610eee5760405162461bcd60e51b815260206004820152602160248201527f45786365656473206d6178207469636b657473207065722075736572202832306044820152602960f81b60648201526084016108a4565b336000908152600f60205260409020544303610f885733600090815260106020526040902054600111610f635760405162461bcd60e51b815260206004820152601f60248201527f4d6178207075726368617365732070657220626c6f636b20726561636865640060448201526064016108a4565b336000908152601060205260408120805491610f7e8361221f565b9190505550610fa9565b336000908152600f6020908152604080832043905560109091529020600190555b6000610fb882621e84806121b5565b9050610fef6001600160a01b037f000000000000000000000000000000000000000000000000000000000000000016333084611df8565b60008267ffffffffffffffff81111561100a5761100a61224b565b604051908082528060200260200182016040528015611033578160200160208202803683370190505b50905060005b838110156111e45760048054600091826110528361221f565b909155506040805160808101825282815233602080830182815242848601908152600354606086019081526006805460018082018355600092835297517ff652222313e28459528d920b65115c16c04f3efc82aaedc97be59f3f377c0d3f60049092029182015593517ff652222313e28459528d920b65115c16c04f3efc82aaedc97be59f3f377c0d40850180546001600160a01b0319166001600160a01b0390921691909117905591517ff652222313e28459528d920b65115c16c04f3efc82aaedc97be59f3f377c0d41840155517ff652222313e28459528d920b65115c16c04f3efc82aaedc97be59f3f377c0d4290920191909155918252600b815292812080549283018155815291909120018190558351909150819084908490811061117e5761117e612209565b60200260200101818152505060035481336001600160a01b03167f96541f70da731142b18e96f1def4d2a7733deb7d784723106d52c1d906d4c67a426040516111c991815260200190565b60405180910390a450806111dc8161221f565b915050611039565b5060035460405133917f53483b15e1544e3ad815cf1137a1ea875ea471d42c2fa9d1def079494ecc92bb9161121e91859188918891612261565b60405180910390a26006546063190161127b576005805460ff1916600117905560035460408051606481524260208201527f2f175f06e9e98a031b67651e940b202eb5594b8c635aeb92bdac6fce470183d4910160405180910390a25b505061128660018055565b50565b606060078054806020026020016040519081016040528092919081815260200182805480156112e157602002820191906000526020600020905b81546001600160a01b031681526001909101906020018083116112c3575b5050505050905090565b606060088054806020026020016040519081016040528092919081815260200182805480156112e1576020028201919060005260206000209081546001600160a01b031681526001909101906020018083116112c3575050505050905090565b6009818154811061135b57600080fd5b6000918252602090912001546001600160a01b0316905081565b61137d61187c565b610c2c6000611e37565b6113bb60405180608001604052806000815260200160006001600160a01b0316815260200160008152602001600081525090565b6000821180156113cc575060045482105b61140c5760405162461bcd60e51b8152602060048201526011602482015270125b9d985b1a59081d1a58dad95d081251607a1b60448201526064016108a4565b60005b6006548110156114ba57826006828154811061142d5761142d612209565b906000526020600020906004020160000154036114a8576006818154811061145757611457612209565b60009182526020918290206040805160808101825260049093029091018054835260018101546001600160a01b03169383019390935260028301549082015260039091015460608201529392505050565b806114b28161221f565b91505061140f565b5060405162461bcd60e51b815260206004820152601060248201526f151a58dad95d081b9bdd08199bdd5b9960821b60448201526064016108a4565b6114fe61187c565b610c2c611e87565b61150e61187c565b600554610100900460ff166115595760405162461bcd60e51b8152602060048201526011602482015270111c985dc81b9bdd08195e1958dd5d1959607a1b60448201526064016108a4565b61156560066000611f58565b61157160076000611f79565b61157d60086000611f79565b61158960096000611f79565b611595600a6000611f79565b6005805461ffff19169055600380549060006115b08361221f565b90915550506003546040514281527fb5d9dd711deaba429a82837af3c0430f5046e7668c98075d5ac89f63530a563a9060200160405180910390a2565b600a818154811061135b57600080fd5b606060098054806020026020016040519081016040528092919081815260200182805480156112e1576020028201919060005260206000209081546001600160a01b031681526001909101906020018083116112c3575050505050905090565b6060600a8054806020026020016040519081016040528092919081815260200182805480156112e1576020028201919060005260206000209081546001600160a01b031681526001909101906020018083116112c3575050505050905090565b6008818154811061135b57600080fd5b6007818154811061135b57600080fd5b600b60205281600052604060002081815481106116f957600080fd5b90600052602060002001600091509150505481565b61171661187c565b600554610100900460ff161561176e5760405162461bcd60e51b815260206004820152601a60248201527f43616e6e6f74207769746864726177206166746572206472617700000000000060448201526064016108a4565b6040516370a0823160e01b81523060048201526000907f00000000000000000000000000000000000000000000000000000000000000006001600160a01b0316906370a0823190602401602060405180830381865afa1580156117d5573d6000803e3d6000fd5b505050506040513d601f19601f820116820180604052508101906117f99190612290565b90506112866118106000546001600160a01b031690565b6001600160a01b037f0000000000000000000000000000000000000000000000000000000000000000169083611d1e565b61184961187c565b6001600160a01b03811661187357604051631e4fbdf760e01b8152600060048201526024016108a4565b61128681611e37565b6000546001600160a01b03163314610c2c5760405163118cdaa760e01b81523360048201526024016108a4565b6002600154036118cc57604051633ee5aeb560e01b815260040160405180910390fd5b6002600155565b604080516064808252610ca082019092526060916000919060208201610c808036833701905050905060005b6064811015611938578082828151811061191b5761191b612209565b6020908102919091010152806119308161221f565b9150506118ff565b50600654604080514260208083019190915244828401524360608301526080808301949094528251808303909401845260a090910190915281519101206000611983600160646121f6565b90505b8015611a53576000611999826001612238565b60408051602081018690529081018490526060016040516020818303038152906040528051906020012060001c6119d091906122a9565b90508381815181106119e4576119e4612209565b60200260200101518483815181106119fe576119fe612209565b6020026020010151858481518110611a1857611a18612209565b60200260200101868481518110611a3157611a31612209565b6020908102919091010191909152525080611a4b816122bd565b915050611986565b509092915050565b6006548310611aa35760405162461bcd60e51b8152602060048201526014602482015273092dcecc2d8d2c840e8d2c6d6cae840d2dcc8caf60631b60448201526064016108a4565b600060068481548110611ab857611ab8612209565b6000918252602080832060408051608081018252600490940290910180548085526001808301546001600160a01b03168686018190526002840154878601526003909301546060870152818752600c8552838720805460ff199081168317909155600d90955292909520805460ff8a1694168417905592945091929103611b8957600780546001810182556000919091527fa66cc928b5edb82af9bd49922954155ab7b0942694bea4ce44661d9a8736c6880180546001600160a01b0319166001600160a01b038416179055611c96565b8460ff16600203611be457600880546001810182556000919091527ff3f7a9fe364faab93b216da50a3214154f22a0a2b415b23a84c8169e8b636ee30180546001600160a01b0319166001600160a01b038416179055611c96565b8460ff16600303611c3f57600980546001810182556000919091527f6e1540171b6c0c960b71a7020d9f60077f6af931a8bbf590da0223dacf75c7af0180546001600160a01b0319166001600160a01b038416179055611c96565b8460ff16600403611c9657600a80546001810182556000919091527fc65a7bb8d6351c1cf70c95a316cc6a92839c986682d98bc35f958f4883f9d2a80180546001600160a01b0319166001600160a01b0384161790555b6001600160a01b0382166000908152600e602052604081208054869290611cbe908490612238565b90915550506003546040805160ff881681526020810187905280820192909252516001600160a01b0384169183917f1755c3bc2f488f345faa37394ee735f4b7d57208d1745cb8b8aae4ed03f943b89181900360600190a3505050505050565b6040516001600160a01b03838116602483015260448201839052611d7d91859182169063a9059cbb906064015b604051602081830303815290604052915060e01b6020820180516001600160e01b038381831617835250505050611ec4565b505050565b611d8a611f35565b6002805460ff191690557f5db9ee0a495bf2e6ff9c91a7834c1ba4fdd244a5e8aa4e537bd38aeae4b073aa335b6040516001600160a01b03909116815260200160405180910390a1565b60025460ff1615610c2c5760405163d93c066560e01b815260040160405180910390fd5b6040516001600160a01b038481166024830152838116604483015260648201839052611e319186918216906323b872dd90608401611d4b565b50505050565b600080546001600160a01b038381166001600160a01b0319831681178455604051919092169283917f8be0079c531659141344cd1fd0a4f28419497f9722a3daafe3b4186f6b6457e09190a35050565b611e8f611dd4565b6002805460ff191660011790557f62e78cea01bee320cd4e420270b5ea74000d11b0c9f74754ebdbfc544b05a258611db73390565b600080602060008451602086016000885af180611ee7576040513d6000823e3d81fd5b50506000513d91508115611eff578060011415611f0c565b6001600160a01b0384163b155b15611e3157604051635274afe760e01b81526001600160a01b03851660048201526024016108a4565b60025460ff16610c2c57604051638dfc202b60e01b815260040160405180910390fd5b50805460008255600402906000526020600020908101906112869190611f97565b50805460008255906000526020600020908101906112869190611fcf565b5b80821115611fcb5760008082556001820180546001600160a01b0319169055600282018190556003820155600401611f98565b5090565b5b80821115611fcb5760008155600101611fd0565b6020808252825182820181905260009190848201906040850190845b8181101561204d5761203a838551805182526020808201516001600160a01b03169083015260408082015190830152606090810151910152565b9284019260809290920191600101612000565b50909695505050505050565b80356001600160a01b038116811461207057600080fd5b919050565b60006020828403121561208757600080fd5b61209082612059565b9392505050565b600081518084526020808501945080840160005b838110156120c7578151875295820195908201906001016120ab565b509495945050505050565b6020815260006120906020830184612097565b6000602082840312156120f757600080fd5b5035919050565b6020808252825182820181905260009190848201906040850190845b8181101561204d5783516001600160a01b03168352928401929184019160010161211a565b815181526020808301516001600160a01b0316908201526040808301519082015260608083015190820152608081015b92915050565b6000806040838503121561218857600080fd5b61219183612059565b946020939093013593505050565b634e487b7160e01b600052601160045260246000fd5b808202811582820484141761216f5761216f61219f565b634e487b7160e01b600052601260045260246000fd5b6000826121f1576121f16121cc565b500490565b8181038181111561216f5761216f61219f565b634e487b7160e01b600052603260045260246000fd5b6000600182016122315761223161219f565b5060010190565b8082018082111561216f5761216f61219f565b634e487b7160e01b600052604160045260246000fd5b6080815260006122746080830187612097565b6020830195909552506040810192909252606090910152919050565b6000602082840312156122a257600080fd5b5051919050565b6000826122b8576122b86121cc565b500690565b6000816122cc576122cc61219f565b50600019019056fea26469706673582212204e50051f42f66a67706f2d5b09a35a9640abcb1de9ca131075705e663f42fe2264736f6c63430008140033",
  "linkReferences": {},
  "deployedLinkReferences": {}
}