{
  "_format": "hh-sol-artifact-1",
  "contractName": "SanDigital2026",
  "sourceName": "contracts/SanDigital2026.sol",
  "abi": [
    {
      "inputs": [
        {
          "internalType": "address",
          "name": "_token",
          "type": "address"
        }
      ],
      "stateMutability": "nonpayable",
      "type": "constructor"
    },
    {
      "inputs": [],
      "name": "EnforcedPause",
      "type": "error"
    },
    {
      "inputs": [],
      "name": "ExpectedPause",
      "type": "error"
    },
    {
      "inputs": [
        {
          "internalType": "address",
          "name": "owner",
          "type": "address"
        }
      ],
      "name": "OwnableInvalidOwner",
      "type": "error"
    },
    {
      "inputs": [
        {
          "internalType": "address",
          "name": "account",
          "type": "address"
        }
      ],
      "name": "OwnableUnauthorizedAccount",
      "type": "error"
    },
    {
      "inputs": [],
      "name": "ReentrancyGuardReentrantCall",
      "type": "error"
    },
    {
      "inputs": [
        {
          "internalType": "address",
          "name": "token",
          "type": "address"
        }
      ],
      "name": "SafeERC20FailedOperation",
      "type": "error"
    },
    {
      "anonymous": false,
      "inputs": [
        {
          "indexed": true,
          "internalType": "address",
          "name": "user",
          "type": "address"
        },
        {
          "indexed": true,
          "internalType": "uint256",
          "name": "positionId",
          "type": "uint256"
        },
        {
          "indexed": false,
          "internalType": "uint256",
          "name": "amount",
          "type": "uint256"
        }
      ],
      "name": "Claim",
      "type": "event"
    },
    {
      "anonymous": false,
      "inputs": [
        {
          "indexed": true,
          "internalType": "address",
          "name": "user",
          "type": "address"
        },
        {
          "indexed": false,
          "internalType": "uint256",
          "name": "totalAmount",
          "type": "uint256"
        }
      ],
      "name": "ClaimAll",
      "type": "event"
    },
    {
      "anonymous": false,
      "inputs": [
        {
          "indexed": true,
          "internalType": "address",
          "name": "owner",
          "type": "address"
        },
        {
          "indexed": false,
          "internalType": "uint256",
          "name": "amount",
          "type": "uint256"
        }
      ],
      "name": "OwnerWithdrawal",
      "type": "event"
    },
    {
      "anonymous": false,
      "inputs": [
        {
          "indexed": true,
          "internalType": "address",
          "name": "previousOwner",
          "type": "address"
        },
        {
          "indexed": true,
          "internalType": "address",
          "name": "newOwner",
          "type": "address"
        }
      ],
      "name": "OwnershipTransferred",
      "type": "event"
    },
    {
      "anonymous": false,
      "inputs": [
        {
          "indexed": false,
          "internalType": "address",
          "name": "account",
          "type": "address"
        }
      ],
      "name": "Paused",
      "type": "event"
    },
    {
      "anonymous": false,
      "inputs": [
        {
          "indexed": true,
          "internalType": "uint256",
          "name": "positionId",
          "type": "uint256"
        },
        {
          "indexed": true,
          "internalType": "address",
          "name": "user",
          "type": "address"
        },
        {
          "indexed": false,
          "internalType": "uint256",
          "name": "timestamp",
          "type": "uint256"
        }
      ],
      "name": "PositionCreated",
      "type": "event"
    },
    {
      "anonymous": false,
      "inputs": [
        {
          "indexed": true,
          "internalType": "uint256",
          "name": "positionId",
          "type": "uint256"
        },
        {
          "indexed": true,
          "internalType": "address",
          "name": "user",
          "type": "address"
        },
        {
          "indexed": false,
          "internalType": "uint256",
          "name": "finalBalance",
          "type": "uint256"
        }
      ],
      "name": "PositionExited",
      "type": "event"
    },
    {
      "anonymous": false,
      "inputs": [
        {
          "indexed": false,
          "internalType": "uint256",
          "name": "totalIn",
          "type": "uint256"
        },
        {
          "indexed": false,
          "internalType": "uint256",
          "name": "totalOut",
          "type": "uint256"
        },
        {
          "indexed": false,
          "internalType": "uint256",
          "name": "activeUsers",
          "type": "uint256"
        },
        {
          "indexed": false,
          "internalType": "uint256",
          "name": "timestamp",
          "type": "uint256"
        }
      ],
      "name": "Transparency",
      "type": "event"
    },
    {
      "anonymous": false,
      "inputs": [
        {
          "indexed": false,
          "internalType": "address",
          "name": "account",
          "type": "address"
        }
      ],
      "name": "Unpaused",
      "type": "event"
    },
    {
      "inputs": [],
      "name": "ADMIN_FEE",
      "outputs": [
        {
          "internalType": "uint256",
          "name": "",
          "type": "uint256"
        }
      ],
      "stateMutability": "view",
      "type": "function"
    },
    {
      "inputs": [],
      "name": "APORTE",
      "outputs": [
        {
          "internalType": "uint256",
          "name": "",
          "type": "uint256"
        }
      ],
      "stateMutability": "view",
      "type": "function"
    },
    {
      "inputs": [],
      "name": "EXIT_THRESHOLD",
      "outputs": [
        {
          "internalType": "uint256",
          "name": "",
          "type": "uint256"
        }
      ],
      "stateMutability": "view",
      "type": "function"
    },
    {
      "inputs": [],
      "name": "GLOBAL_PAYOUT",
      "outputs": [
        {
          "internalType": "uint256",
          "name": "",
          "type": "uint256"
        }
      ],
      "stateMutability": "view",
      "type": "function"
    },
    {
      "inputs": [],
      "name": "MAX_ACTIVOS",
      "outputs": [
        {
          "internalType": "uint256",
          "name": "",
          "type": "uint256"
        }
      ],
      "stateMutability": "view",
      "type": "function"
    },
    {
      "inputs": [],
      "name": "MIN_CLAIM",
      "outputs": [
        {
          "internalType": "uint256",
          "name": "",
          "type": "uint256"
        }
      ],
      "stateMutability": "view",
      "type": "function"
    },
    {
      "inputs": [],
      "name": "TURN_PAYOUT",
      "outputs": [
        {
          "internalType": "uint256",
          "name": "",
          "type": "uint256"
        }
      ],
      "stateMutability": "view",
      "type": "function"
    },
    {
      "inputs": [],
      "name": "accGlobalPerShare",
      "outputs": [
        {
          "internalType": "uint256",
          "name": "",
          "type": "uint256"
        }
      ],
      "stateMutability": "view",
      "type": "function"
    },
    {
      "inputs": [
        {
          "internalType": "uint256",
          "name": "",
          "type": "uint256"
        }
      ],
      "name": "activos",
      "outputs": [
        {
          "internalType": "uint256",
          "name": "",
          "type": "uint256"
        }
      ],
      "stateMutability": "view",
      "type": "function"
    },
    {
      "inputs": [
        {
          "internalType": "uint256",
          "name": "positionId",
          "type": "uint256"
        }
      ],
      "name": "claim",
      "outputs": [],
      "stateMutability": "nonpayable",
      "type": "function"
    },
    {
      "inputs": [],
      "name": "claimAll",
      "outputs": [],
      "stateMutability": "nonpayable",
      "type": "function"
    },
    {
      "inputs": [],
      "name": "getAdminBalance",
      "outputs": [
        {
          "internalType": "uint256",
          "name": "",
          "type": "uint256"
        }
      ],
      "stateMutability": "view",
      "type": "function"
    },
    {
      "inputs": [],
      "name": "getAvailableSlots",
      "outputs": [
        {
          "internalType": "uint256",
          "name": "",
          "type": "uint256"
        }
      ],
      "stateMutability": "view",
      "type": "function"
    },
    {
      "inputs": [],
      "name": "getGlobalActivosCount",
      "outputs": [
        {
          "internalType": "uint256",
          "name": "",
          "type": "uint256"
        }
      ],
      "stateMutability": "view",
      "type": "function"
    },
    {
      "inputs": [
        {
          "internalType": "uint256",
          "name": "positionId",
          "type": "uint256"
        }
      ],
      "name": "getPositionBalance",
      "outputs": [
        {
          "internalType": "uint256",
          "name": "",
          "type": "uint256"
        }
      ],
      "stateMutability": "view",
      "type": "function"
    },
    {
      "inputs": [
        {
          "internalType": "uint256",
          "name": "positionId",
          "type": "uint256"
        }
      ],
      "name": "getPositionInfo",
      "outputs": [
        {
          "internalType": "uint256",
          "name": "id",
          "type": "uint256"
        },
        {
          "internalType": "address",
          "name": "owner",
          "type": "address"
        },
        {
          "internalType": "bool",
          "name": "isActive",
          "type": "bool"
        },
        {
          "internalType": "bool",
          "name": "hasExited",
          "type": "bool"
        },
        {
          "internalType": "uint256",
          "name": "saldoTurno",
          "type": "uint256"
        },
        {
          "internalType": "uint256",
          "name": "saldoGlobal",
          "type": "uint256"
        },
        {
          "internalType": "uint256",
          "name": "timestamp",
          "type": "uint256"
        }
      ],
      "stateMutability": "view",
      "type": "function"
    },
    {
      "inputs": [],
      "name": "getSaldoTotal",
      "outputs": [
        {
          "internalType": "uint256",
          "name": "",
          "type": "uint256"
        }
      ],
      "stateMutability": "view",
      "type": "function"
    },
    {
      "inputs": [],
      "name": "getSystemHealth",
      "outputs": [
        {
          "internalType": "uint256",
          "name": "totalIn",
          "type": "uint256"
        },
        {
          "internalType": "uint256",
          "name": "totalOut",
          "type": "uint256"
        },
        {
          "internalType": "uint256",
          "name": "activeCount",
          "type": "uint256"
        },
        {
          "internalType": "uint256",
          "name": "completedCount",
          "type": "uint256"
        },
        {
          "internalType": "uint256",
          "name": "ratio",
          "type": "uint256"
        }
      ],
      "stateMutability": "view",
      "type": "function"
    },
    {
      "inputs": [
        {
          "internalType": "address",
          "name": "user",
          "type": "address"
        }
      ],
      "name": "getUserActivePositionsCount",
      "outputs": [
        {
          "internalType": "uint256",
          "name": "",
          "type": "uint256"
        }
      ],
      "stateMutability": "view",
      "type": "function"
    },
    {
      "inputs": [
        {
          "internalType": "address",
          "name": "user",
          "type": "address"
        }
      ],
      "name": "getUserPositions",
      "outputs": [
        {
          "internalType": "uint256[]",
          "name": "",
          "type": "uint256[]"
        }
      ],
      "stateMutability": "view",
      "type": "function"
    },
    {
      "inputs": [
        {
          "internalType": "address",
          "name": "user",
          "type": "address"
        }
      ],
      "name": "getUserTotalBalance",
      "outputs": [
        {
          "internalType": "uint256",
          "name": "",
          "type": "uint256"
        }
      ],
      "stateMutability": "view",
      "type": "function"
    },
    {
      "inputs": [],
      "name": "join",
      "outputs": [
        {
          "internalType": "uint256",
          "name": "",
          "type": "uint256"
        }
      ],
      "stateMutability": "nonpayable",
      "type": "function"
    },
    {
      "inputs": [],
      "name": "operationalBalance",
      "outputs": [
        {
          "internalType": "uint256",
          "name": "",
          "type": "uint256"
        }
      ],
      "stateMutability": "view",
      "type": "function"
    },
    {
      "inputs": [],
      "name": "owner",
      "outputs": [
        {
          "internalType": "address",
          "name": "",
          "type": "address"
        }
      ],
      "stateMutability": "view",
      "type": "function"
    },
    {
      "inputs": [
        {
          "internalType": "uint256",
          "name": "amount",
          "type": "uint256"
        }
      ],
      "name": "ownerWithdraw",
      "outputs": [],
      "stateMutability": "nonpayable",
      "type": "function"
    },
    {
      "inputs": [],
      "name": "pause",
      "outputs": [],
      "stateMutability": "nonpayable",
      "type": "function"
    },
    {
      "inputs": [],
      "name": "paused",
      "outputs": [
        {
          "internalType": "bool",
          "name": "",
          "type": "bool"
        }
      ],
      "stateMutability": "view",
      "type": "function"
    },
    {
      "inputs": [
        {
          "internalType": "address",
          "name": "",
          "type": "address"
        }
      ],
      "name": "pendingWithdrawals",
      "outputs": [
        {
          "internalType": "uint256",
          "name": "",
          "type": "uint256"
        }
      ],
      "stateMutability": "view",
      "type": "function"
    },
    {
      "inputs": [
        {
          "internalType": "uint256",
          "name": "",
          "type": "uint256"
        }
      ],
      "name": "positions",
      "outputs": [
        {
          "internalType": "uint256",
          "name": "positionId",
          "type": "uint256"
        },
        {
          "internalType": "address",
          "name": "owner",
          "type": "address"
        },
        {
          "internalType": "bool",
          "name": "isActive",
          "type": "bool"
        },
        {
          "internalType": "bool",
          "name": "hasExited",
          "type": "bool"
        },
        {
          "internalType": "uint256",
          "name": "saldoTurno",
          "type": "uint256"
        },
        {
          "internalType": "uint256",
          "name": "shares",
          "type": "uint256"
        },
        {
          "internalType": "uint256",
          "name": "rewardDebt",
          "type": "uint256"
        },
        {
          "internalType": "uint256",
          "name": "indexInActivos",
          "type": "uint256"
        },
        {
          "internalType": "uint256",
          "name": "timestamp",
          "type": "uint256"
        }
      ],
      "stateMutability": "view",
      "type": "function"
    },
    {
      "inputs": [],
      "name": "renounceOwnership",
      "outputs": [],
      "stateMutability": "nonpayable",
      "type": "function"
    },
    {
      "inputs": [],
      "name": "token",
      "outputs": [
        {
          "internalType": "contract IERC20",
          "name": "",
          "type": "address"
        }
      ],
      "stateMutability": "view",
      "type": "function"
    },
    {
      "inputs": [],
      "name": "totalCompletedCycles",
      "outputs": [
        {
          "internalType": "uint256",
          "name": "",
          "type": "uint256"
        }
      ],
      "stateMutability": "view",
      "type": "function"
    },
    {
      "inputs": [],
      "name": "totalDeposited",
      "outputs": [
        {
          "internalType": "uint256",
          "name": "",
          "type": "uint256"
        }
      ],
      "stateMutability": "view",
      "type": "function"
    },
    {
      "inputs": [],
      "name": "totalSaldosUsuarios",
      "outputs": [
        {
          "internalType": "uint256",
          "name": "",
          "type": "uint256"
        }
      ],
      "stateMutability": "view",
      "type": "function"
    },
    {
      "inputs": [],
      "name": "totalShares",
      "outputs": [
        {
          "internalType": "uint256",
          "name": "",
          "type": "uint256"
        }
      ],
      "stateMutability": "view",
      "type": "function"
    },
    {
      "inputs": [],
      "name": "totalWithdrawn",
      "outputs": [
        {
          "internalType": "uint256",
          "name": "",
          "type": "uint256"
        }
      ],
      "stateMutability": "view",
      "type": "function"
    },
    {
      "inputs": [
        {
          "internalType": "address",
          "name": "newOwner",
          "type": "address"
        }
      ],
      "name": "transferOwnership",
      "outputs": [],
      "stateMutability": "nonpayable",
      "type": "function"
    },
    {
      "inputs": [],
      "name": "turnoIndex",
      "outputs": [
        {
          "internalType": "uint256",
          "name": "",
          "type": "uint256"
        }
      ],
      "stateMutability": "view",
      "type": "function"
    },
    {
      "inputs": [],
      "name": "unpause",
      "outputs": [],
      "stateMutability": "nonpayable",
      "type": "function"
    },
    {
      "inputs": [
        {
          "internalType": "address",
          "name": "",
          "type": "address"
        },
        {
          "internalType": "uint256",
          "name": "",
          "type": "uint256"
        }
      ],
      "name": "userPositions",
      "outputs": [
        {
          "internalType": "uint256",
          "name": "",
          "type": "uint256"
        }
      ],
      "stateMutability": "view",
      "type": "function"
    }
  ],
  "bytecode": "0x60a06040523480156200001157600080fd5b506040516200216638038062002166833981016040819052620000349162000131565b600160005533806200006157604051631e4fbdf760e01b8152600060048201526024015b60405180910390fd5b6200006c81620000d7565b506001600160a01b038116620000c55760405162461bcd60e51b815260206004820152601560248201527f496e76616c696420746f6b656e20616464726573730000000000000000000000604482015260640162000058565b6001600160a01b031660805262000163565b600180546001600160a01b03838116610100818102610100600160a81b031985161790945560405193909204169182907f8be0079c531659141344cd1fd0a4f28419497f9722a3daafe3b4186f6b6457e090600090a35050565b6000602082840312156200014457600080fd5b81516001600160a01b03811681146200015c57600080fd5b9392505050565b608051611fc4620001a26000396000818161052d015281816106ab01528181610d4901528181611303015281816117b701526118960152611fc46000f3fe608060405234801561001057600080fd5b50600436106102485760003560e01c80637923076c1161013b578063d1058e59116100b8578063f3f437031161007c578063f3f43703146104f7578063f40ffcfb14610517578063f865216e1461051f578063fc0c546a14610528578063ff50abdc1461054f57600080fd5b8063d1058e59146104b8578063e94453e7146104c0578063eeee66be146104d3578063f2fde38b146104db578063f3e5d4b6146104ee57600080fd5b80639eed8ee2116100ff5780639eed8ee21461048c578063b688a36314610494578063b82a524f1461049c578063b9d18eae146104a5578063c0e7ea21146104ad57600080fd5b80637923076c146103da5780638456cb59146103ed5780638da5cb5b146103f557806399fbab881461041f5780639cdc80eb1461048457600080fd5b80633d5e1930116101c95780635c975abb1161018d5780635c975abb1461038c5780635cea728c146103a25780635e1b4d99146103b557806364068ef2146103c8578063715018a6146103d257600080fd5b80633d5e1930146103125780633f4ba83a146103255780634469ed14146102735780634b3197131461032d578063519f50991461033657600080fd5b806331a6be8c1161021057806331a6be8c146102a857806333f707d1146102d8578063377a7634146102ed578063379607f5146102f65780633a98ef391461030957600080fd5b80630a271da01461024d5780630ead5d451461026a5780631cd2a05d146102735780631f4ff0971461027d5780632a6bc2dd14610288575b600080fd5b6102576289544081565b6040519081526020015b60405180910390f35b61025760065481565b610257620f424081565b6102576302625a0081565b61029b610296366004611dea565b610558565b6040516102619190611e0c565b6102b06105c4565b604080519586526020860194909452928401919091526060830152608082015260a001610261565b6102eb6102e6366004611e50565b610617565b005b610257600d5481565b6102eb610304366004611e50565b610732565b610257600a5481565b610257610320366004611e50565b610a02565b6102eb610a23565b610257600c5481565b610349610344366004611e50565b610a35565b604080519788526001600160a01b039096166020880152931515948601949094529015156060850152608084015260a083019190915260c082015260e001610261565b60015460ff166040519015158152602001610261565b6102576103b0366004611e50565b610ab8565b6102576103c3366004611e69565b610b03565b6102576298968081565b6102eb610b34565b6102576103e8366004611dea565b610b46565b6102eb610c69565b60015461010090046001600160a01b03165b6040516001600160a01b039091168152602001610261565b61043261042d366004611e50565b610c79565b60408051998a526001600160a01b0390981660208a0152951515968801969096529215156060870152608086019190915260a085015260c084015260e083019190915261010082015261012001610261565b600454610257565b610257606481565b610257610ce1565b61025760055481565b61025761105e565b6102576301312d0081565b6102eb611084565b6102576104ce366004611dea565b61136c565b600654610257565b6102eb6104e9366004611dea565b61146b565b61025760095481565b610257610505366004611dea565b60086020526000908152604090205481565b600754610257565b61025760075481565b6104077f000000000000000000000000000000000000000000000000000000000000000081565b610257600b5481565b6001600160a01b0381166000908152600360209081526040918290208054835181840281018401909452808452606093928301828280156105b857602002820191906000526020600020905b8154815260200190600101908083116105a4575b50505050509050919050565b6000806000806000806000600b54116105de5760006105f9565b600b54600c546105ef906064611ea9565b6105f99190611ec6565b600b54600c54600454600d54929a9199509750909550909350915050565b61061f6114a6565b6106276114d9565b6007548111156106755760405162461bcd60e51b8152602060048201526014602482015273496e73756666696369656e742062616c616e636560601b60448201526064015b60405180910390fd5b80600760008282546106879190611ee8565b90915550506001546106d29061010090046001600160a01b03166001600160a01b037f0000000000000000000000000000000000000000000000000000000000000000169083611503565b60015461010090046001600160a01b03166001600160a01b03167fa919fadcfa556a012bab31b15f596ea7ccd397adbf10e15f176db9055ab361c48260405161071d91815260200190565b60405180910390a261072f6001600055565b50565b61073a6114d9565b60006002828154811061074f5761074f611efb565b600091825260209091206001600790920201908101549091506001600160a01b031633146107ab5760405162461bcd60e51b81526020600482015260096024820152682737ba1037bbb732b960b91b604482015260640161066c565b6001810154600160a01b900460ff16806107d057506001810154600160a81b900460ff165b61080c5760405162461bcd60e51b815260206004820152600d60248201526c496e76616c696420737461746560981b604482015260640161066c565b6001810154600090600160a81b900460ff161561088957506002810154620f424081101561086e5760405162461bcd60e51b815260206004820152600f60248201526e105b1c9958591e4818db185a5b5959608a1b604482015260640161066c565b6000600283015560018201805460ff60a01b191690556109b5565b61089283611567565b156108e057506002810154620f424081101561086e5760405162461bcd60e51b815260206004820152600d60248201526c42656c6f77206d696e696d756d60981b604482015260640161066c565b60006108eb846116c9565b90508083600201546108fd9190611f11565b9150620f42408210156109425760405162461bcd60e51b815260206004820152600d60248201526c42656c6f77206d696e696d756d60981b604482015260640161066c565b60006002840155600954600384015464e8d4a510009161096191611ea9565b61096b9190611ec6565b6004840155600654821161099657816006600082825461098b9190611ee8565b9091555061099c9050565b60006006555b81600c60008282546109ae9190611f11565b9091555050505b6109bf3382611758565b604051818152839033907f34fcbac0073d7c3d388e51312faf357774904998eeb8fca628b9e6f65ee1cbf79060200160405180910390a3505061072f6001600055565b60048181548110610a1257600080fd5b600091825260209091200154905081565b610a2b6114a6565b610a3361196a565b565b60008060008060008060008060028981548110610a5457610a54611efb565b906000526020600020906007020190506000610a6f8a6116c9565b825460018401546002850154600690950154919d6001600160a01b0382169d5060ff600160a01b830481169d50600160a81b9092049091169a5093985090965094509092505050565b60008060028381548110610ace57610ace611efb565b906000526020600020906007020190506000610ae9846116c9565b9050808260020154610afb9190611f11565b949350505050565b60036020528160005260406000208181548110610b1f57600080fd5b90600052602060002001600091509150505481565b610b3c6114a6565b610a3360006119bc565b6001600160a01b038116600090815260036020908152604080832080548251818502810185019093528083528493830182828015610ba357602002820191906000526020600020905b815481526020019060010190808311610b8f575b505050505090506000805b8251811015610c61576000838281518110610bcb57610bcb611efb565b60200260200101519050600060028281548110610bea57610bea611efb565b906000526020600020906007020190508060010160149054906101000a900460ff1680610c3157506001810154600160a81b900460ff168015610c31575060008160020154115b15610c4c57610c3f82610ab8565b610c499085611f11565b93505b50508080610c5990611f24565b915050610bae565b509392505050565b610c716114a6565b610a33611a16565b60028181548110610c8957600080fd5b600091825260209091206007909102018054600182015460028301546003840154600485015460058601546006909601549496506001600160a01b0384169560ff600160a01b8604811696600160a81b909604169489565b6000610ceb6114d9565b610cf3611a51565b600454606411610d3c5760405162461bcd60e51b815260206004820152601460248201527313585e0818d85c1858da5d1e481c995858da195960621b604482015260640161066c565b610d756001600160a01b037f00000000000000000000000000000000000000000000000000000000000000001633306301312d00611a75565b6301312d00600b6000828254610d8b9190611f11565b92505081905550600060028054905090506000604051806101200160405280838152602001336001600160a01b03168152602001600115158152602001600015158152602001600081526020016001815260200160008152602001600480549050815260200142815250905060028190806001815401808255809150506001900390600052602060002090600702016000909190919091506000820151816000015560208201518160010160006101000a8154816001600160a01b0302191690836001600160a01b0316021790555060408201518160010160146101000a81548160ff02191690831515021790555060608201518160010160156101000a81548160ff0219169083151502179055506080820151816002015560a0820151816003015560c0820151816004015560e082015181600501556101008201518160060155505060036000336001600160a01b03166001600160a01b031681526020019081526020016000208290806001815401808255809150506001900390600052602060002001600090919091909150556004829080600181540180825580915050600190039060005260206000200160009091909190915055620f424060076000828254610f599190611f11565b909155505060095460a082015164e8d4a5100091610f7691611ea9565b610f809190611ec6565b60028381548110610f9357610f93611efb565b9060005260206000209060070201600401819055506001600a6000828254610fbb9190611f11565b90915550610fca905082611ab4565b604051428152339083907f82d928ce453d1bf77c3191f06403b4440091103a3dcb9515160c8d1e2d3f76639060200160405180910390a3600b54600c5460045460408051938452602084019290925282820152426060830152517fda351d38fd22f56fdb2f3bf8a9153f6c5f3a4d28407f624db254233fae11a1b29181900360800190a150905061105b6001600055565b90565b6004546000906064116110715750600090565b60045461107f906064611ee8565b905090565b61108c6114d9565b336000908152600360209081526040808320805482518185028101850190935280835291929091908301828280156110e357602002820191906000526020600020905b8154815260200190600101908083116110cf575b50505050509050600081511161112a5760405162461bcd60e51b815260206004820152600c60248201526b4e6f20706f736974696f6e7360a01b604482015260640161066c565b6000805b82518110156112ab57600083828151811061114b5761114b611efb565b6020026020010151905060006002828154811061116a5761116a611efb565b906000526020600020906007020190508060010160159054906101000a900460ff16156111cc57620f42408160020154106111c75760028101546111ae9085611f11565b6000600283015560018201805460ff60a01b1916905593505b611296565b6001810154600160a01b900460ff1615611296576111e982611567565b1561122b57620f424081600201541061122457600281015461120b9085611f11565b6000600283015560018201805460ff60a01b1916905593505b5050611299565b6000611236836116c9565b9050600081836002015461124a9190611f11565b9050620f42408110611293576112608187611f11565b60006002850155600954600385015491975064e8d4a51000916112839190611ea9565b61128d9190611ec6565b60048401555b50505b50505b806112a381611f24565b91505061112e565b5080156113605780600654106112d85780600660008282546112cd9190611ee8565b909155506112de9050565b60006006555b80600c60008282546112f09190611f11565b9091555061132a90506001600160a01b037f0000000000000000000000000000000000000000000000000000000000000000163383611503565b60405181815233907f87c8f5d0edc1925e2c5f0557944a55a97424c9ded0e2ac25a5515137603c9ad39060200160405180910390a25b5050610a336001600055565b6001600160a01b0381166000908152600360209081526040808320805482518185028101850190935280835284938301828280156113c957602002820191906000526020600020905b8154815260200190600101908083116113b5575b505050505090506000805b8251811015610c6157600060028483815181106113f3576113f3611efb565b60200260200101518154811061140b5761140b611efb565b906000526020600020906007020190508060010160149054906101000a900460ff16801561144557506001810154600160a81b900460ff16155b15611458578261145481611f24565b9350505b508061146381611f24565b9150506113d4565b6114736114a6565b6001600160a01b03811661149d57604051631e4fbdf760e01b81526000600482015260240161066c565b61072f816119bc565b6001546001600160a01b03610100909104163314610a335760405163118cdaa760e01b815233600482015260240161066c565b6002600054036114fc57604051633ee5aeb560e01b815260040160405180910390fd5b6002600055565b6040516001600160a01b0383811660248301526044820183905261156291859182169063a9059cbb906064015b604051602081830303815290604052915060e01b6020820180516001600160e01b038381831617835250505050611ba8565b505050565b6000806002838154811061157d5761157d611efb565b906000526020600020906007020190508060010160149054906101000a900460ff1615806115b657506001810154600160a81b900460ff165b156115c45750600092915050565b60006115cf846116c9565b905060008183600201546115e39190611f11565b90506302625a0081106116be5764e8d4a5100060095484600301546116089190611ea9565b6116129190611ec6565b60048401556002830181905560018301805460ff60a81b1916600160a81b179055600d805490600061164383611f24565b919050555080600c600082825461165a9190611f11565b9091555050600583015461166d90611c19565b60018301546040518281526001600160a01b039091169086907fdc5dfd8b5a3510c82d567eaa51cb34f6ca27bac4d4fcf43dffe13527cf178f969060200160405180910390a3506001949350505050565b506000949350505050565b600080600283815481106116df576116df611efb565b906000526020600020906007020190508060010160149054906101000a900460ff1661170e5750600092915050565b600064e8d4a5100060095483600301546117289190611ea9565b6117329190611ec6565b905081600401548111611749575060009392505050565b6004820154610afb9082611ee8565b600081116117965760405162461bcd60e51b815260206004820152600b60248201526a16995c9bc8185b5bdd5b9d60aa1b604482015260640161066c565b804710158061182d57506040516370a0823160e01b815230600482015281907f00000000000000000000000000000000000000000000000000000000000000006001600160a01b0316906370a0823190602401602060405180830381865afa158015611806573d6000803e3d6000fd5b505050506040513d601f19601f8201168201806040525081019061182a9190611f3d565b10155b6118705760405162461bcd60e51b8152602060048201526014602482015273496e73756666696369656e742062616c616e636560601b604482015260640161066c565b60405163a9059cbb60e01b81526001600160a01b038381166004830152602482018390527f0000000000000000000000000000000000000000000000000000000000000000169063a9059cbb906044016020604051808303816000875af19250505080156118fb575060408051601f3d908101601f191682019092526118f891810190611f56565b60015b611932576001600160a01b03821660009081526008602052604081208054839290611927908490611f11565b909155506119669050565b80611562576001600160a01b0383166000908152600860205260408120805484929061195f908490611f11565b9091555050505b5050565b611972611dab565b6001805460ff191690557f5db9ee0a495bf2e6ff9c91a7834c1ba4fdd244a5e8aa4e537bd38aeae4b073aa335b6040516001600160a01b03909116815260200160405180910390a1565b600180546001600160a01b03838116610100818102610100600160a81b031985161790945560405193909204169182907f8be0079c531659141344cd1fd0a4f28419497f9722a3daafe3b4186f6b6457e090600090a35050565b611a1e611a51565b6001805460ff1916811790557f62e78cea01bee320cd4e420270b5ea74000d11b0c9f74754ebdbfc544b05a2583361199f565b60015460ff1615610a335760405163d93c066560e01b815260040160405180910390fd5b6040516001600160a01b038481166024830152838116604483015260648201839052611aae9186918216906323b872dd90608401611530565b50505050565b6004548015611b4b5760006004600081548110611ad357611ad3611efb565b90600052602060002001549050600060028281548110611af557611af5611efb565b9060005260206000209060070201905062989680816002016000828254611b1c9190611f11565b925050819055506298968060066000828254611b389190611f11565b90915550611b47905082611567565b5050505b600a541561196657600a54611b686289544064e8d4a51000611ea9565b611b729190611ec6565b60096000828254611b839190611f11565b925050819055506289544060066000828254611b9f9190611f11565b90915550505050565b600080602060008451602086016000885af180611bcb576040513d6000823e3d81fd5b50506000513d91508115611be3578060011415611bf0565b6001600160a01b0384163b155b15611aae57604051635274afe760e01b81526001600160a01b038516600482015260240161066c565b600454611c5e5760405162461bcd60e51b81526020600482015260136024820152724e6f2061637469766520706f736974696f6e7360681b604482015260640161066c565b6004548110611c9f5760405162461bcd60e51b815260206004820152600d60248201526c092dcecc2d8d2c840d2dcc8caf609b1b604482015260640161066c565b805b600454611cb090600190611ee8565b811015611d57576004611cc4826001611f11565b81548110611cd457611cd4611efb565b906000526020600020015460048281548110611cf257611cf2611efb565b906000526020600020018190555080600260048381548110611d1657611d16611efb565b906000526020600020015481548110611d3157611d31611efb565b600091825260209091206005600790920201015580611d4f81611f24565b915050611ca1565b506004805480611d6957611d69611f78565b600190038181906000526020600020016000905590556000600a541115611da3576001600a6000828254611d9d9190611ee8565b90915550505b506000600555565b60015460ff16610a3357604051638dfc202b60e01b815260040160405180910390fd5b80356001600160a01b0381168114611de557600080fd5b919050565b600060208284031215611dfc57600080fd5b611e0582611dce565b9392505050565b6020808252825182820181905260009190848201906040850190845b81811015611e4457835183529284019291840191600101611e28565b50909695505050505050565b600060208284031215611e6257600080fd5b5035919050565b60008060408385031215611e7c57600080fd5b611e8583611dce565b946020939093013593505050565b634e487b7160e01b600052601160045260246000fd5b8082028115828204841417611ec057611ec0611e93565b92915050565b600082611ee357634e487b7160e01b600052601260045260246000fd5b500490565b81810381811115611ec057611ec0611e93565b634e487b7160e01b600052603260045260246000fd5b80820180821115611ec057611ec0611e93565b600060018201611f3657611f36611e93565b5060010190565b600060208284031215611f4f57600080fd5b5051919050565b600060208284031215611f6857600080fd5b81518015158114611e0557600080fd5b634e487b7160e01b600052603160045260246000fdfea2646970667358221220aac5d8775451caef8d169303a91e11e2d8c0219cdf481b39fc8faf1b82e5c56864736f6c63430008140033",
  "linkReferences": {},
  "deployedLinkReferences": {}
}