{
  "_format": "hh-sol-artifact-1",
  "contractName": "SanDigital2026",
  "sourceName": "contracts/SanDigital2026.sol",
  "abi": [
    {
      "inputs": [
        {
          "internalType": "address",
          "name": "_token",
          "type": "address"
        }
      ],
      "stateMutability": "nonpayable",
      "type": "constructor"
    },
    {
      "inputs": [],
      "name": "EnforcedPause",
      "type": "error"
    },
    {
      "inputs": [],
      "name": "ExpectedPause",
      "type": "error"
    },
    {
      "inputs": [
        {
          "internalType": "address",
          "name": "owner",
          "type": "address"
        }
      ],
      "name": "OwnableInvalidOwner",
      "type": "error"
    },
    {
      "inputs": [
        {
          "internalType": "address",
          "name": "account",
          "type": "address"
        }
      ],
      "name": "OwnableUnauthorizedAccount",
      "type": "error"
    },
    {
      "inputs": [],
      "name": "ReentrancyGuardReentrantCall",
      "type": "error"
    },
    {
      "inputs": [
        {
          "internalType": "address",
          "name": "token",
          "type": "address"
        }
      ],
      "name": "SafeERC20FailedOperation",
      "type": "error"
    },
    {
      "anonymous": false,
      "inputs": [
        {
          "indexed": true,
          "internalType": "address",
          "name": "user",
          "type": "address"
        },
        {
          "indexed": true,
          "internalType": "uint256",
          "name": "positionId",
          "type": "uint256"
        },
        {
          "indexed": false,
          "internalType": "uint256",
          "name": "amount",
          "type": "uint256"
        }
      ],
      "name": "Claim",
      "type": "event"
    },
    {
      "anonymous": false,
      "inputs": [
        {
          "indexed": true,
          "internalType": "address",
          "name": "user",
          "type": "address"
        },
        {
          "indexed": false,
          "internalType": "uint256",
          "name": "totalAmount",
          "type": "uint256"
        }
      ],
      "name": "ClaimAll",
      "type": "event"
    },
    {
      "anonymous": false,
      "inputs": [
        {
          "indexed": true,
          "internalType": "address",
          "name": "owner",
          "type": "address"
        },
        {
          "indexed": false,
          "internalType": "uint256",
          "name": "amount",
          "type": "uint256"
        }
      ],
      "name": "OwnerWithdrawal",
      "type": "event"
    },
    {
      "anonymous": false,
      "inputs": [
        {
          "indexed": true,
          "internalType": "address",
          "name": "previousOwner",
          "type": "address"
        },
        {
          "indexed": true,
          "internalType": "address",
          "name": "newOwner",
          "type": "address"
        }
      ],
      "name": "OwnershipTransferred",
      "type": "event"
    },
    {
      "anonymous": false,
      "inputs": [
        {
          "indexed": true,
          "internalType": "address",
          "name": "user",
          "type": "address"
        },
        {
          "indexed": false,
          "internalType": "uint256",
          "name": "processed",
          "type": "uint256"
        },
        {
          "indexed": false,
          "internalType": "uint256",
          "name": "total",
          "type": "uint256"
        }
      ],
      "name": "PartialClaim",
      "type": "event"
    },
    {
      "anonymous": false,
      "inputs": [
        {
          "indexed": false,
          "internalType": "address",
          "name": "account",
          "type": "address"
        }
      ],
      "name": "Paused",
      "type": "event"
    },
    {
      "anonymous": false,
      "inputs": [
        {
          "indexed": true,
          "internalType": "address",
          "name": "user",
          "type": "address"
        },
        {
          "indexed": false,
          "internalType": "uint256",
          "name": "amount",
          "type": "uint256"
        }
      ],
      "name": "PendingClaimed",
      "type": "event"
    },
    {
      "anonymous": false,
      "inputs": [
        {
          "indexed": true,
          "internalType": "uint256",
          "name": "positionId",
          "type": "uint256"
        },
        {
          "indexed": true,
          "internalType": "address",
          "name": "user",
          "type": "address"
        },
        {
          "indexed": false,
          "internalType": "uint256",
          "name": "timestamp",
          "type": "uint256"
        }
      ],
      "name": "PositionCreated",
      "type": "event"
    },
    {
      "anonymous": false,
      "inputs": [
        {
          "indexed": true,
          "internalType": "uint256",
          "name": "positionId",
          "type": "uint256"
        },
        {
          "indexed": true,
          "internalType": "address",
          "name": "user",
          "type": "address"
        },
        {
          "indexed": false,
          "internalType": "uint256",
          "name": "finalBalance",
          "type": "uint256"
        }
      ],
      "name": "PositionExited",
      "type": "event"
    },
    {
      "anonymous": false,
      "inputs": [
        {
          "indexed": false,
          "internalType": "uint256",
          "name": "totalIn",
          "type": "uint256"
        },
        {
          "indexed": false,
          "internalType": "uint256",
          "name": "totalOut",
          "type": "uint256"
        },
        {
          "indexed": false,
          "internalType": "uint256",
          "name": "activeUsers",
          "type": "uint256"
        },
        {
          "indexed": false,
          "internalType": "uint256",
          "name": "timestamp",
          "type": "uint256"
        }
      ],
      "name": "Transparency",
      "type": "event"
    },
    {
      "anonymous": false,
      "inputs": [
        {
          "indexed": false,
          "internalType": "address",
          "name": "account",
          "type": "address"
        }
      ],
      "name": "Unpaused",
      "type": "event"
    },
    {
      "inputs": [],
      "name": "ADMIN_FEE",
      "outputs": [
        {
          "internalType": "uint256",
          "name": "",
          "type": "uint256"
        }
      ],
      "stateMutability": "view",
      "type": "function"
    },
    {
      "inputs": [],
      "name": "APORTE",
      "outputs": [
        {
          "internalType": "uint256",
          "name": "",
          "type": "uint256"
        }
      ],
      "stateMutability": "view",
      "type": "function"
    },
    {
      "inputs": [],
      "name": "EXIT_THRESHOLD",
      "outputs": [
        {
          "internalType": "uint256",
          "name": "",
          "type": "uint256"
        }
      ],
      "stateMutability": "view",
      "type": "function"
    },
    {
      "inputs": [],
      "name": "GLOBAL_PAYOUT",
      "outputs": [
        {
          "internalType": "uint256",
          "name": "",
          "type": "uint256"
        }
      ],
      "stateMutability": "view",
      "type": "function"
    },
    {
      "inputs": [],
      "name": "MAX_ACTIVOS",
      "outputs": [
        {
          "internalType": "uint256",
          "name": "",
          "type": "uint256"
        }
      ],
      "stateMutability": "view",
      "type": "function"
    },
    {
      "inputs": [],
      "name": "MIN_CLAIM",
      "outputs": [
        {
          "internalType": "uint256",
          "name": "",
          "type": "uint256"
        }
      ],
      "stateMutability": "view",
      "type": "function"
    },
    {
      "inputs": [],
      "name": "TURN_PAYOUT",
      "outputs": [
        {
          "internalType": "uint256",
          "name": "",
          "type": "uint256"
        }
      ],
      "stateMutability": "view",
      "type": "function"
    },
    {
      "inputs": [],
      "name": "accGlobalPerShare",
      "outputs": [
        {
          "internalType": "uint256",
          "name": "",
          "type": "uint256"
        }
      ],
      "stateMutability": "view",
      "type": "function"
    },
    {
      "inputs": [
        {
          "internalType": "uint256",
          "name": "",
          "type": "uint256"
        }
      ],
      "name": "activos",
      "outputs": [
        {
          "internalType": "uint256",
          "name": "",
          "type": "uint256"
        }
      ],
      "stateMutability": "view",
      "type": "function"
    },
    {
      "inputs": [
        {
          "internalType": "uint256",
          "name": "positionId",
          "type": "uint256"
        }
      ],
      "name": "claim",
      "outputs": [],
      "stateMutability": "nonpayable",
      "type": "function"
    },
    {
      "inputs": [],
      "name": "claimAll",
      "outputs": [],
      "stateMutability": "nonpayable",
      "type": "function"
    },
    {
      "inputs": [],
      "name": "claimPending",
      "outputs": [],
      "stateMutability": "nonpayable",
      "type": "function"
    },
    {
      "inputs": [
        {
          "internalType": "uint256",
          "name": "startIndex",
          "type": "uint256"
        },
        {
          "internalType": "uint256",
          "name": "endIndex",
          "type": "uint256"
        }
      ],
      "name": "claimRange",
      "outputs": [],
      "stateMutability": "nonpayable",
      "type": "function"
    },
    {
      "inputs": [],
      "name": "getAdminBalance",
      "outputs": [
        {
          "internalType": "uint256",
          "name": "",
          "type": "uint256"
        }
      ],
      "stateMutability": "view",
      "type": "function"
    },
    {
      "inputs": [],
      "name": "getAvailableSlots",
      "outputs": [
        {
          "internalType": "uint256",
          "name": "",
          "type": "uint256"
        }
      ],
      "stateMutability": "view",
      "type": "function"
    },
    {
      "inputs": [],
      "name": "getGlobalActivosCount",
      "outputs": [
        {
          "internalType": "uint256",
          "name": "",
          "type": "uint256"
        }
      ],
      "stateMutability": "view",
      "type": "function"
    },
    {
      "inputs": [
        {
          "internalType": "uint256",
          "name": "positionId",
          "type": "uint256"
        }
      ],
      "name": "getPositionBalance",
      "outputs": [
        {
          "internalType": "uint256",
          "name": "",
          "type": "uint256"
        }
      ],
      "stateMutability": "view",
      "type": "function"
    },
    {
      "inputs": [
        {
          "internalType": "uint256",
          "name": "positionId",
          "type": "uint256"
        }
      ],
      "name": "getPositionInfo",
      "outputs": [
        {
          "internalType": "uint256",
          "name": "id",
          "type": "uint256"
        },
        {
          "internalType": "address",
          "name": "owner",
          "type": "address"
        },
        {
          "internalType": "bool",
          "name": "isActive",
          "type": "bool"
        },
        {
          "internalType": "bool",
          "name": "hasExited",
          "type": "bool"
        },
        {
          "internalType": "uint256",
          "name": "saldoTurno",
          "type": "uint256"
        },
        {
          "internalType": "uint256",
          "name": "saldoGlobal",
          "type": "uint256"
        },
        {
          "internalType": "uint256",
          "name": "timestamp",
          "type": "uint256"
        }
      ],
      "stateMutability": "view",
      "type": "function"
    },
    {
      "inputs": [],
      "name": "getSaldoTotal",
      "outputs": [
        {
          "internalType": "uint256",
          "name": "",
          "type": "uint256"
        }
      ],
      "stateMutability": "view",
      "type": "function"
    },
    {
      "inputs": [],
      "name": "getSystemHealth",
      "outputs": [
        {
          "internalType": "uint256",
          "name": "totalIn",
          "type": "uint256"
        },
        {
          "internalType": "uint256",
          "name": "totalOut",
          "type": "uint256"
        },
        {
          "internalType": "uint256",
          "name": "activeCount",
          "type": "uint256"
        },
        {
          "internalType": "uint256",
          "name": "completedCount",
          "type": "uint256"
        },
        {
          "internalType": "uint256",
          "name": "ratio",
          "type": "uint256"
        }
      ],
      "stateMutability": "view",
      "type": "function"
    },
    {
      "inputs": [
        {
          "internalType": "address",
          "name": "user",
          "type": "address"
        }
      ],
      "name": "getUserActivePositionsCount",
      "outputs": [
        {
          "internalType": "uint256",
          "name": "",
          "type": "uint256"
        }
      ],
      "stateMutability": "view",
      "type": "function"
    },
    {
      "inputs": [
        {
          "internalType": "address",
          "name": "user",
          "type": "address"
        }
      ],
      "name": "getUserClosedPositionsCount",
      "outputs": [
        {
          "internalType": "uint256",
          "name": "",
          "type": "uint256"
        }
      ],
      "stateMutability": "view",
      "type": "function"
    },
    {
      "inputs": [
        {
          "internalType": "address",
          "name": "user",
          "type": "address"
        }
      ],
      "name": "getUserPositions",
      "outputs": [
        {
          "internalType": "uint256[]",
          "name": "",
          "type": "uint256[]"
        }
      ],
      "stateMutability": "view",
      "type": "function"
    },
    {
      "inputs": [
        {
          "internalType": "address",
          "name": "user",
          "type": "address"
        }
      ],
      "name": "getUserTotalBalance",
      "outputs": [
        {
          "internalType": "uint256",
          "name": "",
          "type": "uint256"
        }
      ],
      "stateMutability": "view",
      "type": "function"
    },
    {
      "inputs": [],
      "name": "globalReserve",
      "outputs": [
        {
          "internalType": "uint256",
          "name": "",
          "type": "uint256"
        }
      ],
      "stateMutability": "view",
      "type": "function"
    },
    {
      "inputs": [],
      "name": "join",
      "outputs": [
        {
          "internalType": "uint256",
          "name": "",
          "type": "uint256"
        }
      ],
      "stateMutability": "nonpayable",
      "type": "function"
    },
    {
      "inputs": [],
      "name": "operationalBalance",
      "outputs": [
        {
          "internalType": "uint256",
          "name": "",
          "type": "uint256"
        }
      ],
      "stateMutability": "view",
      "type": "function"
    },
    {
      "inputs": [],
      "name": "owner",
      "outputs": [
        {
          "internalType": "address",
          "name": "",
          "type": "address"
        }
      ],
      "stateMutability": "view",
      "type": "function"
    },
    {
      "inputs": [
        {
          "internalType": "uint256",
          "name": "amount",
          "type": "uint256"
        }
      ],
      "name": "ownerWithdraw",
      "outputs": [],
      "stateMutability": "nonpayable",
      "type": "function"
    },
    {
      "inputs": [],
      "name": "pause",
      "outputs": [],
      "stateMutability": "nonpayable",
      "type": "function"
    },
    {
      "inputs": [],
      "name": "paused",
      "outputs": [
        {
          "internalType": "bool",
          "name": "",
          "type": "bool"
        }
      ],
      "stateMutability": "view",
      "type": "function"
    },
    {
      "inputs": [
        {
          "internalType": "address",
          "name": "",
          "type": "address"
        }
      ],
      "name": "pendingWithdrawals",
      "outputs": [
        {
          "internalType": "uint256",
          "name": "",
          "type": "uint256"
        }
      ],
      "stateMutability": "view",
      "type": "function"
    },
    {
      "inputs": [
        {
          "internalType": "uint256",
          "name": "",
          "type": "uint256"
        }
      ],
      "name": "positions",
      "outputs": [
        {
          "internalType": "uint256",
          "name": "positionId",
          "type": "uint256"
        },
        {
          "internalType": "address",
          "name": "owner",
          "type": "address"
        },
        {
          "internalType": "bool",
          "name": "isActive",
          "type": "bool"
        },
        {
          "internalType": "bool",
          "name": "hasExited",
          "type": "bool"
        },
        {
          "internalType": "uint256",
          "name": "saldoTurno",
          "type": "uint256"
        },
        {
          "internalType": "uint256",
          "name": "shares",
          "type": "uint256"
        },
        {
          "internalType": "uint256",
          "name": "rewardDebt",
          "type": "uint256"
        },
        {
          "internalType": "uint256",
          "name": "indexInActivos",
          "type": "uint256"
        },
        {
          "internalType": "uint256",
          "name": "timestamp",
          "type": "uint256"
        }
      ],
      "stateMutability": "view",
      "type": "function"
    },
    {
      "inputs": [],
      "name": "renounceOwnership",
      "outputs": [],
      "stateMutability": "nonpayable",
      "type": "function"
    },
    {
      "inputs": [],
      "name": "token",
      "outputs": [
        {
          "internalType": "contract IERC20",
          "name": "",
          "type": "address"
        }
      ],
      "stateMutability": "view",
      "type": "function"
    },
    {
      "inputs": [],
      "name": "totalCompletedCycles",
      "outputs": [
        {
          "internalType": "uint256",
          "name": "",
          "type": "uint256"
        }
      ],
      "stateMutability": "view",
      "type": "function"
    },
    {
      "inputs": [],
      "name": "totalDeposited",
      "outputs": [
        {
          "internalType": "uint256",
          "name": "",
          "type": "uint256"
        }
      ],
      "stateMutability": "view",
      "type": "function"
    },
    {
      "inputs": [],
      "name": "totalSaldosUsuarios",
      "outputs": [
        {
          "internalType": "uint256",
          "name": "",
          "type": "uint256"
        }
      ],
      "stateMutability": "view",
      "type": "function"
    },
    {
      "inputs": [],
      "name": "totalShares",
      "outputs": [
        {
          "internalType": "uint256",
          "name": "",
          "type": "uint256"
        }
      ],
      "stateMutability": "view",
      "type": "function"
    },
    {
      "inputs": [],
      "name": "totalWithdrawn",
      "outputs": [
        {
          "internalType": "uint256",
          "name": "",
          "type": "uint256"
        }
      ],
      "stateMutability": "view",
      "type": "function"
    },
    {
      "inputs": [
        {
          "internalType": "address",
          "name": "newOwner",
          "type": "address"
        }
      ],
      "name": "transferOwnership",
      "outputs": [],
      "stateMutability": "nonpayable",
      "type": "function"
    },
    {
      "inputs": [],
      "name": "turnoIndex",
      "outputs": [
        {
          "internalType": "uint256",
          "name": "",
          "type": "uint256"
        }
      ],
      "stateMutability": "view",
      "type": "function"
    },
    {
      "inputs": [],
      "name": "unpause",
      "outputs": [],
      "stateMutability": "nonpayable",
      "type": "function"
    },
    {
      "inputs": [
        {
          "internalType": "address",
          "name": "",
          "type": "address"
        },
        {
          "internalType": "uint256",
          "name": "",
          "type": "uint256"
        }
      ],
      "name": "userPositions",
      "outputs": [
        {
          "internalType": "uint256",
          "name": "",
          "type": "uint256"
        }
      ],
      "stateMutability": "view",
      "type": "function"
    }
  ],
  "bytecode": "0x60a06040523480156200001157600080fd5b506040516200288b3803806200288b833981016040819052620000349162000131565b600160005533806200006157604051631e4fbdf760e01b8152600060048201526024015b60405180910390fd5b6200006c81620000d7565b506001600160a01b038116620000c55760405162461bcd60e51b815260206004820152601560248201527f496e76616c696420746f6b656e20616464726573730000000000000000000000604482015260640162000058565b6001600160a01b031660805262000163565b600180546001600160a01b03838116610100818102610100600160a81b031985161790945560405193909204169182907f8be0079c531659141344cd1fd0a4f28419497f9722a3daafe3b4186f6b6457e090600090a35050565b6000602082840312156200014457600080fd5b81516001600160a01b03811681146200015c57600080fd5b9392505050565b6080516126db620001b0600039600081816105900152818161062e015281816107ed01528181610f63015281816115ee015281816118f601528181611d620152611e4101526126db6000f3fe608060405234801561001057600080fd5b50600436106102745760003560e01c80637923076c11610151578063c2365893116100c3578063f3e5d4b611610087578063f3e5d4b614610551578063f3f437031461055a578063f40ffcfb1461057a578063f865216e14610582578063fc0c546a1461058b578063ff50abdc146105b257600080fd5b8063c236589314610508578063d1058e591461051b578063e94453e714610523578063eeee66be14610536578063f2fde38b1461053e57600080fd5b80639cdc80eb116101155780639cdc80eb146104d45780639eed8ee2146104dc578063b688a363146104e4578063b82a524f146104ec578063b9d18eae146104f5578063c0e7ea21146104fd57600080fd5b80637923076c146104215780638456cb59146104345780638da5cb5b1461043c57806395286d061461046657806399fbab881461046f57600080fd5b80633d5e1930116101ea5780635c975abb116101ae5780635c975abb146103c05780635cea728c146103d65780635e1b4d99146103e957806364068ef2146103fc5780636bf38f4314610406578063715018a61461041957600080fd5b80633d5e1930146103465780633f4ba83a146103595780634469ed14146102a95780634b31971314610361578063519f50991461036a57600080fd5b80632a6bc2dd1161023c5780632a6bc2dd146102be57806331a6be8c146102de57806333f707d11461030e578063377a763414610321578063379607f51461032a5780633a98ef391461033d57600080fd5b806303a9f06e146102795780630a271da0146102835780630ead5d45146102a05780631cd2a05d146102a95780631f4ff097146102b3575b600080fd5b6102816105bb565b005b61028d6289544081565b6040519081526020015b60405180910390f35b61028d60065481565b61028d620f424081565b61028d6302625a0081565b6102d16102cc3660046124c3565b61069f565b60405161029791906124e5565b6102e661070b565b604080519586526020860194909452928401919091526060830152608082015260a001610297565b61028161031c366004612529565b61075e565b61028d600e5481565b610281610338366004612529565b610874565b61028d600b5481565b61028d610354366004612529565b610b39565b610281610b5a565b61028d600d5481565b61037d610378366004612529565b610b6a565b604080519788526001600160a01b039096166020880152931515948601949094529015156060850152608084015260a083019190915260c082015260e001610297565b60015460ff166040519015158152602001610297565b61028d6103e4366004612529565b610bec565b61028d6103f7366004612542565b610c36565b61028d6298968081565b61028d6104143660046124c3565b610c67565b610281610d56565b61028d61042f3660046124c3565b610d68565b610281610e83565b60015461010090046001600160a01b03165b6040516001600160a01b039091168152602001610297565b61028d60085481565b61048261047d366004612529565b610e93565b60408051998a526001600160a01b0390981660208a0152951515968801969096529215156060870152608086019190915260a085015260c084015260e083019190915261010082015261012001610297565b60045461028d565b61028d606481565b61028d610efb565b61028d60055481565b61028d611278565b61028d6301312d0081565b61028161051636600461256c565b61129e565b61028161165b565b61028d6105313660046124c3565b6119ae565b60065461028d565b61028161054c3660046124c3565b611aad565b61028d600a5481565b61028d6105683660046124c3565b60096020526000908152604090205481565b60075461028d565b61028d60075481565b61044e7f000000000000000000000000000000000000000000000000000000000000000081565b61028d600c5481565b6105c3611ae8565b33600090815260096020526040902054806106185760405162461bcd60e51b815260206004820152601060248201526f4e6f2070656e64696e672066756e647360801b60448201526064015b60405180910390fd5b3360008181526009602052604081205561065d907f00000000000000000000000000000000000000000000000000000000000000006001600160a01b03169083611b12565b60405181815233907f6dc32581145d79d1ffda4d45f3d1ecf9511cbc3eeeb207b6e631d4a421d33b099060200160405180910390a25061069d6001600055565b565b6001600160a01b0381166000908152600360209081526040918290208054835181840281018401909452808452606093928301828280156106ff57602002820191906000526020600020905b8154815260200190600101908083116106eb575b50505050509050919050565b6000806000806000806000600c5411610725576000610740565b600c54600d546107369060646125a4565b61074091906125d7565b600c54600d54600454600e54929a9199509750909550909350915050565b610766611b76565b61076e611ae8565b6007548111156107b75760405162461bcd60e51b8152602060048201526014602482015273496e73756666696369656e742062616c616e636560601b604482015260640161060f565b80600760008282546107c991906125eb565b90915550506001546108149061010090046001600160a01b03166001600160a01b037f0000000000000000000000000000000000000000000000000000000000000000169083611b12565b60015461010090046001600160a01b03166001600160a01b03167fa919fadcfa556a012bab31b15f596ea7ccd397adbf10e15f176db9055ab361c48260405161085f91815260200190565b60405180910390a26108716001600055565b50565b61087c611ae8565b600060028281548110610891576108916125fe565b600091825260209091206001600790920201908101549091506001600160a01b031633146108ed5760405162461bcd60e51b81526020600482015260096024820152682737ba1037bbb732b960b91b604482015260640161060f565b6001810154600160a01b900460ff168061091257506001810154600160a81b900460ff165b61094e5760405162461bcd60e51b815260206004820152600d60248201526c496e76616c696420737461746560981b604482015260640161060f565b6001810154600090600160a81b900460ff16156109cb57506002810154620f42408110156109b05760405162461bcd60e51b815260206004820152600f60248201526e105b1c9958591e4818db185a5b5959608a1b604482015260640161060f565b6000600283015560018201805460ff60a01b19169055610aec565b6109d483611ba9565b15610a2257506002810154620f42408110156109b05760405162461bcd60e51b815260206004820152600d60248201526c42656c6f77206d696e696d756d60981b604482015260640161060f565b6000808360020154610a349190612614565b9150620f4240821015610a795760405162461bcd60e51b815260206004820152600d60248201526c42656c6f77206d696e696d756d60981b604482015260640161060f565b60006002840155600a54600384015464e8d4a5100091610a98916125a4565b610aa291906125d7565b60048401556006548211610acd578160066000828254610ac291906125eb565b90915550610ad39050565b60006006555b81600d6000828254610ae59190612614565b9091555050505b610af63382611d03565b604051818152839033907f34fcbac0073d7c3d388e51312faf357774904998eeb8fca628b9e6f65ee1cbf79060200160405180910390a350506108716001600055565b60048181548110610b4957600080fd5b600091825260209091200154905081565b610b62611b76565b61069d611f14565b60008060008060008060008060028981548110610b8957610b896125fe565b906000526020600020906007020190506000610ba3600090565b825460018401546002850154600690950154919d6001600160a01b0382169d5060ff600160a01b830481169d50600160a81b9092049091169a5093985090965094509092505050565b60008060028381548110610c0257610c026125fe565b906000526020600020906007020190506000610c1c600090565b9050808260020154610c2e9190612614565b949350505050565b60036020528160005260406000208181548110610c5257600080fd5b90600052602060002001600091509150505481565b6001600160a01b038116600090815260036020908152604080832080548251818502810185019093528083528493830182828015610cc457602002820191906000526020600020905b815481526020019060010190808311610cb0575b505050505090506000805b8251811015610d4e5760006002848381518110610cee57610cee6125fe565b602002602001015181548110610d0657610d066125fe565b906000526020600020906007020190508060010160159054906101000a900460ff1615610d3b5782610d3781612627565b9350505b5080610d4681612627565b915050610ccf565b509392505050565b610d5e611b76565b61069d6000611f66565b6001600160a01b038116600090815260036020908152604080832080548251818502810185019093528083528493830182828015610dc557602002820191906000526020600020905b815481526020019060010190808311610db1575b505050505090506000805b8251811015610d4e576000838281518110610ded57610ded6125fe565b60200260200101519050600060028281548110610e0c57610e0c6125fe565b906000526020600020906007020190508060010160149054906101000a900460ff1680610e5357506001810154600160a81b900460ff168015610e53575060008160020154115b15610e6e57610e6182610bec565b610e6b9085612614565b93505b50508080610e7b90612627565b915050610dd0565b610e8b611b76565b61069d611fc0565b60028181548110610ea357600080fd5b600091825260209091206007909102018054600182015460028301546003840154600485015460058601546006909601549496506001600160a01b0384169560ff600160a01b8604811696600160a81b909604169489565b6000610f05611ae8565b610f0d611ffb565b600454606411610f565760405162461bcd60e51b815260206004820152601460248201527313585e0818d85c1858da5d1e481c995858da195960621b604482015260640161060f565b610f8f6001600160a01b037f00000000000000000000000000000000000000000000000000000000000000001633306301312d0061201f565b6301312d00600c6000828254610fa59190612614565b92505081905550600060028054905090506000604051806101200160405280838152602001336001600160a01b03168152602001600115158152602001600015158152602001600081526020016001815260200160008152602001600480549050815260200142815250905060028190806001815401808255809150506001900390600052602060002090600702016000909190919091506000820151816000015560208201518160010160006101000a8154816001600160a01b0302191690836001600160a01b0316021790555060408201518160010160146101000a81548160ff02191690831515021790555060608201518160010160156101000a81548160ff0219169083151502179055506080820151816002015560a0820151816003015560c0820151816004015560e082015181600501556101008201518160060155505060036000336001600160a01b03166001600160a01b031681526020019081526020016000208290806001815401808255809150506001900390600052602060002001600090919091909150556004829080600181540180825580915050600190039060005260206000200160009091909190915055620f4240600760008282546111739190612614565b9091555050600a5460a082015164e8d4a5100091611190916125a4565b61119a91906125d7565b600283815481106111ad576111ad6125fe565b9060005260206000209060070201600401819055506001600b60008282546111d59190612614565b909155506111e490508261205e565b604051428152339083907f82d928ce453d1bf77c3191f06403b4440091103a3dcb9515160c8d1e2d3f76639060200160405180910390a3600c54600d5460045460408051938452602084019290925282820152426060830152517fda351d38fd22f56fdb2f3bf8a9153f6c5f3a4d28407f624db254233fae11a1b29181900360800190a15090506112756001600055565b90565b60045460009060641161128b5750600090565b6004546112999060646125eb565b905090565b6112a6611ae8565b336000908152600360209081526040808320805482518185028101850190935280835291929091908301828280156112fd57602002820191906000526020600020905b8154815260200190600101908083116112e9575b5050505050905060008151116113445760405162461bcd60e51b815260206004820152600c60248201526b4e6f20706f736974696f6e7360a01b604482015260640161060f565b80518211156113895760405162461bcd60e51b8152602060048201526011602482015270092dcecc2d8d2c840cadcc840d2dcc8caf607b1b604482015260640161060f565b8183106113c85760405162461bcd60e51b815260206004820152600d60248201526c496e76616c69642072616e676560981b604482015260640161060f565b60326113d484846125eb565b11156114225760405162461bcd60e51b815260206004820152601860248201527f52616e676520746f6f206c6172676520286d6178203530290000000000000000604482015260640161060f565b6000835b83811015611596576000838281518110611442576114426125fe565b60200260200101519050600060028281548110611461576114616125fe565b906000526020600020906007020190508060010160159054906101000a900460ff16156114c357620f42408160020154106114be5760028101546114a59085612614565b6000600283015560018201805460ff60a01b1916905593505b611581565b6001810154600160a01b900460ff1615611581576114e082611ba9565b1561152257620f424081600201541061151b5760028101546115029085612614565b6000600283015560018201805460ff60a01b1916905593505b5050611584565b6000808183600201546115359190612614565b9050620f4240811061157e5761154b8187612614565b60006002850155600a54600385015491975064e8d4a510009161156e91906125a4565b61157891906125d7565b60048401555b50505b50505b8061158e81612627565b915050611426565b50801561164b5780600654106115c35780600660008282546115b891906125eb565b909155506115c99050565b60006006555b80600d60008282546115db9190612614565b9091555061161590506001600160a01b037f0000000000000000000000000000000000000000000000000000000000000000163383611b12565b60405181815233907f87c8f5d0edc1925e2c5f0557944a55a97424c9ded0e2ac25a5515137603c9ad39060200160405180910390a25b50506116576001600055565b5050565b611663611ae8565b336000908152600360209081526040808320805482518185028101850190935280835291929091908301828280156116ba57602002820191906000526020600020905b8154815260200190600101908083116116a6575b5050505050905060008151116117015760405162461bcd60e51b815260206004820152600c60248201526b4e6f20706f736974696f6e7360a01b604482015260640161060f565b6000603281805b84518110801561171757508282105b1561189e576000858281518110611730576117306125fe565b6020026020010151905060006002828154811061174f5761174f6125fe565b906000526020600020906007020190508060010160159054906101000a900460ff16156117b157620f42408160020154106117ac5760028101546117939087612614565b6000600283015560018201805460ff60a01b1916905595505b61187c565b6001810154600160a01b900460ff161561187c576117ce82611ba9565b1561181d57620f42408160020154106118095760028101546117f09087612614565b6000600283015560018201805460ff60a01b1916905595505b8361181381612627565b945050505061188c565b6000808183600201546118309190612614565b9050620f42408110611879576118468189612614565b60006002850155600a54600385015491995064e8d4a510009161186991906125a4565b61187391906125d7565b60048401555b50505b8361188681612627565b94505050505b8061189681612627565b915050611708565b5082156119535782600654106118cb5782600660008282546118c091906125eb565b909155506118d19050565b60006006555b82600d60008282546118e39190612614565b9091555061191d90506001600160a01b037f0000000000000000000000000000000000000000000000000000000000000000163385611b12565b60405183815233907f87c8f5d0edc1925e2c5f0557944a55a97424c9ded0e2ac25a5515137603c9ad39060200160405180910390a25b83518110156119a057835160405133917f6093609d40fabf5887e75e3e71d9954a1f60851429ba0e70212f388d9cb077239161199791858252602082015260400190565b60405180910390a25b5050505061069d6001600055565b6001600160a01b038116600090815260036020908152604080832080548251818502810185019093528083528493830182828015611a0b57602002820191906000526020600020905b8154815260200190600101908083116119f7575b505050505090506000805b8251811015610d4e5760006002848381518110611a3557611a356125fe565b602002602001015181548110611a4d57611a4d6125fe565b906000526020600020906007020190508060010160149054906101000a900460ff168015611a8757506001810154600160a81b900460ff16155b15611a9a5782611a9681612627565b9350505b5080611aa581612627565b915050611a16565b611ab5611b76565b6001600160a01b038116611adf57604051631e4fbdf760e01b81526000600482015260240161060f565b61087181611f66565b600260005403611b0b57604051633ee5aeb560e01b815260040160405180910390fd5b6002600055565b6040516001600160a01b03838116602483015260448201839052611b7191859182169063a9059cbb906064015b604051602081830303815290604052915060e01b6020820180516001600160e01b0383818316178352505050506122a2565b505050565b6001546001600160a01b0361010090910416331461069d5760405163118cdaa760e01b815233600482015260240161060f565b60008060028381548110611bbf57611bbf6125fe565b906000526020600020906007020190508060010160149054906101000a900460ff161580611bf857506001810154600160a81b900460ff165b15611c065750600092915050565b600080818360020154611c199190612614565b90506302625a008110611cf85764e8d4a51000600a548460030154611c3e91906125a4565b611c4891906125d7565b60048401556002830181905560018301805460ff60a81b1916600160a81b1790556003830154600b8054600090611c809084906125eb565b9091555050600e8054906000611c9583612627565b9190505550611ca78360050154612313565b60018301546040518281526001600160a01b039091169086907fdc5dfd8b5a3510c82d567eaa51cb34f6ca27bac4d4fcf43dffe13527cf178f969060200160405180910390a3506001949350505050565b506000949350505050565b60008111611d415760405162461bcd60e51b815260206004820152600b60248201526a16995c9bc8185b5bdd5b9d60aa1b604482015260640161060f565b8047101580611dd857506040516370a0823160e01b815230600482015281907f00000000000000000000000000000000000000000000000000000000000000006001600160a01b0316906370a0823190602401602060405180830381865afa158015611db1573d6000803e3d6000fd5b505050506040513d601f19601f82011682018060405250810190611dd59190612640565b10155b611e1b5760405162461bcd60e51b8152602060048201526014602482015273496e73756666696369656e742062616c616e636560601b604482015260640161060f565b60405163a9059cbb60e01b81526001600160a01b038381166004830152602482018390527f0000000000000000000000000000000000000000000000000000000000000000169063a9059cbb906044016020604051808303816000875af1925050508015611ea6575060408051601f3d908101601f19168201909252611ea391810190612659565b60015b611edd576001600160a01b03821660009081526009602052604081208054839290611ed2908490612614565b909155506116579050565b80611b71576001600160a01b03831660009081526009602052604081208054849290611f0a908490612614565b9091555050505050565b611f1c612484565b6001805460ff191690557f5db9ee0a495bf2e6ff9c91a7834c1ba4fdd244a5e8aa4e537bd38aeae4b073aa335b6040516001600160a01b03909116815260200160405180910390a1565b600180546001600160a01b03838116610100818102610100600160a81b031985161790945560405193909204169182907f8be0079c531659141344cd1fd0a4f28419497f9722a3daafe3b4186f6b6457e090600090a35050565b611fc8611ffb565b6001805460ff1916811790557f62e78cea01bee320cd4e420270b5ea74000d11b0c9f74754ebdbfc544b05a25833611f49565b60015460ff161561069d5760405163d93c066560e01b815260040160405180910390fd5b6040516001600160a01b0384811660248301528381166044830152606482018390526120589186918216906323b872dd90608401611b3f565b50505050565b600454801561213d576000600460008154811061207d5761207d6125fe565b9060005260206000200154905060006002828154811061209f5761209f6125fe565b90600052602060002090600702019050600081600201546302625a00116120c75760006120da565b60028201546120da906302625a006125eb565b905060006298968082116120ee57816120f3565b629896805b9050801561212e578083600201600082825461210f9190612614565b9250508190555080600660008282546121289190612614565b90915550505b61213784611ba9565b50505050505b600454600181111561228d5760006121566001836125eb565b905060006008546289544061216b9190612614565b6000600881905590915061217f83836125d7565b9050600061218d848461267b565b905060015b85811015612283576000600482815481106121af576121af6125fe565b906000526020600020015490506000600282815481106121d1576121d16125fe565b906000526020600020906007020190508060010160149054906101000a900460ff16801561220b57506001810154600160a81b900460ff16155b1561226e578461221c60018a6125eb565b840361222f5761222c8582612614565b90505b808260020160008282546122439190612614565b92505081905550806006600082825461225c9190612614565b9091555061226b905083611ba9565b50505b5050808061227b90612627565b915050612192565b5050505050505050565b6289544060086000828254611f0a9190612614565b600080602060008451602086016000885af1806122c5576040513d6000823e3d81fd5b50506000513d915081156122dd5780600114156122ea565b6001600160a01b0384163b155b1561205857604051635274afe760e01b81526001600160a01b038516600482015260240161060f565b6004546123585760405162461bcd60e51b81526020600482015260136024820152724e6f2061637469766520706f736974696f6e7360681b604482015260640161060f565b60045481106123995760405162461bcd60e51b815260206004820152600d60248201526c092dcecc2d8d2c840d2dcc8caf609b1b604482015260640161060f565b805b6004546123aa906001906125eb565b8110156124515760046123be826001612614565b815481106123ce576123ce6125fe565b9060005260206000200154600482815481106123ec576123ec6125fe565b906000526020600020018190555080600260048381548110612410576124106125fe565b90600052602060002001548154811061242b5761242b6125fe565b60009182526020909120600560079092020101558061244981612627565b91505061239b565b5060048054806124635761246361268f565b60019003818190600052602060002001600090559055600060058190555050565b60015460ff1661069d57604051638dfc202b60e01b815260040160405180910390fd5b80356001600160a01b03811681146124be57600080fd5b919050565b6000602082840312156124d557600080fd5b6124de826124a7565b9392505050565b6020808252825182820181905260009190848201906040850190845b8181101561251d57835183529284019291840191600101612501565b50909695505050505050565b60006020828403121561253b57600080fd5b5035919050565b6000806040838503121561255557600080fd5b61255e836124a7565b946020939093013593505050565b6000806040838503121561257f57600080fd5b50508035926020909101359150565b634e487b7160e01b600052601160045260246000fd5b80820281158282048414176125bb576125bb61258e565b92915050565b634e487b7160e01b600052601260045260246000fd5b6000826125e6576125e66125c1565b500490565b818103818111156125bb576125bb61258e565b634e487b7160e01b600052603260045260246000fd5b808201808211156125bb576125bb61258e565b6000600182016126395761263961258e565b5060010190565b60006020828403121561265257600080fd5b5051919050565b60006020828403121561266b57600080fd5b815180151581146124de57600080fd5b60008261268a5761268a6125c1565b500690565b634e487b7160e01b600052603160045260246000fdfea26469706673582212207277b24479d73757e812e8c5042c4df3b0772d7bc95d8b43ccebb9e9ce9be71764736f6c63430008140033",
  "linkReferences": {},
  "deployedLinkReferences": {}
}