{
  "_format": "hh-sol-artifact-1",
  "contractName": "SanDigital_4Funds_Keeper",
  "sourceName": "contracts/SanDigital_4Funds_Keeper.sol",
  "abi": [
    {
      "inputs": [
        {
          "internalType": "address",
          "name": "_token",
          "type": "address"
        },
        {
          "internalType": "address",
          "name": "_keeper",
          "type": "address"
        }
      ],
      "stateMutability": "nonpayable",
      "type": "constructor"
    },
    {
      "inputs": [],
      "name": "EnforcedPause",
      "type": "error"
    },
    {
      "inputs": [],
      "name": "ExpectedPause",
      "type": "error"
    },
    {
      "inputs": [
        {
          "internalType": "address",
          "name": "owner",
          "type": "address"
        }
      ],
      "name": "OwnableInvalidOwner",
      "type": "error"
    },
    {
      "inputs": [
        {
          "internalType": "address",
          "name": "account",
          "type": "address"
        }
      ],
      "name": "OwnableUnauthorizedAccount",
      "type": "error"
    },
    {
      "inputs": [],
      "name": "ReentrancyGuardReentrantCall",
      "type": "error"
    },
    {
      "inputs": [
        {
          "internalType": "address",
          "name": "token",
          "type": "address"
        }
      ],
      "name": "SafeERC20FailedOperation",
      "type": "error"
    },
    {
      "anonymous": false,
      "inputs": [
        {
          "indexed": true,
          "internalType": "uint256",
          "name": "positionId",
          "type": "uint256"
        },
        {
          "indexed": true,
          "internalType": "address",
          "name": "user",
          "type": "address"
        },
        {
          "indexed": false,
          "internalType": "uint256",
          "name": "balanceAtExit",
          "type": "uint256"
        }
      ],
      "name": "AutoExitTriggered",
      "type": "event"
    },
    {
      "anonymous": false,
      "inputs": [
        {
          "indexed": true,
          "internalType": "uint256",
          "name": "positionId",
          "type": "uint256"
        },
        {
          "indexed": true,
          "internalType": "address",
          "name": "user",
          "type": "address"
        },
        {
          "indexed": false,
          "internalType": "uint256",
          "name": "amount",
          "type": "uint256"
        }
      ],
      "name": "EmergencyWithdrawal",
      "type": "event"
    },
    {
      "anonymous": false,
      "inputs": [
        {
          "indexed": true,
          "internalType": "uint256",
          "name": "positionId",
          "type": "uint256"
        },
        {
          "indexed": false,
          "internalType": "uint256",
          "name": "excessAmount",
          "type": "uint256"
        }
      ],
      "name": "ExcessReturned",
      "type": "event"
    },
    {
      "anonymous": false,
      "inputs": [
        {
          "indexed": false,
          "internalType": "uint256",
          "name": "globalAmount",
          "type": "uint256"
        },
        {
          "indexed": false,
          "internalType": "uint256",
          "name": "operationalAmount",
          "type": "uint256"
        }
      ],
      "name": "FundsAccumulated",
      "type": "event"
    },
    {
      "anonymous": false,
      "inputs": [
        {
          "indexed": false,
          "internalType": "uint256",
          "name": "totalAmount",
          "type": "uint256"
        },
        {
          "indexed": false,
          "internalType": "uint256",
          "name": "recipients",
          "type": "uint256"
        },
        {
          "indexed": false,
          "internalType": "uint256",
          "name": "perPosition",
          "type": "uint256"
        }
      ],
      "name": "GlobalDistributed",
      "type": "event"
    },
    {
      "anonymous": false,
      "inputs": [
        {
          "indexed": true,
          "internalType": "address",
          "name": "oldKeeper",
          "type": "address"
        },
        {
          "indexed": true,
          "internalType": "address",
          "name": "newKeeper",
          "type": "address"
        }
      ],
      "name": "KeeperChanged",
      "type": "event"
    },
    {
      "anonymous": false,
      "inputs": [
        {
          "indexed": true,
          "internalType": "uint256",
          "name": "positionId",
          "type": "uint256"
        },
        {
          "indexed": true,
          "internalType": "address",
          "name": "keeper",
          "type": "address"
        },
        {
          "indexed": false,
          "internalType": "uint256",
          "name": "reward",
          "type": "uint256"
        }
      ],
      "name": "KeeperExecutedAutoExit",
      "type": "event"
    },
    {
      "anonymous": false,
      "inputs": [
        {
          "indexed": true,
          "internalType": "address",
          "name": "previousOwner",
          "type": "address"
        },
        {
          "indexed": true,
          "internalType": "address",
          "name": "newOwner",
          "type": "address"
        }
      ],
      "name": "OwnershipTransferred",
      "type": "event"
    },
    {
      "anonymous": false,
      "inputs": [
        {
          "indexed": false,
          "internalType": "address",
          "name": "account",
          "type": "address"
        }
      ],
      "name": "Paused",
      "type": "event"
    },
    {
      "anonymous": false,
      "inputs": [
        {
          "indexed": true,
          "internalType": "uint256",
          "name": "positionId",
          "type": "uint256"
        },
        {
          "indexed": true,
          "internalType": "address",
          "name": "user",
          "type": "address"
        },
        {
          "indexed": false,
          "internalType": "uint256",
          "name": "timestamp",
          "type": "uint256"
        }
      ],
      "name": "PositionCreated",
      "type": "event"
    },
    {
      "anonymous": false,
      "inputs": [
        {
          "indexed": true,
          "internalType": "uint256",
          "name": "positionId",
          "type": "uint256"
        },
        {
          "indexed": true,
          "internalType": "address",
          "name": "user",
          "type": "address"
        },
        {
          "indexed": false,
          "internalType": "uint256",
          "name": "amountPaid",
          "type": "uint256"
        }
      ],
      "name": "PositionExited",
      "type": "event"
    },
    {
      "anonymous": false,
      "inputs": [
        {
          "indexed": true,
          "internalType": "uint256",
          "name": "positionId",
          "type": "uint256"
        },
        {
          "indexed": false,
          "internalType": "uint256",
          "name": "amount",
          "type": "uint256"
        }
      ],
      "name": "TurnPaid",
      "type": "event"
    },
    {
      "anonymous": false,
      "inputs": [
        {
          "indexed": false,
          "internalType": "address",
          "name": "account",
          "type": "address"
        }
      ],
      "name": "Unpaused",
      "type": "event"
    },
    {
      "inputs": [],
      "name": "ENTRY_AMOUNT",
      "outputs": [
        {
          "internalType": "uint256",
          "name": "",
          "type": "uint256"
        }
      ],
      "stateMutability": "view",
      "type": "function"
    },
    {
      "inputs": [],
      "name": "EXIT_AMOUNT",
      "outputs": [
        {
          "internalType": "uint256",
          "name": "",
          "type": "uint256"
        }
      ],
      "stateMutability": "view",
      "type": "function"
    },
    {
      "inputs": [],
      "name": "GLOBAL_PERCENT",
      "outputs": [
        {
          "internalType": "uint256",
          "name": "",
          "type": "uint256"
        }
      ],
      "stateMutability": "view",
      "type": "function"
    },
    {
      "inputs": [],
      "name": "KEEPER_FEE_PERCENT",
      "outputs": [
        {
          "internalType": "uint256",
          "name": "",
          "type": "uint256"
        }
      ],
      "stateMutability": "view",
      "type": "function"
    },
    {
      "inputs": [],
      "name": "KEEPER_REWARD",
      "outputs": [
        {
          "internalType": "uint256",
          "name": "",
          "type": "uint256"
        }
      ],
      "stateMutability": "view",
      "type": "function"
    },
    {
      "inputs": [],
      "name": "MAX_ACTIVE_POSITIONS",
      "outputs": [
        {
          "internalType": "uint256",
          "name": "",
          "type": "uint256"
        }
      ],
      "stateMutability": "view",
      "type": "function"
    },
    {
      "inputs": [],
      "name": "MAX_BALANCE_FOR_EXIT",
      "outputs": [
        {
          "internalType": "uint256",
          "name": "",
          "type": "uint256"
        }
      ],
      "stateMutability": "view",
      "type": "function"
    },
    {
      "inputs": [],
      "name": "MIN_BALANCE_FOR_EXIT",
      "outputs": [
        {
          "internalType": "uint256",
          "name": "",
          "type": "uint256"
        }
      ],
      "stateMutability": "view",
      "type": "function"
    },
    {
      "inputs": [],
      "name": "OPERATIONAL_PERCENT",
      "outputs": [
        {
          "internalType": "uint256",
          "name": "",
          "type": "uint256"
        }
      ],
      "stateMutability": "view",
      "type": "function"
    },
    {
      "inputs": [],
      "name": "TURN_PERCENT",
      "outputs": [
        {
          "internalType": "uint256",
          "name": "",
          "type": "uint256"
        }
      ],
      "stateMutability": "view",
      "type": "function"
    },
    {
      "inputs": [
        {
          "internalType": "uint256",
          "name": "",
          "type": "uint256"
        }
      ],
      "name": "activos",
      "outputs": [
        {
          "internalType": "uint256",
          "name": "",
          "type": "uint256"
        }
      ],
      "stateMutability": "view",
      "type": "function"
    },
    {
      "inputs": [],
      "name": "authorizedKeeper",
      "outputs": [
        {
          "internalType": "address",
          "name": "",
          "type": "address"
        }
      ],
      "stateMutability": "view",
      "type": "function"
    },
    {
      "inputs": [
        {
          "internalType": "uint256",
          "name": "positionId",
          "type": "uint256"
        }
      ],
      "name": "emergencyWithdraw",
      "outputs": [],
      "stateMutability": "nonpayable",
      "type": "function"
    },
    {
      "inputs": [
        {
          "internalType": "uint256",
          "name": "positionId",
          "type": "uint256"
        }
      ],
      "name": "executeAutoExit",
      "outputs": [],
      "stateMutability": "nonpayable",
      "type": "function"
    },
    {
      "inputs": [
        {
          "internalType": "uint256",
          "name": "positionId",
          "type": "uint256"
        }
      ],
      "name": "exit",
      "outputs": [],
      "stateMutability": "nonpayable",
      "type": "function"
    },
    {
      "inputs": [],
      "name": "getAdminMetrics",
      "outputs": [
        {
          "internalType": "uint256",
          "name": "activePositions",
          "type": "uint256"
        },
        {
          "internalType": "uint256",
          "name": "completedCycles",
          "type": "uint256"
        },
        {
          "internalType": "uint256",
          "name": "deposited",
          "type": "uint256"
        },
        {
          "internalType": "uint256",
          "name": "withdrawn",
          "type": "uint256"
        },
        {
          "internalType": "uint256",
          "name": "globalPool",
          "type": "uint256"
        },
        {
          "internalType": "uint256",
          "name": "operationalPool",
          "type": "uint256"
        },
        {
          "internalType": "uint256",
          "name": "keeperFundBalance",
          "type": "uint256"
        },
        {
          "internalType": "uint256",
          "name": "userBalances",
          "type": "uint256"
        },
        {
          "internalType": "uint256",
          "name": "contractBalance",
          "type": "uint256"
        },
        {
          "internalType": "bool",
          "name": "isPaused",
          "type": "bool"
        }
      ],
      "stateMutability": "view",
      "type": "function"
    },
    {
      "inputs": [],
      "name": "getGlobalActivosCount",
      "outputs": [
        {
          "internalType": "uint256",
          "name": "",
          "type": "uint256"
        }
      ],
      "stateMutability": "view",
      "type": "function"
    },
    {
      "inputs": [],
      "name": "getKeeperMetrics",
      "outputs": [
        {
          "internalType": "uint256",
          "name": "fundBalance",
          "type": "uint256"
        },
        {
          "internalType": "uint256",
          "name": "rewardAmount",
          "type": "uint256"
        },
        {
          "internalType": "uint256",
          "name": "possibleExecutions",
          "type": "uint256"
        },
        {
          "internalType": "address",
          "name": "keeper",
          "type": "address"
        }
      ],
      "stateMutability": "view",
      "type": "function"
    },
    {
      "inputs": [
        {
          "internalType": "uint256",
          "name": "positionId",
          "type": "uint256"
        }
      ],
      "name": "getPositionBalance",
      "outputs": [
        {
          "internalType": "uint256",
          "name": "",
          "type": "uint256"
        }
      ],
      "stateMutability": "view",
      "type": "function"
    },
    {
      "inputs": [],
      "name": "getPositionsNeedingAutoExit",
      "outputs": [
        {
          "internalType": "uint256[]",
          "name": "",
          "type": "uint256[]"
        }
      ],
      "stateMutability": "view",
      "type": "function"
    },
    {
      "inputs": [],
      "name": "getSystemState",
      "outputs": [
        {
          "internalType": "uint256",
          "name": "activePositions",
          "type": "uint256"
        },
        {
          "internalType": "uint256",
          "name": "completedCycles",
          "type": "uint256"
        },
        {
          "internalType": "uint256",
          "name": "totalIn",
          "type": "uint256"
        },
        {
          "internalType": "uint256",
          "name": "totalOut",
          "type": "uint256"
        },
        {
          "internalType": "uint256",
          "name": "globalPool",
          "type": "uint256"
        },
        {
          "internalType": "uint256",
          "name": "operationalPool",
          "type": "uint256"
        }
      ],
      "stateMutability": "view",
      "type": "function"
    },
    {
      "inputs": [
        {
          "internalType": "address",
          "name": "user",
          "type": "address"
        }
      ],
      "name": "getUserPositions",
      "outputs": [
        {
          "internalType": "uint256[]",
          "name": "",
          "type": "uint256[]"
        }
      ],
      "stateMutability": "view",
      "type": "function"
    },
    {
      "inputs": [
        {
          "internalType": "address",
          "name": "user",
          "type": "address"
        }
      ],
      "name": "getUserTotalBalance",
      "outputs": [
        {
          "internalType": "uint256",
          "name": "",
          "type": "uint256"
        }
      ],
      "stateMutability": "view",
      "type": "function"
    },
    {
      "inputs": [],
      "name": "globalDistributionPool",
      "outputs": [
        {
          "internalType": "uint256",
          "name": "",
          "type": "uint256"
        }
      ],
      "stateMutability": "view",
      "type": "function"
    },
    {
      "inputs": [],
      "name": "join",
      "outputs": [],
      "stateMutability": "nonpayable",
      "type": "function"
    },
    {
      "inputs": [],
      "name": "keeperFund",
      "outputs": [
        {
          "internalType": "uint256",
          "name": "",
          "type": "uint256"
        }
      ],
      "stateMutability": "view",
      "type": "function"
    },
    {
      "inputs": [],
      "name": "operationalFund",
      "outputs": [
        {
          "internalType": "uint256",
          "name": "",
          "type": "uint256"
        }
      ],
      "stateMutability": "view",
      "type": "function"
    },
    {
      "inputs": [],
      "name": "owner",
      "outputs": [
        {
          "internalType": "address",
          "name": "",
          "type": "address"
        }
      ],
      "stateMutability": "view",
      "type": "function"
    },
    {
      "inputs": [],
      "name": "pause",
      "outputs": [],
      "stateMutability": "nonpayable",
      "type": "function"
    },
    {
      "inputs": [],
      "name": "paused",
      "outputs": [
        {
          "internalType": "bool",
          "name": "",
          "type": "bool"
        }
      ],
      "stateMutability": "view",
      "type": "function"
    },
    {
      "inputs": [
        {
          "internalType": "uint256",
          "name": "",
          "type": "uint256"
        }
      ],
      "name": "positions",
      "outputs": [
        {
          "internalType": "uint256",
          "name": "positionId",
          "type": "uint256"
        },
        {
          "internalType": "address",
          "name": "owner",
          "type": "address"
        },
        {
          "internalType": "bool",
          "name": "isActive",
          "type": "bool"
        },
        {
          "internalType": "bool",
          "name": "hasExited",
          "type": "bool"
        },
        {
          "internalType": "uint256",
          "name": "balance",
          "type": "uint256"
        },
        {
          "internalType": "uint256",
          "name": "indexInActivos",
          "type": "uint256"
        },
        {
          "internalType": "uint256",
          "name": "timestamp",
          "type": "uint256"
        }
      ],
      "stateMutability": "view",
      "type": "function"
    },
    {
      "inputs": [],
      "name": "renounceOwnership",
      "outputs": [],
      "stateMutability": "nonpayable",
      "type": "function"
    },
    {
      "inputs": [
        {
          "internalType": "address",
          "name": "newKeeper",
          "type": "address"
        }
      ],
      "name": "setAuthorizedKeeper",
      "outputs": [],
      "stateMutability": "nonpayable",
      "type": "function"
    },
    {
      "inputs": [],
      "name": "token",
      "outputs": [
        {
          "internalType": "contract IERC20",
          "name": "",
          "type": "address"
        }
      ],
      "stateMutability": "view",
      "type": "function"
    },
    {
      "inputs": [],
      "name": "totalCompletedCycles",
      "outputs": [
        {
          "internalType": "uint256",
          "name": "",
          "type": "uint256"
        }
      ],
      "stateMutability": "view",
      "type": "function"
    },
    {
      "inputs": [],
      "name": "totalDeposited",
      "outputs": [
        {
          "internalType": "uint256",
          "name": "",
          "type": "uint256"
        }
      ],
      "stateMutability": "view",
      "type": "function"
    },
    {
      "inputs": [],
      "name": "totalSaldosUsuarios",
      "outputs": [
        {
          "internalType": "uint256",
          "name": "",
          "type": "uint256"
        }
      ],
      "stateMutability": "view",
      "type": "function"
    },
    {
      "inputs": [],
      "name": "totalWithdrawn",
      "outputs": [
        {
          "internalType": "uint256",
          "name": "",
          "type": "uint256"
        }
      ],
      "stateMutability": "view",
      "type": "function"
    },
    {
      "inputs": [
        {
          "internalType": "address",
          "name": "newOwner",
          "type": "address"
        }
      ],
      "name": "transferOwnership",
      "outputs": [],
      "stateMutability": "nonpayable",
      "type": "function"
    },
    {
      "inputs": [],
      "name": "unpause",
      "outputs": [],
      "stateMutability": "nonpayable",
      "type": "function"
    },
    {
      "inputs": [
        {
          "internalType": "address",
          "name": "",
          "type": "address"
        },
        {
          "internalType": "uint256",
          "name": "",
          "type": "uint256"
        }
      ],
      "name": "userPositions",
      "outputs": [
        {
          "internalType": "uint256",
          "name": "",
          "type": "uint256"
        }
      ],
      "stateMutability": "view",
      "type": "function"
    },
    {
      "inputs": [
        {
          "internalType": "uint256",
          "name": "amount",
          "type": "uint256"
        }
      ],
      "name": "withdrawOperational",
      "outputs": [],
      "stateMutability": "nonpayable",
      "type": "function"
    }
  ],
  "bytecode": "0x60a06040523480156200001157600080fd5b506040516200263c3803806200263c83398101604081905262000034916200019e565b600160005533806200006157604051631e4fbdf760e01b8152600060048201526024015b60405180910390fd5b6200006c8162000127565b506001600160a01b038216620000b55760405162461bcd60e51b815260206004820152600d60248201526c24b73b30b634b2103a37b5b2b760991b604482015260640162000058565b6001600160a01b038116620000fe5760405162461bcd60e51b815260206004820152600e60248201526d24b73b30b634b21035b2b2b832b960911b604482015260640162000058565b6001600160a01b03918216608052600c80546001600160a01b03191691909216179055620001d6565b600180546001600160a01b03838116610100818102610100600160a81b031985161790945560405193909204169182907f8be0079c531659141344cd1fd0a4f28419497f9722a3daafe3b4186f6b6457e090600090a35050565b80516001600160a01b03811681146200019957600080fd5b919050565b60008060408385031215620001b257600080fd5b620001bd8362000181565b9150620001cd6020840162000181565b90509250929050565b608051612419620002236000396000818161057f0152818161063f0152818161076d01528181610a4e01528181610c6e0152818161112b015281816112630152611c5201526124196000f3fe608060405234801561001057600080fd5b506004361061025e5760003560e01c8063715018a6116101465780639d47d4d3116100c3578063d21a861b11610087578063d21a861b14610541578063de3b30f114610549578063efc1bd4614610554578063f2fde38b14610567578063fc0c546a1461057a578063ff50abdc146105a157600080fd5b80639d47d4d31461050c578063a3346f161461051f578063b203575514610528578063b688a36314610531578063be1c90741461053957600080fd5b80638da5cb5b1161010a5780638da5cb5b1461047c5780638e4b5672146104a6578063984735df1461033e57806399fbab88146104ae5780639cdc80eb1461050457600080fd5b8063715018a61461043e5780637923076c146104465780637e8ea3c9146104595780637f8661a1146104615780638456cb591461047457600080fd5b80633d5e1930116101df5780635647ac3e116101a35780635647ac3e146103dd5780635c975abb146103f05780635cea728c146104065780635e1b4d99146104195780636ac480b51461042c5780636cbd06c81461043657600080fd5b80633d5e1930146103525780633e743053146103655780633f4ba83a146103b95780634b319713146103c15780635312ea8e146103ca57600080fd5b806328fa777f1161022657806328fa777f146102d75780632a6bc2dd14610316578063309d2a7e1461033657806336917cf81461033e578063377a76341461034957600080fd5b80630473723d146102635780630ead5d451461027f578063134cc7bb1461028857806324ca5f9e146102915780632714e3d8146102a6575b600080fd5b61026c60055481565b6040519081526020015b60405180910390f35b61026c60075481565b61026c61c35081565b6102a461029f366004612213565b6105aa565b005b6102ae610669565b604080519485526020850193909352918301526001600160a01b03166060820152608001610276565b600454600a54600854600954600554600654604080519687526020870195909552938501929092526060840152608083015260a082015260c001610276565b610329610324366004612248565b6106b4565b604051610276919061226a565b61026c603781565b61026c6301312d0081565b61026c600a5481565b61026c610360366004612213565b610720565b61036d610741565b604080519a8b5260208b0199909952978901969096526060880194909452608087019290925260a086015260c085015260e0840152610100830152151561012082015261014001610276565b6102a461082d565b61026c60095481565b6102a46103d8366004612213565b61083f565b6102a46103eb366004612213565b610ab9565b60015460ff166040519015158152602001610276565b61026c610414366004612213565b610d19565b61026c6104273660046122ae565b610d8c565b61026c6298968081565b61026c602381565b6102a4610dbd565b61026c610454366004612248565b610dcf565b61026c601e81565b6102a461046f366004612213565b610eda565b6102a461118e565b60015461010090046001600160a01b03165b6040516001600160a01b039091168152602001610276565b61026c600a81565b6104c16104bc366004612213565b61119e565b604080519788526001600160a01b039096166020880152931515948601949094529015156060850152608084015260a083019190915260c082015260e001610276565b60045461026c565b600c5461048e906001600160a01b031681565b61026c60065481565b61026c600b5481565b6102a46111fc565b61032961154d565b61026c600581565b61026c6301406f4081565b6102a4610562366004612248565b611766565b6102a4610575366004612248565b61180f565b61048e7f000000000000000000000000000000000000000000000000000000000000000081565b61026c60085481565b6105b261184a565b6006548111156106095760405162461bcd60e51b815260206004820152601e60248201527f496e73756666696369656e74206f7065726174696f6e616c2066756e6473000060448201526064015b60405180910390fd5b806006600082825461061b91906122ee565b90915550506001546106669061010090046001600160a01b03166001600160a01b037f000000000000000000000000000000000000000000000000000000000000000016908361187d565b50565b600080600080600061c350600b541015610684576000610694565b61c350600b54610694919061231d565b600b54600c54909761c35097509195506001600160a01b03169350915050565b6001600160a01b03811660009081526003602090815260409182902080548351818402810184019094528084526060939283018282801561071457602002820191906000526020600020905b815481526020019060010190808311610700575b50505050509050919050565b6004818154811061073057600080fd5b600091825260209091200154905081565b600080600080600080600080600080600480549050600a54600854600954600554600654600b546007547f00000000000000000000000000000000000000000000000000000000000000006001600160a01b03166370a08231306040518263ffffffff1660e01b81526004016107c691906001600160a01b0391909116815260200190565b602060405180830381865afa1580156107e3573d6000803e3d6000fd5b505050506040513d601f19601f820116820180604052508101906108079190612331565b60015460ff16995099509950995099509950995099509950995090919293949596979899565b61083561184a565b61083d6118e1565b565b610847611933565b60015460ff166108995760405162461bcd60e51b815260206004820152601a60248201527f4f6e6c7920696e20656d657267656e63792028706175736564290000000000006044820152606401610600565b6000600282815481106108ae576108ae61234a565b600091825260209091206001600590920201908101549091506001600160a01b0316331461090a5760405162461bcd60e51b81526020600482015260096024820152682737ba1037bbb732b960b91b6044820152606401610600565b6001810154600160a01b900460ff166109525760405162461bcd60e51b815260206004820152600a6024820152694e6f742061637469766560b01b6044820152606401610600565b6001810154600160a81b900460ff161561099f5760405162461bcd60e51b815260206004820152600e60248201526d105b1c9958591e48195e1a5d195960921b6044820152606401610600565b60008160020154116109e05760405162461bcd60e51b815260206004820152600a6024820152694e6f2062616c616e636560b01b6044820152606401610600565b60028101805460018301805461ffff60a01b1916600160a81b1790556000918290556007805491928392610a159084906122ee565b925050819055508060096000828254610a2e9190612360565b90915550506003820154610a419061195d565b610a756001600160a01b037f000000000000000000000000000000000000000000000000000000000000000016338361187d565b604051818152339084907f18fcb562d23857df60e33824b748cb5c3af4e22375458317e7a33e52a971413f906020015b60405180910390a350506106666001600055565b610ac1611933565b600c546001600160a01b03163314610b145760405162461bcd60e51b815260206004820152601660248201527527b7363c9030baba3437b934bd32b21035b2b2b832b960511b6044820152606401610600565b6002548110610b585760405162461bcd60e51b815260206004820152601060248201526f24b73b30b634b2103837b9b4ba34b7b760811b6044820152606401610600565b600060028281548110610b6d57610b6d61234a565b906000526020600020906005020190508060010160149054906101000a900460ff168015610ba757506001810154600160a81b900460ff16155b610be95760405162461bcd60e51b8152602060048201526013602482015272506f736974696f6e206e6f742061637469766560681b6044820152606401610600565b6301312d0081600201541015610c335760405162461bcd60e51b815260206004820152600f60248201526e42616c616e636520746f6f206c6f7760881b6044820152606401610600565b610c3c82611a81565b61c350600b5410610cd55761c350600b6000828254610c5b91906122ee565b90915550610c9790506001600160a01b037f0000000000000000000000000000000000000000000000000000000000000000163361c35061187d565b60405161c3508152339083907fd47d7b77deae755643044aab59391a9830cd6ba6747ad84dc5046cdda8b7593b9060200160405180910390a3610d0e565b60405160008152339083907fd47d7b77deae755643044aab59391a9830cd6ba6747ad84dc5046cdda8b7593b9060200160405180910390a35b506106666001600055565b6002546000908210610d605760405162461bcd60e51b815260206004820152601060248201526f24b73b30b634b2103837b9b4ba34b7b760811b6044820152606401610600565b60028281548110610d7357610d7361234a565b9060005260206000209060050201600201549050919050565b60036020528160005260406000208181548110610da857600080fd5b90600052602060002001600091509150505481565b610dc561184a565b61083d6000611d0f565b6001600160a01b038116600090815260036020908152604080832080548251818502810185019093528083528493830182828015610e2c57602002820191906000526020600020905b815481526020019060010190808311610e18575b505050505090506000805b8251811015610ed25760006002848381518110610e5657610e5661234a565b602002602001015181548110610e6e57610e6e61234a565b906000526020600020906005020190508060010160149054906101000a900460ff168015610ea857506001810154600160a81b900460ff16155b15610ebf576002810154610ebc9084612360565b92505b5080610eca81612373565b915050610e37565b509392505050565b610ee2611933565b600060028281548110610ef757610ef761234a565b600091825260209091206001600590920201908101549091506001600160a01b03163314610f535760405162461bcd60e51b81526020600482015260096024820152682737ba1037bbb732b960b91b6044820152606401610600565b6001810154600160a01b900460ff16610f9b5760405162461bcd60e51b815260206004820152600a6024820152694e6f742061637469766560b01b6044820152606401610600565b6001810154600160a81b900460ff1615610fe85760405162461bcd60e51b815260206004820152600e60248201526d105b1c9958591e48195e1a5d195960921b6044820152606401610600565b6301312d00816002015410156110385760405162461bcd60e51b81526020600482015260156024820152741399595908185d081b19585cdd080c8c081554d115605a1b6044820152606401610600565b60028101546301312d008111156110a95760006110596301312d00836122ee565b9050806005600082825461106d9190612360565b909155505060405181815284907f14006f029869579159ae07cf71d267139333f4d6a1da6bbdce9e336ac8e059739060200160405180910390a2505b60018201805461ffff60a01b1916600160a81b179055600060028301819055600780548392906110da9084906122ee565b925050819055506301312d00600960008282546110f79190612360565b9091555050600a805490600061110c83612373565b919050555061111e826003015461195d565b6111566001600160a01b037f000000000000000000000000000000000000000000000000000000000000000016336301312d0061187d565b6040516301312d008152339084907fdc5dfd8b5a3510c82d567eaa51cb34f6ca27bac4d4fcf43dffe13527cf178f9690602001610aa5565b61119661184a565b61083d611d69565b600281815481106111ae57600080fd5b6000918252602090912060059091020180546001820154600283015460038401546004909401549294506001600160a01b0382169360ff600160a01b8404811694600160a81b909404169287565b611204611933565b61120c611da4565b600454601e116112565760405162461bcd60e51b815260206004820152601560248201527413585e081c1bdcda5d1a5bdb9cc81c995858da1959605a1b6044820152606401610600565b61128e6001600160a01b037f000000000000000000000000000000000000000000000000000000000000000016333062989680611dc8565b62989680600860008282546112a39190612360565b90915550600090506103e86112bc60056298968061238c565b6112c6919061231d565b905080600b60008282546112da9190612360565b90915550600090506112ef82629896806122ee565b90506000606461130060378461238c565b61130a919061231d565b90506000606461131b60238561238c565b611325919061231d565b905060006064611336600a8661238c565b611340919061231d565b905082600560008282546113549190612360565b92505081905550806006600082825461136d9190612360565b909155505060408051848152602081018390527fd3eb0797b0b56ec8353527ffe46ffde434ebddcc3e0cf4aa09289b50996508ba910160405180910390a16004541561146357600060046000815481106113c9576113c961234a565b9060005260206000200154905082600282815481106113ea576113ea61234a565b9060005260206000209060050201600201600082825461140a9190612360565b9250508190555082600760008282546114239190612360565b909155505060405183815281907f2df5605ac216c1ba02cc37d6913b857dbc3673eecdcb6ae88f59f19c942b6f5d9060200160405180910390a250611521565b61146c33611e07565b600060046000815481106114825761148261234a565b9060005260206000200154905082600282815481106114a3576114a361234a565b906000526020600020906005020160020160008282546114c39190612360565b9250508190555082600760008282546114dc9190612360565b909155505060405183815281907f2df5605ac216c1ba02cc37d6913b857dbc3673eecdcb6ae88f59f19c942b6f5d9060200160405180910390a2505050505050611543565b61152a33611e07565b6004546001101561153d5761153d611fde565b50505050505b61083d6001600055565b60606000805b60025481101561162357600281815481106115705761157061234a565b906000526020600020906005020160010160149054906101000a900460ff1680156115ca5750600281815481106115a9576115a961234a565b906000526020600020906005020160010160159054906101000a900460ff16155b80156115fe57506301312d00600282815481106115e9576115e961234a565b90600052602060002090600502016002015410155b15611611578161160d81612373565b9250505b8061161b81612373565b915050611553565b5060008167ffffffffffffffff81111561163f5761163f6123a3565b604051908082528060200260200182016040528015611668578160200160208202803683370190505b5090506000805b60025481101561175d576002818154811061168c5761168c61234a565b906000526020600020906005020160010160149054906101000a900460ff1680156116e65750600281815481106116c5576116c561234a565b906000526020600020906005020160010160159054906101000a900460ff16155b801561171a57506301312d00600282815481106117055761170561234a565b90600052602060002090600502016002015410155b1561174b57808383815181106117325761173261234a565b60209081029190910101528161174781612373565b9250505b8061175581612373565b91505061166f565b50909392505050565b61176e61184a565b6001600160a01b0381166117bd5760405162461bcd60e51b8152602060048201526016602482015275496e76616c6964206b6565706572206164647265737360501b6044820152606401610600565b600c80546001600160a01b038381166001600160a01b0319831681179093556040519116919082907f068b48a2fe7f498b57ff6da64f075ae658fde8d77124b092e62b3dc58d91ce3590600090a35050565b61181761184a565b6001600160a01b03811661184157604051631e4fbdf760e01b815260006004820152602401610600565b61066681611d0f565b6001546001600160a01b0361010090910416331461083d5760405163118cdaa760e01b8152336004820152602401610600565b6040516001600160a01b038381166024830152604482018390526118dc91859182169063a9059cbb906064015b604051602081830303815290604052915060e01b6020820180516001600160e01b03838183161783525050505061217f565b505050565b6118e96121f0565b6001805460ff191690557f5db9ee0a495bf2e6ff9c91a7834c1ba4fdd244a5e8aa4e537bd38aeae4b073aa335b6040516001600160a01b03909116815260200160405180910390a1565b60026000540361195657604051633ee5aeb560e01b815260040160405180910390fd5b6002600055565b600454811061199e5760405162461bcd60e51b815260206004820152600d60248201526c092dcecc2d8d2c840d2dcc8caf609b1b6044820152606401610600565b805b6004546119af906001906122ee565b811015611a565760046119c3826001612360565b815481106119d3576119d361234a565b9060005260206000200154600482815481106119f1576119f161234a565b906000526020600020018190555080600260048381548110611a1557611a1561234a565b906000526020600020015481548110611a3057611a3061234a565b600091825260209091206003600590920201015580611a4e81612373565b9150506119a0565b506004805480611a6857611a686123b9565b6001900381819060005260206000200160009055905550565b600060028281548110611a9657611a9661234a565b906000526020600020906005020190508060010160159054906101000a900460ff16158015611ad057506001810154600160a01b900460ff165b611b0c5760405162461bcd60e51b815260206004820152600d60248201526c496e76616c696420737461746560981b6044820152606401610600565b6301312d0081600201541015611b565760405162461bcd60e51b815260206004820152600f60248201526e42616c616e636520746f6f206c6f7760881b6044820152606401610600565b60018101805461ffff60a01b198116600160a81b179091556002820180546000909155906001600160a01b03166301312d00821115611bef576000611b9f6301312d00846122ee565b90508060056000828254611bb39190612360565b909155505060405181815285907f14006f029869579159ae07cf71d267139333f4d6a1da6bbdce9e336ac8e059739060200160405180910390a2505b8160076000828254611c0191906122ee565b925050819055506301312d0060096000828254611c1e9190612360565b9091555050600a8054906000611c3383612373565b9190505550611c45836003015461195d565b611c7d6001600160a01b037f000000000000000000000000000000000000000000000000000000000000000016826301312d0061187d565b806001600160a01b0316847f1cfd28b76f524eacf605c056369f68bc6ecf161778b8cf393d7a3d06eb50e40984604051611cb991815260200190565b60405180910390a3806001600160a01b0316847fdc5dfd8b5a3510c82d567eaa51cb34f6ca27bac4d4fcf43dffe13527cf178f966301312d00604051611d0191815260200190565b60405180910390a350505050565b600180546001600160a01b03838116610100818102610100600160a81b031985161790945560405193909204169182907f8be0079c531659141344cd1fd0a4f28419497f9722a3daafe3b4186f6b6457e090600090a35050565b611d71611da4565b6001805460ff1916811790557f62e78cea01bee320cd4e420270b5ea74000d11b0c9f74754ebdbfc544b05a25833611916565b60015460ff161561083d5760405163d93c066560e01b815260040160405180910390fd5b6040516001600160a01b038481166024830152838116604483015260648201839052611e019186918216906323b872dd906084016118aa565b50505050565b6000600280549050905060006040518060e00160405280838152602001846001600160a01b0316815260200160011515815260200160001515815260200160008152602001600480549050815260200142815250905060028190806001815401808255809150506001900390600052602060002090600502016000909190919091506000820151816000015560208201518160010160006101000a8154816001600160a01b0302191690836001600160a01b0316021790555060408201518160010160146101000a81548160ff02191690831515021790555060608201518160010160156101000a81548160ff0219169083151502179055506080820151816002015560a0820151816003015560c08201518160040155505060036000846001600160a01b03166001600160a01b031681526020019081526020016000208290806001815401808255809150506001900390600052602060002001600090919091909150556004829080600181540180825580915050600190039060005260206000200160009091909190915055826001600160a01b0316827f82d928ce453d1bf77c3191f06403b4440091103a3dcb9515160c8d1e2d3f766342604051611fd191815260200190565b60405180910390a3505050565b6005546000819003611fed5750565b6000600555600454600181116120035750600555565b60006120106001836122ee565b9050600061201e828561231d565b9050600061202c83866123cf565b9050600060015b85811015612135576000600482815481106120505761205061234a565b906000526020600020015490506000600282815481106120725761207261234a565b906000526020600020906005020190508060010160149054906101000a900460ff1680156120ac57506001810154600160a81b900460ff16155b156121205760006120be60018a6122ee565b84036120d5576120ce858b6122ee565b90506120d8565b50855b801561211e57808260020160008282546120f29190612360565b92505081905550806007600082825461210b9190612360565b9091555061211b90508186612360565b94505b505b5050808061212d90612373565b915050612033565b5060408051878152602081018690529081018490527fbe7289e3992a018dd36b6206525193e881d2b016be2269dccc5a90339ac46d969060600160405180910390a1505050505050565b600080602060008451602086016000885af1806121a2576040513d6000823e3d81fd5b50506000513d915081156121ba5780600114156121c7565b6001600160a01b0384163b155b15611e0157604051635274afe760e01b81526001600160a01b0385166004820152602401610600565b60015460ff1661083d57604051638dfc202b60e01b815260040160405180910390fd5b60006020828403121561222557600080fd5b5035919050565b80356001600160a01b038116811461224357600080fd5b919050565b60006020828403121561225a57600080fd5b6122638261222c565b9392505050565b6020808252825182820181905260009190848201906040850190845b818110156122a257835183529284019291840191600101612286565b50909695505050505050565b600080604083850312156122c157600080fd5b6122ca8361222c565b946020939093013593505050565b634e487b7160e01b600052601160045260246000fd5b81810381811115612301576123016122d8565b92915050565b634e487b7160e01b600052601260045260246000fd5b60008261232c5761232c612307565b500490565b60006020828403121561234357600080fd5b5051919050565b634e487b7160e01b600052603260045260246000fd5b80820180821115612301576123016122d8565b600060018201612385576123856122d8565b5060010190565b8082028115828204841417612301576123016122d8565b634e487b7160e01b600052604160045260246000fd5b634e487b7160e01b600052603160045260246000fd5b6000826123de576123de612307565b50069056fea2646970667358221220b8812fe8c636bc33ebc5ff0ba7f1972f369cacfee220db51f69a5792a8fda0dc64736f6c63430008140033",
  "linkReferences": {},
  "deployedLinkReferences": {}
}